:100000000203F5E709F608DFFA8046E709F208DFA0
:10001000FA803E88828C83E709F0A3DFFA8032E31E
:1000200009F608DFFA8078E309F208DFFA807088C1
:10003000828C83E309F0A3DFFA806489828A83E0FB
:10004000A3F608DFFA805889828A83E0A3F208DFEA
:10005000FA804C80D280FA80C680D4806980F28099
:1000600033801080A680EA809A80A880DA80E280BF
:10007000CA803389828A83ECFAE493A3C8C582C814
:10008000CCC583CCF0A3C8C582C8CCC583CCDFE97E
:10009000DEE7800D89828A83E493A3F608DFF9EC1A
:1000A000FAA9F0EDFB2289828A83ECFAE0A3C8C5A5
:1000B00082C8CCC583CCF0A3C8C582C8CCC583CCCC
:1000C000DFEADEE880DB89828A83E493A3F208DF3B
:1000D000F980CC88F0EF60010E4E60C388F0ED240B
:1000E00002B4040050B9F582EB2402B4040050AF0E
:1000F000232345822390005373BB010689828A83A0
:10010000E0225002E722BBFE02E32289828A83E4D6
:100110009322BB010CE58229F582E5833AF583E061
:10012000225006E92582F8E622BBFE06E92582F880
:10013000E222E58229F582E5833AF583E49322BB46
:10014000010689828A83F0225002F722BBFE01F366
:1001500022F8BB010DE58229F582E5833AF583E8B3
:10016000F0225006E92582C8F622BBFE05E9258269
:10017000C8F222BC000BBE0029EF8DF084FFADF069
:1001800022E4CCF875F008EF2FFFEE33FEEC33FCE1
:10019000EE9DEC984005FCEE9DFE0FD5F0E9E4CE17
:1001A000FD22EDF8F5F0EE8420D21CFEADF075F0E6
:1001B00008EF2FFFED33FD4007985006D5F0F222EF
:1001C000C398FD0FD5F0EA22A3F8E0C5F025F0F0C2
:1001D000E582158270021583E0C838F0E822E88FC6
:1001E000F0A4CC8BF0A42CFCE98EF0A42CFC8AF0BB
:1001F000EDA42CFCEA8EF0A4CDA8F08BF0A42DCCBD
:100200003825F0FDE98FF0A42CCD35F0FCEB8EF015
:10021000A4FEA9F0EB8FF0A4CFC5F02ECD39FEE4FB
:100220003CFCEAA42DCE35F0FDE43CFC2275F00840
:10023000758200EF2FFFEE33FECD33CDCC33CCC52E
:100240008233C5829BED9AEC99E58298400CF58249
:10025000EE9BFEED9AFDEC99FC0FD5F0D6E4CEFBBB
:10026000E4CDFAE4CCF9A88222B800C1B90059BAA9
:10027000002DEC8BF084CFCECDFCE5F0CBF97818D7
:10028000EF2FFFEE33FEED33FDEC33FCEB33FB10D1
:10029000D703994004EB99FB0FD8E5E4F9FA2278EB
:1002A00018EF2FFFEE33FEED33FDEC33FCC933C9FD
:1002B00010D7059BE99A4007EC9BFCE99AF90FD807
:1002C000E0E4C9FAE4CCFB2275F010EF2FFFEE3327
:1002D000FEED33FDCC33CCC833C810D7079BEC9A66
:1002E000E899400AED9BFDEC9AFCE899F80FD5F0EF
:1002F000DAE4CDFBE4CCFAE4C8F922EB9FF5F0EAAE
:100300009E42F0E99D42F0E89C45F022E8600FEC47
:10031000C313FCED13FDEE13FEEF13FFD8F122E83B
:10032000600FEFC333FFEE33FEED33FDEC33FCD84B
:10033000F122ECF0A3EDF0A3EEF0A3EFF022A882FF
:100340008583F0D083D082120355120355120355D2
:10035000120355E473E493A3C583C5F0C583C8C5F0
:1003600082C8F0A3C583C5F0C583C8C582C822D0A2
:1003700083D082F8E4937012740193700DA3A39359
:10038000F8740193F5828883E4737402936860EFD4
:10039000A3A3A380DFD083D082F8E493701274010A
:1003A00093700DA3A393F8740193F5828883E4738B
:1003B000740293B5F0067403936860E9A3A3A3A342
:1003C00080D88A838982E473EC8EF0A4CCC5F0CC0B
:1003D000CDF8EFA4CEC5F02DFDE43CFCE8A42EC87A
:1003E000C5F03DFDE43CFCEFA4FFE5F028FEE43D54
:1003F000FDE43CFC22787FE4F6D8FD7581CF020451
:100400003C0204C2E493A3F8E493A34003F6800102
:10041000F208DFF48029E493A3F85407240CC8C33E
:1004200033C4540F4420C8834004F456800146F678
:10043000DFE4800B0102040810204080900481E476
:100440007E019360BCA3FF543F30E509541FFEE4D6
:1004500093A360010ECF54C025E060A840B8E49398
:10046000A3FAE493A3F8E493A3C8C582C8CAC583DA
:10047000CAF0A3C8C582C8CAC583CADFE9DEE7805F
:10048000BE414C9500574D2DD706E3A736B5F5076D
:10049000F7B777F4D1E6F171D0E4736460000141FD
:1004A0004DFC01414DFE00414DFF00414E00004119
:1004B0004E0100414E5B0000000000000000000003
:1004C0000000904C62E004F0120FEC1227B1123CD5
:1004D0000DB1A2904E59E0B402F112289091E512AC
:1004E000162080E722904D67E0C39415502B904C66
:1004F000C4E024FE60140424FC50162405702DF181
:10050000011226FEB1E2F11B8023D16D12393F802A
:100510001CB1E212386A801522B192E4904D67F066
:10052000904D54E06006A3E0904D54F022904D545D
:10053000E0B4E01E7B017A4D79277FE0122AD1904A
:100540004D5574E0F0904D54740BF0E4904D67F00D
:10055000B192904D54E0640B70377B017A4D794431
:100560007D05FCF1A8EF64054E7026904D47E0B480
:10057000E019904CC4E07006904D54F08006904D08
:10058000547480F0904D567401F022904D677415AC
:10059000F022908116E0FFA3E0908058CFF0A3EF07
:1005A000F022904E59E0B40121904C5BE07032D1C2
:1005B0005BB1929049FE7401F0904C63F0A37420FB
:1005C000F07B017A4C7963021BEF904E59E0B40343
:1005D0000BD15BB1929049FE7401F0229049FEE488
:1005E000F022904D54E0B4821E7B007A0079007FA7
:1005F00082122AD1904D557482F0904D547403F0BC
:10060000E4904D67F0B192904D54E06403704B7BE1
:10061000017A4D79447D09FCF1A8EF64094E703AE6
:10062000904D47E0B4822DA3E0904CD5F0904D4919
:10063000E0904CD4F0904D4AE0904CD3F0904D4B6C
:10064000E0904CD2F0E4904D54F0904D5604F09070
:100650004CD6F022904D677415F02290810EA3E0E5
:10066000FC90810EE0FFECFEEF4E70EF22E4FDFC0B
:100670007F011212F0AD07AC06904D54E064A070FB
:100680004E904D577491F0ED7806C333CE33CED8EB
:10069000F9904D58F0EDAE047802CEC313CE13D8C6
:1006A000F9904D59F0EC1313543FA3F04480F07BC4
:1006B000017A4D79577FA0122AD1D15B904D5574A4
:1006C000A0F0904D547407F0E4904D67F0B1929013
:1006D0004D54E0B4072A7B017A4D79447D057C00B6
:1006E000F1A8EF64054E7018904D47E0B4A00BE4FC
:1006F000904D54F0904D5604F022904D677415F0D3
:1007000022904D54E0B4C5127B007A0079007FC579
:10071000122AD1B192E4904D54F0227F07120A3888
:10072000AD07AC06904D54E064A1704A904D5774EB
:1007300020F0ED7806C333CE33CED8F9FB904D5878
:10074000F0EDAE047802CEC313CE13D8F9FF904D6E
:1007500059F0A3EBF0A3EFF07B017A4D79577FA11D
:10076000122AD1904D5574A1F0904D547408F0E4C4
:10077000904D67F0B192904D54E0B4082A7B017A15
:100780004D79447D057C00F1A8EF64054E7018900A
:100790004D47E0B4A10BE4904D54F0904D5604F059
:1007A00022904D677415F022904DCBEBF0A3EAF048
:1007B000A3E9F0A3ECF0A3EDF0E4A3F0A3F09080A4
:1007C00058A3E0FC908058E0FFECFEEF904DD2EE95
:1007D000F0A3EFF0908112A3E0FC908112E0FFEC17
:1007E000FEEFD3904DCFE09F904DCEE09E4004E4CD
:1007F000FEFF22E4904DD0F0A3F0904DCEE0FEA39A
:10080000E0FFC3904DD1E09F904DD0E09E400201AB
:10081000CD904DD2E475F0011201C8FAA9F07B0128
:10082000C003904DCBE0FBA3E475F0011201C8A812
:10083000F0FCAD03D0037E007F011200D390805600
:10084000A3E0FC908056E0FFECFEEF2401FFE43EC5
:10085000FE904DD2E0FCA3E0B5071AEEB504169069
:100860008054A3E0FC908054E0FFECFEEF904DD26A
:10087000EEF0A3EFF0908116A3E0FC908116E0FF6C
:10088000ECFEEF904DD2E0FCA3E0FDEF6D7002EEC8
:100890006C7029904DD2E0FEA3E0FFECFF3395E0B1
:1008A000AB07EDFFEB908058CFF0A3EFF0904DD168
:1008B000E02401FF904DD0E03400FE22904DD1E0C5
:1008C00004F07006904DD0E004F00207FA904DD28B
:1008D000E0FEA3E0FFFDAC06ECFF3395E0AB07EDD7
:1008E000FFEB908058CFF0A3EFF0904DCEE0FEA349
:1008F000E0FF227BFF7A0879F3904DD9744EF0A384
:10090000743CF07F0A7E0012117C904D67E0C39426
:10091000FF5003E004F0904E3AE0C394645005E0C9
:1009200004F0800FE4904E3AF07F071216857F02A4
:10093000123834E4FFF1157F05121084E433FF9080
:100940004CC4E0B40206904E037401F0904E00E0F7
:10095000C394FF5003E004F0EF64017066904DFC17
:1009600004F0E4A3F0904DFFE0B40105E4904E02E2
:10097000F0E4904DFEF0A3F0A3E0C39412400FA367
:10098000E0B4010AE4F0904E03E07002F153904E9F
:1009900002E0B40124E4F0904E00E0C3941250064B
:1009A000A3E004F0800EE4904E01F0F0904E03E0DE
:1009B0007002F153E4904E00F0904E03E064017039
:1009C00076F022904DFCE07065A3E0C394FF5003E5
:1009D000E004F0904DFDE0FFD39403401F904E02E1
:1009E0007401F0904DFEE0701304F0904E00E0D3DF
:1009F00094124003E4A3F0E4904E00F0EFD394503F
:100A00004035904DFFE0702F04F0904E01E0B403AC
:100A100013904CC47403F07F055138E4904E02F0FB
:100A2000904DFDF0E4904E01F0904E00F022E490E5
:100A30004DFCF0904E02F022AD07EDB40508E490B5
:100A40004CB0F0FEFF22ED64016002612A904C0878
:100A5000E0FF904DF8E4F0A3EFF0E0FE904C09E0E9
:100A6000FBEEEBFF904CAAEEF0A3EFF0904C0AE007
:100A7000FF904DF8E4F0A3EFF0E0FE904C0BE0FBAC
:100A8000EEEBFF904CACEEF0A3EFF0904C0CE0FFDF
:100A9000904DF8E4F0A3EFF0E0FE904C0DE0FBEE9B
:100AA000EBFF904CAEEEF0A3EFF0904CAAE0FEA36B
:100AB000E0FFC394E8EE94034009D3EF9470EE9402
:100AC00017404C904CACE0FEA3E0FFC394E8EE94DA
:100AD000034009D3EF9470EE94174033904CAEE08E
:100AE000FEA3E0FFC394E8EE94034009D3EF9470B3
:100AF000EE9417401A904CAA7417F0A37470F0A3E8
:100B00007413F0A37488F0A3740FF0A374A0F09092
:100B10004CAAE0FEA3E0FF7C007D0A120173904C1A
:100B2000B1EEF0A3EFF0E4FEFF22EDB4061B904C13
:100B3000AAE0FEA3E0FF7C007D0A120173904CB195
:100B4000EEF0A3EFF0E4FEFF22EDB40709904CB104
:100B5000E0FEA3E0FF22EDB40209904CAAE0FEA360
:100B6000E0FF22EDB40309904CACE0FEA3E0FF22CD
:100B7000EDB40409904CAEE0FEA3E0FF22904CD708
:100B8000E0FEA3E0FF904DF8EEF0FCA3EFF0FDE4F3
:100B9000FF12327E904DF8EEF0FCA3EFF0FD7F02E5
:100BA00012327E904DF4EEF0A3EFF0904CB0E07076
:100BB00048904DF8E0FCA3E0FD904CAAECF0A3EDCA
:100BC000F0C3904DF5E0940C904DF4E09400401C7F
:100BD0007F051212F0904DF8E0FCA3E0FD7F0112BA
:100BE000327E7F02F115904CB07401F0904DF8E028
:100BF000FCA3E0FD7F211239F0904CB0E0B4011865
:100C00007F01F115EFD394C84006904CB07402F008
:100C1000E4FDFC7F811239F0904CB0E06402600288
:100C200081D9FDFCFF1212F0904DFAEEF0A3EFF027
:100C3000C3904DF9E09FFF904DF8E09EFE904CAAC6
:100C4000F0A3EFF0D3904CB2E09F904CB1E09E50F7
:100C500015904DFAE0FEA3E0FFC3904DF9E09F90A0
:100C60004DF8E09E5032C3904DF5E0940C904DF459
:100C7000E09400401A904DF8E0FCA3E0FD7F0512DF
:100C800012F0904DF8E0FCA3E0FD7F0112327EE40B
:100C9000904CAAF0A3F08034D3904CABE094EE904B
:100CA0004CAAE094024025904DF5E0940C904DF450
:100CB000E0940040177F02F115904DF8E0FCA3E0AE
:100CC000FD7F0112327E904CB07403F0904CAAE08C
:100CD000FCA3E0FD7F211239F0904CB0E0B4031882
:100CE0007F01F115EFD394C84006904CB07404F026
:100CF000E4FDFC7F821239F0904CB0E064046002A5
:100D0000A19EFDFCFF1212F0904DFAEEF0A3EFF061
:100D1000C3904DF9E09FFF904DF8E09EFE904DF698
:100D2000F0A3EFF0904CAAE0FCA3E0FDD39FEC9E73
:100D30005015904DFAE0FEA3E0FFC3904DF9E09FFF
:100D4000904DF8E09E5009E4904CACF0A3F0804147
:100D5000C3904DF7E09DFF904DF6E09CFE904CACAB
:100D6000F0A3EFF0D394EEEE94024025904DF5E021
:100D7000940C904DF4E094004017904DF8E0FCA3E3
:100D8000E0FD7F0112327E7F02F115904CB07405B8
:100D9000F0904CACE0FCA3E0FD7F211239F0904CC8
:100DA000B0E0B405187F01F115EFD394C840069068
:100DB0004CB07406F0E4FDFC7F831239F0904CB027
:100DC000E064066002C17CFDFCFF1212F0904DFA57
:100DD000EEF0A3EFF0C3904DF9E09FFF904DF8E0E7
:100DE0009EFE904DF6F0A3EFF0904CAAE0FCA3E03D
:100DF000FDD39FEC9E5015904DFAE0FEA3E0FFC39B
:100E0000904DF9E09F904DF8E09E5009E4904CAE73
:100E1000F0A3F0805AC3904DF7E09DFF904DF6E0AF
:100E20009CFEF0A3EFF0904CACE0FCA3E0FDD39F60
:100E3000EC9E4007E4A3F0A3F08034C3904DF7E0AC
:100E40009DFF904DF6E09CFE904CAEF0A3EFF0D3EA
:100E500094EEEE94024018904DF5E0940C904DF411
:100E6000E09400400A7F02F115904CB07407F090B6
:100E70004CAEE0FCA3E0FD7F211239F0904CB0E0D5
:100E8000B407187F01F115EFD394C84006904CB019
:100E90007408F0E4FDFC7F841239F0904CB0E064FB
:100EA00008706EFDFCFF1212F0904DFAEEF0A3EF09
:100EB000F0904DFAE0FCA3E0FD7F061212F0904C9A
:100EC000C47401F0904CAAE0FAA3E07C007D0AFF14
:100ED000AE02120173904CB1EEF0A3EFF0EA904C29
:100EE00008F0904CAAE0A3E0904C09F0904CACE0E4
:100EF000FCA3E0FDEC904C0AF0EDA3F0904CAEE0CA
:100F0000FCA3E0FDEC904C0CF0EDA3F07F41121F30
:100F1000DFE4FEFF22EFB40207E4904CB7F0A3F049
:100F2000EFB40106904CB7E0FF22EF700C904CB785
:100F3000E0C394FF5003E004F0904CB7E0D39496E4
:100F40004004A37401F0EFB40306904CB8E0FF2214
:100F50007F0022904CC5E024FE600A14700E904C75
:100F6000C57402F022904CC57403F022904CC574F5
:100F700002F0227F03F115EF702D7F01F115EFC311
:100F8000941E5003023BE4EFC3943C50028019EFDF
:100F9000C3945A5002802CEFC3947850028009EF1A
:100FA000C394965002F1C322904D27E0540FF0A352
:100FB000E0E4F0A3E05408F0A3E05408F0A3E05408
:100FC000F0F022904D1CE0904D27F0904D1DE090E8
:100FD0004D28F0904D1EE0904D29F0904D1FE0906F
:100FE0004D2AF0904D20E0904D2BF0229049FEE4E8
:100FF000F09049FCE06410704F904E597402F0E498
:10100000904CC4F0123F1B7F40121FDFE4904C5BFA
:10101000F0904C06E06401600B7B0AE4FD7F0E7EDD
:101020004C121FA3904C06E09043E7F011B97BFFF0
:101030007A0879F3904DD9744EF0A3743CF07F0A8E
:101040007E00317C51BB80367F05118450067F1BAA
:1010500011844024904E597402F0904CC4F011B9A0
:101060007BFF7A0879F3904DD9744EF0A3743CF06D
:101070007F0A7E00317C8006904E597401F09049C1
:10108000FCE4F022EF5407FEEF1313135403FF2484
:101090001CFDE434818D82F583E0FD7C00AF067495
:1010A000017E00A807088005C333CE33CED8F9FFF0
:1010B000EE5CFEEF5D4E24FF22E4904CDAF090816E
:1010C00001E0FFE4FCFDFE780812031FA804A90557
:1010D000AA06AB07908100E0FFE4EB4FFFEAFEE9D0
:1010E000FDE8FCC004C005C006C007908102E0FF17
:1010F000E4FCFDFE781012031FD003D002D001D013
:1011000000EF4BFFEE4AFEED49FDEC48FCC004C089
:1011100005C006C007A3E0FFE4FCFDFE781812033B
:101120001FD003D002D001D000EF4BFFEE4AFEEDFE
:1011300049FDEC48FC904D13120332E4904E56F0FA
:10114000904E56E0FFC394085031EF75F003A4248D
:10115000DBF582E4344CF583E4F0A3F0A3F0EF2553
:10116000E025E024F3F582E4344CF58312033E00DD
:10117000000000904E56E004F080C522904DD4EE61
:10118000F0A3EFF0E4904DDBF0904CDAE0B4FF0216
:10119000C322904DDBE0FFC39408502D904CDAE061
:1011A000FEA807088002C313D8FC20E014904DD994
:1011B000E0FEA3E0FF4E6011A3E08F828E83F080FB
:1011C00008904DDBE004F080C9904CDAE0FF904DD0
:1011D000DBE0FE7401A806088002C333D8FC4F9000
:1011E0004CDAF0EE75F003A424DBF582E4344CF520
:1011F00083EBF0A3EAF0A3E9F0908101E0FFE4FCC7
:10120000FDFE780812031FA804A905AA06AB0790E3
:101210008100E0FFE4EB4FFFEAFEE9FDE8FCC004DB
:10122000C005C006C007908102E0FFE4FCFDFE7827
:101230001012031FD003D002D001D000EF4BFFEEFD
:101240004AFEED49FDEC48FCC004C005C006C007DD
:10125000A3E0FFE4FCFDFE781812031FD003D002C8
:10126000D001D000EF4BFFEE4AFEED49FDEC48FC0B
:10127000C004C005C006C007904DD4E0FEA3E0FF47
:10128000E4FCFD780412031FE47B05FAF9F812026E
:1012900069D003D002D001D000EF2BFFEE3AFEED73
:1012A00039FDEC38FC904DDBE025E025E024F3F53A
:1012B00082E4344CF583120332D322904CC4E070A4
:1012C0002E904CD6F0904D55F0904D54F0904CC56A
:1012D0007402F0E4A3F0A3F0C2017F01120A38E423
:1012E000FDFC7F0451F07F06D185D200121A7222D4
:1012F000904DECEFF0BF0408E4904C9BF0FEFF2211
:10130000904DECE0FBB4050C904C96ECF0A3EDF0A6
:10131000E4FEFF22EBB4060EAF05904C98ECF0A370
:10132000EFF0E4FEFF22904DECE0FDB40808E490FD
:101330004C9CF0FEFF22ED640A7075904C95E0C362
:10134000943C5052E004F0904CD7E0FEA3E0FF90B4
:101350004DEDEEF0FCA3EFF0FDE4FF12327E904D78
:10136000EDEEF0FCA3EFF0FD7F0212327EC3EF94AE
:101370000AEE9400403A904DEDE0FEA3E0FF904C61
:1013800098EEF0A3EFF0904C96EEF0A3EFF0904CB7
:101390009B7401F0801A904C98740FF0A374A0F025
:1013A000904C96740FF0A374A0F0904C9B7401F0D5
:1013B000904DECE064076002A10E904C9AF07F0122
:1013C00012321D904DF3EFF07F07120A38904DF165
:1013D000EEF0A3EFF0904CC8E0FEA3E0FFD3942C16
:1013E000EE94014006904DF3E07006904C9A740123
:1013F000F0D3EF94C8EE94004008904DF3E0600203
:1014000081EA7F02121941EFD39406500281EA7FEC
:10141000011219417F021218D3EF7054904C96E0DC
:10142000FEA3E0FF904CD7E0FCA3E0FDC39FEC9E41
:10143000402DED9FFFEC9EFE904DEFF0A3EFF0D31B
:10144000904DF2E09F904DF1E09E500281EA904C69
:10145000D7E0FFA3E0904C98CFF0A3EFF081EA90A3
:101460004CD7E0FFA3E0904C98CFF0A3EFF0807A48
:10147000904C9CE07074904C98E0FEA3E0FF904C80
:10148000D7E0FCA3E0FDD39FEC9E400EED9FFFEC68
:101490009E904DEFF0A3EFF0801B904CD7E0FEA3A1
:1014A000E0FFC3904C99E09FFF904C98E09E904DD8
:1014B000EFF0A3EFF0904CD7E0FFA3E0904C98CF73
:1014C000F0A3EFF0D3904DF0E0940A904DEFE0944C
:1014D000004011904C9D7401F0904CC17404F07F59
:1014E00002120F15904C9C7401F0904C9DE0B401D9
:1014F000197F01120F15EFD394C8400EE4904CC130
:10150000F0904C9DF07F031218D3E4FEFF22904D23
:10151000ECE0FD7009904C96E0FEA3E0FF22EDB4F4
:101520000208904C9BE0FF7E0022904DECE0FDB461
:101530000109904C98E0FEA3E0FF22EDB40308906F
:101540004C9AE0FF7E0022904DECE0B40908904CEC
:101550009DE0FF7E0022E4FEFF22904CC1E0640487
:1015600070357F0112377FBF0108E4FDFC7F8512D3
:1015700039F07F01F1A6BF0108E4FDFC7F86123936
:10158000F0E4FDFC7F0951F0EF64014E6002C11FE1
:10159000FDFC7F870239F0904CC5E07015904CC877
:1015A000E0FEA3E0FFA3EEF0FCA3EFF0FD7F41120D
:1015B00039F0904CC5E0B40215904CC8E0FEA3E0B1
:1015C000FFA3EEF0FCA3EFF0FD7F441239F0904C46
:1015D000C5E0B4031B904CC9E025E0FF904CC8E087
:1015E00033FE904CD0F0FCA3EFF0FD7F431239F0B6
:1015F000904CC5E0B40128904CC8E0FEA3E0FF7C0D
:10160000567D1E1203C8E47B107A27F9F81202698E
:10161000904CCCEEF0FCA3EFF0FD7F421239F022AB
:10162000904CC4E07005C200121A72904CC4E0B431
:101630000205E4FF121B5B904CD6E064017045F09C
:10164000FDFC7F0251F0EF4E7006FDFC7F0A41F079
:10165000904CC4E0B40104F1CDB15A904CC4E0B454
:101660000412120F737F03120F15BF01077F0112BF
:1016700019BDB15A904CC4E0B40305E4FF120A3816
:10168000E4FFD18522EFB40707904CBE7401F0222D
:10169000EF6040B40105E4904CB9F0EFB40205E40A
:1016A000904CBAF0EFB40305E4904CBBF0EFB404F7
:1016B00005E4904CBCF0EFB40505E4904CBDF0EFB0
:1016C00064066002E1A5904CB9F0A3F0A3F0A3F08A
:1016D000A3F022904CBEE064016002E1A5F07F011E
:1016E000F1A6BF011F904CBDE004F0E0C39403508D
:1016F00002E1A5904CC47402F07F01121B5BE490E0
:101700004CBDF0227F0112377FBF011F904CBCE01F
:1017100004F0E0C394035002E1A5904CC47402F0BD
:101720007F01121B5BE4904CBCF022904CC4E0643F
:1017300001704AFDFC7F0351F0EF64014E700C9084
:101740004CBBF0904CB9E004F0800BE4904CB9F045
:10175000904CBBE004F0904CB9E0C3940F5009905A
:101760004CBBE0C3940F403D904CC47402F07F0129
:10177000121B5BE4904CB9F0904CBBF022904CC42F
:10178000E0B40421E4904CBBF0904CBAE004F0E0EB
:10179000C3940F4010904CC47402F07F01121B5B85
:1017A000E4904CBAF022904CD9E030E10E904C9F7E
:1017B0007401F0904CC17404F08005E4904C9FF0EB
:1017C000EFB40106904C9FE0FF227F0022E4FF125D
:1017D000321DAD07AC06E4FF12327E12362EE4FF56
:1017E000121941E4FDFC7F0751F0E4FF1218D3E425
:1017F000FF12377FE4FFEFB40107E4904CA5F0FF40
:1018000022EFB40306904CA5E0FF227F0211D3EF34
:10181000600201D0904CA5F0C3904CC9E094FA90BE
:101820004CC8E09400500201D07F023141EFD394C4
:1018300005500201D0904CA57401F0904CC2E0FE1E
:10184000A3E0FF904CC8E0FCA3E0FDD39FEC9E40DA
:101850000EED9FFFEC9E904E52F0A3EFF0801B9098
:101860004CC8E0FEA3E0FFC3904CC3E09FFF904C48
:10187000C2E09E904E52F0A3EFF0D3904CC9E0949A
:1018800058904CC8E09402401D904E53E09419903B
:101890004E52E09400500F904CC2E0FFA3E0904CF9
:1018A000C8CFF0A3EFF0904CC8E0FEA3E0FF904C4F
:1018B000BFEEF0A3EFF0904CC2EEF0A3EFF0A374F4
:1018C00004F07F02120F15E4FF31BD7F061216856A
:1018D0007F0022EFB40109904C9E7403F07F002238
:1018E000EFB40206904C9EE0FF22EFB40307E490B1
:1018F0004C9EF0FF22E4FDFC7F031212F0EF640126
:101900004E701B904C9EE054FDF030E031904CBF87
:10191000E0FFA3E0904CC8CFF0A3EFF08020904C04
:101920009EE0FF30E111904CBFE0FDA3E0904CC879
:10193000CDF0A3EDF08007EF54FE904C9EF07F00B9
:1019400022EFB40107E4904CA4F0FF22EFB40206AA
:10195000904CA4E0FF22904CA2E0FEA3E0FF904C4C
:10196000C8E0FAA3E0FBD39FEA9E400E904CA2E0B1
:10197000A3E0EB9FFDEA9EFC8015904CC8E0FEA31F
:10198000E0FFC3904CA3E09FFD904CA2E09EFCC3FF
:10199000ED940AEC9400500E904CA4E0C394FF50D8
:1019A0000AE004F08005E4904CA4F0904CC8E0FFFD
:1019B000A3E0904CA2CFF0A3EFF07F0022EF7005E0
:1019C000904CA6F0227F031217F6BF01137F01127D
:1019D00017F6E4FDFC7F081212F0E4904CA7F02209
:1019E000904CA6E0705DA3E0700604F07F82516722
:1019F0007155EF6401706F904CA7F0904CD2E0905D
:101A00004E14F0904CD3E0904E15F0904CD4E090F2
:101A10004E16F0904CD5E0904E17F0904CC8E0FC7C
:101A2000A3E0FAECFFEAFEEF904E12EEF0A3EFF027
:101A30007B017A4E7912122676904CA67401F07FC3
:101A4000808024E4FF12321DAD07AC06E4FF1232A1
:101A50007E12362E1237CA904CBFE0FFA3E0904CA6
:101A6000C8CFF0A3EFF022E4904D56F0904D54EF24
:101A7000F02230000AE4904CB6F0904CB5F0229081
:101A80004CB6E07016904CB5E0700804F07FC5517C
:101A9000678008E4904CB5F0A304F0904CB6E0B435
:101AA000011A904CB5E0700604F07F8451677155BF
:101AB000BF0109E4904CB5F0A37402F0904CB6E07D
:101AC000B402037403F0904CB6E0B4031A904CB522
:101AD000E0700604F07F8251677155BF0109E49000
:101AE0004CB5F0A37404F0904CB6E0B4041A904CDA
:101AF000B5E0700604F07FA151677155BF0109E49C
:101B0000904CB5F0A37405F0904CB6E064057028D5
:101B1000904CB5E0700F04F07DB87C227F21123923
:101B2000F07FE051677155BF010EE4904CB5F0A312
:101B30007406F07F02120F15904CB6E0B406157FC4
:101B400001120F15EFD394C8400A904CC47401F0F1
:101B50007F80516722904D56E0FF22EFB4010AE4E6
:101B6000904CB4F0904CB3F022EFB4020C904CB413
:101B70007401F0E4904CB3F022904CB4E014603463
:101B8000047066904CB3E0700604F07FA05167715A
:101B900055EF64017058904CB3F0A304F0904C637F
:101BA000F0A37420F07B017A4C796371EF904E5969
:101BB0007401F022904CB3E0700604F07F85516709
:101BC0007155BF0129E4904CB3F0A3F0904E5974C5
:101BD00002F0FF12377F7F06121685E4904CC1F0A9
:101BE000904CC404F07F804167E4904CB4F02290A4
:101BF0004E04EBF0A3EAF0A3E9F01200F97002C37F
:101C0000221230C9904E04E0FBA3E0FAA3E0F912DF
:101C100000F9FD2FFFE433CF2402CF3400FED3EFD1
:101C20009480EE94004002A10E904A03E0FA904A9C
:101C300002E0FFEAFEEF904E07EEF0A3EFF0904EC9
:101C400007E475F0011201C885F082F58374C5F0D0
:101C5000904E07E0B44F0EA3E0B48009904E077495
:101C60004FF0A3E4F0904E07E475F0011201C8852F
:101C7000F082F583EDF0904E07E0B44F0EA3E0B490
:101C80008009904E07744FF0A3E4F0E4904E09F001
:101C9000A3F0904E04E0FBA3E0FAA3E0F91200F9F0
:101CA000FF904E09E0FCA3E0FDC39FEC9400504779
:101CB000E92401F9E43AFAE92DF9EA3CFA1200F9CB
:101CC000FF904E07E475F0011201C885F082F5839C
:101CD000EFF0904E07E0B44F0EA3E0B48009904EB1
:101CE00007744FF0A3E4F0904E0AE004F070069001
:101CF0004E09E004F0809B904E07E0FCA3E0FAEC74
:101D0000FFEAFEEF904A02EEF0A3EFF0D322C322E7
:101D1000AB07AA06904C63740AF0A37430F0A37466
:101D20001CF0E4A3F0A37410F0A37405F0E4A3F096
:101D3000A37410F0EFA3F0EEA3F0A3EDF07B017A13
:101D40004C79697D057C00B16B7B017A4C796371BC
:101D5000EF7F0AEFD394004011E4FDFC0DBD0001BC
:101D60000CBC2EF8BD7CF51F80E922904DB7EBF03E
:101D7000A3EAF0A3E9F0A3ECF0A3EDF024FFFEEC5E
:101D800034FF904DBEF0A3CEF0E4904DBCF0A3F034
:101D9000904DBAE0C313FEA3E013FFC3904DBDE026
:101DA0009F904DBCE09E507D904DB7E0FBA3E0FAC4
:101DB000A3E0F9904DBCE0FEA3E0F5828E83120112
:101DC00012904DC0F0904DBCE0A3E0FFC3904DBF1A
:101DD000E09FFF904DBEE09E8F82F583120112FFBF
:101DE000904DBCE0FCA3E0FDF5828C83EF12015125
:101DF000904DC0E0FFC3904DBFE09DFD904DBEE013
:101E00009CFC904DB7E0FBA3E0FAA3E0F98D828C37
:101E100083EF120151904DBDE004F07006904DBC6F
:101E2000E004F0A19022904E1EEBF0A3EAF0A3E9AB
:101E3000F0904E1EE0FBA3E0FAA3E0F9900004123C
:101E40000112904E21F0E92406F9E43AFAC002C0EA
:101E500001904E1EE0A3E0FAA3E0F9900005120104
:101E600012FD7C00D001D002B16B904E1EE0FBA3AE
:101E7000E0FAA3E0F9900007120112FE90000612AA
:101E80000112FDEEEDFF904E22EEF0A3EFF0904E2A
:101E900021E064106002E1217D017F25FEF1719057
:101EA0004E1EE0FBA3E0FAA3E02406F9E43AFAC0F0
:101EB00002C001904E1EE0A3E0FAA3E0F9900005F5
:101EC000120112F51CD001D0027FA07E48122E8B89
:101ED000904E22E0FEA3E08EF01203951F00000159
:101EE0001F0400031F0800081F0C000A1F10100227
:101EF0001F1410041F1810051F1C480100001F6745
:101F00007F1080647F1380607F18805C7F22805800
:101F10007F2580547F2880507F31804C7F358048DA
:101F200022904E21E07040904E1EE0FBA3E0FAA309
:101F3000E0F9900006120112B40111904C5CE0B47B
:101F400011047F41F1DFE4904C5CF022904C5CE0A6
:101F5000B4110F7B0AE4FD7F0E7E4CF1A39043E7A2
:101F6000E4F0E4904C5CF022904C5CE07002EFF006
:101F700022AB07AA06904C5AE064017025904C638E
:101F80007406F0A37430F0EBA3F0EAA3F0E4A3F03E
:101F9000A304F0A3EDF07B017A4C796371EF7F0A23
:101FA000B153228E1D8F1EAF031BEF6013051EE57C
:101FB0001EAE1D7002051D14F5828E83EDF080E7C4
:101FC000227E4C7F067B0AE4FDF1A3123F1B904367
:101FD000E7E4F0904C5E12033E000000007F419069
:101FE0004E5CEFF0BF40177B017A4C7900904DEBCF
:101FF000744CF07F007EA07D007C000221FD904E9D
:102000005CE0B441207F007EA07D007C0011267B37
:10201000017A4C7900904DE3744CF07F007EA07DF6
:10202000007C0011AE22904E2E119C9001BC7420B9
:10203000F0904E2EE0FCA3E0FDA3E0FEA3E0FF78CD
:102040001012030C9001BDEFF0904E2EE0FCA3E0C7
:10205000FDA3E0FEA3E0FF780812030C9001BEEFA1
:10206000F0904E2EE0FCA3E0FDA3E0FEA3E0FFE431
:102070009001BFEFF09080887404F0A3E4F0A374A3
:10208000BCF0A37401F090808EE4F0A3F090800681
:102090007402F090812CE030E3F9800512033231B4
:1020A0006F31B3EF30E0067F01319B80F422904D19
:1020B000DCEBF0A3EAF0A3E9F0A3119CE4FF904D60
:1020C000E3E0FEEFC39E5023904DDCE0FBA3E0FA7B
:1020D000A3E0F98F82758300120112FE74C02FF500
:1020E00082E43401F583EEF00F80D39001BC7402DA
:1020F000F0904DDFE0FCA3E0FDA3E0FEA3E0FF785D
:102100001012030C9001BDEFF0904DDFE0FCA3E056
:10211000FDA3E0FEA3E0FF780812030C9001BEEFE0
:10212000F0904DDFE0FCA3E0FDA3E0FEA3E0FFE4C0
:102130009001BFEFF0904DE3E02404FDE433FCEDAB
:10214000FAECFF3395E0EAFEEF908088EEF0A3EF23
:10215000F0A374BCF0A37401F090808EE4F0A3F0BF
:102160009080067402F090812CE030E3F901A19098
:10217000808EE4F0A3F090808804F0A3E4F0900156
:10218000BC7406F090808A74BCF0A37401F0908057
:102190000604F090812CE030E3F922EFD394004064
:1021A00011E4FDFC0DBD00010CBC04F8BD88F51F59
:1021B00080E922904E5774FFF090808E7401F0A356
:1021C000E4F090808804F0A3E4F09001BC7405F082
:1021D00090808A74BCF0A37401F07D57EDFA744EC0
:1021E000FFEAFEEFA3EEF0A3EFF09080067402F09A
:1021F00090812CE030E3F9904E57E0FF22904DE7BC
:10220000120332904DEBE0FDFEE490808EEEF0A3E1
:10221000E4F09080887404F0A3E4F09001BC7403AF
:10222000F0904DE7E0FCA3E0FDA3E0FEA3E0FF7823
:102230001012030C9001BDEFF0904DE7E0FCA3E01D
:10224000FDA3E0FEA3E0FF780812030C9001BEEFAF
:10225000F0904DE7E0FCA3E0FDA3E0FEA3E0FFE487
:102260009001BFEFF090808A74BCF0A37401F0E994
:10227000FCEAFFECFEEFA3EEF0A3EFF0908086E027
:102280004440F09080067402F090812CE020E7F941
:1022900090812CE030E3F922904D90120332904D62
:1022A00094EBF0A3EAF0A3E9F0904D9B12033E00FB
:1022B000000000904D97E0FCA3E0FDA3E0FEA3E04A
:1022C000FFA3E0F8A3E0F9A3E0FAA3E0FBC3120246
:1022D000FB40026184904D9BE0A3E0A3E0FEA3E0FD
:1022E000FF904D94E0FBA3E0FAA3E0F98F828E8388
:1022F000120112FFE4904D90E0F8A3E0F9A3E0FA98
:10230000A3E06FFFEAFEE9FDE8FCEFE4FEFDFC7BE5
:1023100004FAF9F81201DEE42FFFEE3480FEE43D0A
:10232000FDE43CFC904DEB7404F07B017A4E793671
:1023300031FD904D90E0FCA3E0FDA3E0FEA3E0FFA3
:10234000780812030C904E36E0F8A3E0F9A3E0FA07
:10235000A3E06FFFEA6EFEE96DFDE86CFC904D9026
:10236000120332904D9BE0FCA3E0FDA3E0FEA3E04E
:102370002401FFE43EFEE43DFDE43CFC904D9B1255
:10238000033241B3904D90E0FCA3E0FDA3E0FEA337
:10239000E0FF22904DC1E4F0A3F0A3F0904DC8F00F
:1023A000904C12E0904DCAF075F006A4240CFFE4A6
:1023B00035F0FE7C007D12120173EDD394004006CF
:1023C0007F017B0180047F007B00904C12E0FA7556
:1023D000F006A4240CFFE435F0FE7C007D1212010F
:1023E00073EB2F904DC9F0EA75F006A4240C904EC3
:1023F0005BF0904C647430F0A3741CF0E4A3F09094
:1024000048D27402F0A37448F0904DC9E0FF1490D4
:1024100048D4F0A3E4F0A37405F0A3E4F0A3F0A380
:10242000F0EFD394015002A16FE4904DC8F0904DAD
:10243000CAE0FF904DC8E0C39F5046D11C904DC1EB
:10244000EBF0A3EAF0A3E9F0904DC8E075F006A424
:1024500024DAFFE5F03448FAA9077B01C003C00283
:10246000904DC1E0FBA3E0FAA3E08B138A14F515AD
:10247000751606D002D003B1E8904DC8E004F08094
:10248000AD7B017A4879D2904E5BE024FCFFE434C6
:10249000FFFEE4FCFD904D971203327F007E007D2D
:1024A000007C005198904DC4120332904DC8E075E5
:1024B000F006A424DAFFE5F03448FAA9077B01C04E
:1024C000038B1375144D7515C4751604D003B1E84C
:1024D0007B017A4879D2904E5BE0FD7C00121D6B47
:1024E000E4904DC8F0904DC9E0FF904DC8E0FEC3A8
:1024F0009F4002A1E7A3E0FDC454F0FFEE2F904CF3
:1025000067F0ED14B5060A904E5BE0904C68F080E1
:102510000D904C687412F0904E5BE024EEF0904DFC
:10252000C8E0FDA3E0C39D14904C6BF0904C68E0B4
:102530002405904C63F0ED75F012A424D2FFE5F071
:102540003448A907751301F5148915904C68E0F516
:10255000167B017A4C7969B1E87B017A4C79631278
:102560001BEF7F0C121D53904DC8E004F081E590E5
:102570004C637413F0904C677410F0A3740EF0D198
:102580001C904DC1EBF0A3EAF0A3E9F04A601D9066
:102590004DC1E0FBA3E0FAA3E08B138A14F5157597
:1025A00016067B017A4879DAB1E8800B7B06E4FDF8
:1025B0007FD27E48121FA37513017514487515D27A
:1025C000904C68E0F5167B017A4C7969B1E87B01A3
:1025D0007A4C7969904C68E0FD7C00121D6B7B01A0
:1025E0007A4C7963121BEF228B108A118912AF1675
:1025F0001516EF6026AB130515E515AA1470020534
:102600001414F91200F9FFAB100512E512AA1170AB
:1026100002051114F9EF12013F80D322904E4CE4D1
:10262000F0A3F0A3F0904C12E0D3940050077B008D
:102630007A00790022904C10E075F006A42413F97A
:10264000744C35F0FA904E4C7401F0A3EAF0A3E913
:10265000F0904C10E02401FFE433FE7C007D0A1270
:102660000173EDF0904C12E014F0904E4CE0FBA39F
:10267000E0FAA3E0F922904E4FEBF0A3EAF0A3E9D1
:10268000F0904C12E0C3940A4002D11C904C11E02F
:1026900075F006A42413F9744C35F0FA7B01C003DD
:1026A000C002904E4FE0FBA3E0FAA3E08B138A1424
:1026B000F515751606D002D003B1E8904C11E02450
:1026C00001FFE433FE7C007D0A120173EDF0A3E00C
:1026D00004F022904E3DEBF0A3EAF0A3E9F0E4FF12
:1026E000AE051DEE6017904E3DE0FBA3E475F001D2
:1026F0001201C8A9F0FA1200F96FFF80E322E490FA
:102700004E46F0A3744EF0A37446F0904D54E0B4DE
:10271000842D904D577406F0A374F7F0A3740FF056
:102720007B017A4D79577F84122AD1904D5574845C
:10273000F0904D547405F0E4904D67F012059290BE
:102740004D54E0640570697B017A4D79447D0BFC42
:102750001207A8EF640B4E70577B017A4D79447DC8
:102760000AD1D3904D4EE06F7040904D46E064101A
:102770007038A3E0B48433904D4AE0904D4DF09012
:102780004D4C7455F0904D49E0904D4BF0904D4AB2
:1027900074BEF0904D48E0A3F0904D487408F0E40A
:1027A000904D54F0904D5604F022904D677415F002
:1027B000227B017A4D7968122FC4904D68E06076D3
:1027C000A3E024EE601C14602414602A24FC6060E2
:1027D00024077062E4904C59F0904C5AF0904C5B96
:1027E000F022E4904C5CF0904C5B04F0227B017A88
:1027F0004D7968021E26904D6AE0FFB41C0A904D88
:102800006CE0904C59F0800CEFB42508904D6CE0D2
:10281000904C5AF0904C0EE0B4011B904C59E0B42F
:102820000114904C5AE0B4010D904C5C7416F022E7
:10283000904C5D7401F022AC07EFD39408501190D6
:102840004CDAE0FEA807088002C313D8FC20E0029F
:10285000C322AF047401A807088002C333D8FCF474
:102860005E904CDAF0EC75F003A424DBF582E434DE
:102870004CF583E4F0A3F0A3F0EC25E025E024F38D
:10288000F582E4344CF58312033E00000000D322AD
:10289000908101E0FFE4FCFDFE780812031FA8040C
:1028A000A905AA06AB07908100E0FFE4EB4FFFEA21
:1028B000FEE9FDE8FCC004C005C006C00790810227
:1028C000E0FFE4FCFDFE781012031FD003D002D01D
:1028D00001D000EF4BFFEE4AFEED49FDEC48FCC095
:1028E00004C005C006C007A3E0FFE4FCFDFE7818A5
:1028F00012031FD003D002D001D000EF4BFFEE4AED
:10290000FEED49FDEC48FC904D13120332E4F51F37
:10291000AF1F904CDAE0FEA807088002C313D8FC72
:1029200020E00221C7E51F25E025E024F3F582E43D
:10293000344CF583E0FCA3E0FDA3E0FEA3E0FF90B0
:102940004D13E0F8A3E0F9A3E0FAA3E0FBD31202F1
:10295000FB503EE51F25E025E024F3F582E4344CEE
:10296000F583E0FCA3E0FDA3E0FEA3E0FF904D13A0
:10297000E0F8A3E0A3E0A3E0C3EF9BFFEE9AFEED37
:1029800099FDEC98FCE4FB7A10F9F8C31202FB50B5
:1029900036904CDAE0FFAE1F7401A806088002C32F
:1029A00033D8FCF45F904CDAF0E51F75F003A424F3
:1029B000DBF582E4344CF583E0A3E0FAA3E0F58292
:1029C0008A83AF1F1203C6051FE51FC39408500278
:1029D000211022904DADEBF0A3EAF0A3E9F0A3ECB7
:1029E000F0A3EDF090805EA3E0FC90805EE0FFEC51
:1029F000FEEFAA06F9904DB4E4F0A3EAF0A3E9F0E3
:102A0000E4904DB2F0A3F0904DB0E0FEA3E0FFC320
:102A1000904DB3E09F904DB2E09E400241B2904D88
:102A2000B4E0A3E475F0011201C8FEAFF0904DAD23
:102A3000E0FBA3E475F0011201C8A9F0FA751C01CE
:102A4000D18B90805CA3E0FC90805CE0FFECFEEF1B
:102A5000904DB4E0A3E0FAA3E024FFFDEA34FFFCCC
:102A6000EF6D7002EE6C703A90805CE0FFA3E0A323
:102A7000CFF0A3EFF090810EA3E0FC90810EE0FF79
:102A8000ECFEEF4E70EF90805AA3E0FC90805AE08D
:102A9000FFECFEEFAA06F9904DB4E4F0A3EAF0A330
:102AA000E9F0904DB3E004F07006904DB2E004F010
:102AB0004107904DB4E0A3E0FAA3E0AC02FDECFFC7
:102AC0003395E0AB07EDFFEB90805ECFF0A3EFF026
:102AD00022904D81EFF0A3EBF0A3EAF0A3E9F078A8
:102AE000857C4D7D017BFF7A0479B87E007F0A12D8
:102AF00000D3904D8574C5F0904D81E012036F2B8B
:102B000038802B4E812B64822B7A832BB7842BFE4B
:102B1000852C14A02C65A12CC0A22D11A32B27C598
:102B20002D58E000002DBBE4904D85F0A3F0A3F0FC
:102B3000904D8F7403F0A1C6904D867401F0A3747C
:102B400080F0A37444F0904D8F7404F0A1C6904DB2
:102B5000867401F0A37481F0A37445F0904D8F74D6
:102B600004F0A1C6904D867401F0A37482F0A374A2
:102B700046F0904D8F7404F0A1C6904D867403F01A
:102B8000A37483F0904D82E0FBA3E0FAA3E0F990F8
:102B90000001120112904D88F01200F9904D89F059
:102BA0007B017A4D79857D05B1D5904D8AEFF09006
:102BB0004D8F7406F0A1C6904D867404F0A3748402
:102BC000F0904D82E0FBA3E0FAA3E0F9900002123E
:102BD0000112904D88F0900001120112904D89F081
:102BE0001200F9904D8AF07B017A4D79857D06B10E
:102BF000D5904D8BEFF0904D8F7407F0A1C6904D9E
:102C0000867401F0A37485F0A37441F0904D8F7425
:102C100004F0A1C6904D867405F0A374A0F0904D09
:102C200082E0FBA3E0FAA3E0F99000031201129006
:102C30004D88F0900002120112904D89F090000131
:102C4000120112904D8AF01200F9904D8BF07B0129
:102C50007A4D79857D07B1D5904D8CEFF0904D8FF1
:102C60007408F0A1C6904D867406F0A374A1F0908C
:102C70004D82E0FBA3E0FAA3E0F9900004120112F8
:102C8000904D88F0900003120112904D89F0900051
:102C900002120112904D8AF0900001120112904D23
:102CA0008BF01200F9904D8CF07B017A4D79857D87
:102CB00008B1D5904D8DEFF0904D8F7409F0A1C6FD
:102CC000904D867405F0A374A2F0904D82E0FBA3B2
:102CD000E0FAA3E0F9900003120112904D88F09001
:102CE0000002120112904D89F09000011201129021
:102CF0004D8AF01200F9904D8BF07B017A4D798569
:102D00007D07B1D5904D8CEFF0904D8F7408F0A1F8
:102D1000C6904D867404F0A374A3F0904D82E0FB3E
:102D2000A3E0FAA3E0F9900002120112904D88F09E
:102D3000900001120112904D89F01200F9904D8A15
:102D4000F07B017A4D79857D06B1D5904D8BEFF002
:102D5000904D8F7407F0806E904D867407F0A374C9
:102D6000E0F0904D82E0FBA3E0FAA3E0F9900005CB
:102D7000120112904D88F0900004120112904D89BA
:102D8000F0900003120112904D8AF090000212019F
:102D900012904D8BF0900001120112904D8CF012A8
:102DA00000F9904D8DF07B017A4D79857D09B1D583
:102DB000904D8EEFF0A3740AF0800BE4904D86F0F6
:102DC000904D8F7402F07B017A4D7985904D8FE0A4
:102DD000FD7C0021D3904E49EBF0A3EAF0A3E9F08B
:102DE000E4FFEFC39D5035904E49E0FBA3E0FAA30A
:102DF000E02409F9E43AFAC002C0011200F9FE9099
:102E00004E49E0A3E0FAA3E0F98F82758300120136
:102E1000126ED001D00212013F0F80C6904E49E0E1
:102E2000FBA3E0FAA3E0F9900009120112FF22903F
:102E30004CC6E0FEA3E0FF7B017A4E7929D1C29017
:102E40004E2AE0FFD17B904D22EFF0904E2BE0FF19
:102E5000D17B904D23EFF0904E2CE0FFD17B904D35
:102E600024EFF0904E2DE0FFD17B904D25EFF0F157
:102E70002D7B017A4D79277FE041D17B017A4D7915
:102E80002D8F82758300120112FF228E178F188BEF
:102E9000198A1A891BAF1C151CEF6025AB19051B7D
:102EA000E51BAA1A7002051A14F91200F9FF051899
:102EB000E518AC177002051714F5828C83EFF080CB
:102EC000D422904E18EEF0A3EFF0A3EBF0A3EAF0BB
:102ED000A3E9F0E4A3F0904E1DE0FBC39405504C31
:102EE000904E18E0FEA3E0FF7C007D0A120173AF54
:102EF00005EBFDC374049DFDE49400FCA3E0FBA37B
:102F0000E0FAA3E0F98D828C83EF120151904E1804
:102F1000E0FEA3E0FF7C007D0A120173904E18EEE4
:102F2000F0A3EFF0904E1DE004F080AA22904D2512
:102F3000E0540FFFA3E054F04FF0904D24E0540F05
:102F4000FFA3E054F04FF0904D23E0540FFFA3E0B7
:102F500054F04FF0904D22E0540FFFA3E054F04F97
:102F6000F0904D22E054F0FFF0FD904D27E0540F1B
:102F7000F0A3E05408F0A3E05408F0A3E05408F0F4
:102F8000A3E054F8F0904D27E04DF0A3E0FF904D02
:102F900023E0FEEF4E904D28F0A3E0FF904D24E09B
:102FA000FEEF4E904D29F0A3E0FF904D25E0FEEF9F
:102FB0004E904D2AF0A3E0FF904D26E0FEEF4E909C
:102FC0004D2BF022904E24EBF0A3EAF0A3E9F0128F
:102FD0003135EFD3940250030230BA904A05E0FC39
:102FE000904A04E0FFECFEEF904E27EEF0A3EFF0E6
:102FF000904E27E475F0011201C885F082F583E058
:10300000FF64C660020195904E2775F0011201C859
:1030100085F082F583E0FF904E24E0FBA3E0FAA365
:10302000E0F9EF12013F904E27E0B4500FA3E0B457
:10303000000A904E27744FF0A37480F0E4FFFE90D6
:103040004E24E0FBA3E0FAA3E0F91200F9FDC3EF80
:103050009DEE9400504E904E27E475F0011201C889
:1030600085F082F583E0FDE92401F9E43AFAE92FDD
:10307000F9EA3EFAED12013F904E27E0B4500FA35B
:10308000E0B4000A904E27744FF0A37480F00FBF95
:1030900000010E80AA904E24E0FBA3E0FAA3E0F921
:1030A000E412013F904E27E0FCA3E0FAECFFEAFEB9
:1030B000EF904A04EEF0A3EFF022904E24E0FBA341
:1030C000E0FAA3E0F9E402013F904A03E0FC904AF1
:1030D00002E0FFECEFFD904A01E0FA904A00E0FFC9
:1030E000EAFEEFED2480FDE43CFCC3ED9FFFEC9E87
:1030F0007E00EF547FFF2211C9EF7002D322C3225A
:10310000904E40EBF0A3EAF0A3E9F011C9904E40D5
:10311000E0FBA3E0FAA3E0F91200F92FFFE433CFBC
:103120002401CF3400FED3EF9480EE64809480407D
:1031300002D322C322904A07E0FC904A06E0FFEC4B
:10314000EFFD904A05E0FA904A04E0FFEAFEEFED59
:103150002480FDE43CFCC3ED9FFFEC9E7E00EF5419
:103160007FFF229082807401F0228E218F228B2398
:103170008A248925AF261526EF6025AB230525E592
:1031800025AA247002052414F91200F9FF0522E58E
:1031900022AC217002052114F5828C83EFF080D4DB
:1031A00022904E32EBF0A3EAF0A3E9F0A3EDF0E4B5
:1031B000FFFE904E35E0FDC3EF9D7480F86E985091
:1031C00034904E32E0FBA3E0FAA3E0F98F828E83C5
:1031D000120112FD701F904E35E024FFFBE434FF16
:1031E000FAEBB50709EAB50605ED7002C3220FBF79
:1031F00000010E80BDD322EFD39400401FE4FDFCFC
:10320000E4FBFA0BBB00010ABA04F8BB7EF50DBD66
:1032100000010CBC03EABDE8E71F80DB22904E43AF
:10322000EFF0E4FDFC7F011212F0904CD7E0FCA31C
:10323000E0FDD39FEC9E4014ED9FFFEC9E904E442A
:10324000F0A3EFF0904C807401F0801A904CD7E01E
:10325000FCA3E0FDC3EF9DFFEE9C904E44F0A3EF76
:10326000F0E4904C80F0904E43E0B40108904C8024
:10327000E0FF7E0022904E44E0FEA3E0FF22904E4D
:103280000CECF0A3EDF0904E0BEFF0BF0209904C68
:1032900081E0FEA3E0FF22904C83E0FEA3E0FF90DC
:1032A0004E0CE0FCA3E0FDD39FEC9E4017904C83B6
:1032B000E0A3E0ED9FFFEC9EFEE4FCFD904E0E12BD
:1032C0000332801E904E0CE0FEA3E0FFC3904C84BE
:1032D000E09FFF904C83E09EFEE4FCFD904E0E12BA
:1032E0000332904E0CE0FFA3E0904C83CFF0A3EFAD
:1032F000F0E47F05FEFDFC904E0EE0F8A3E0F9A39C
:10330000E0FAA3E0FBD31202FB5007904E0BE0B4AF
:10331000012BE4904C81F0A3F0904C85F0A3F0A336
:10332000F0A3F0A3F0A3F0A3F0A3F0A3F0A3F0A305
:10333000F0A3F0A3F0A3F0A3F0A3F0C125C3904C39
:1033400082E094C8904C81E09400500CA3E004F01B
:103350007006904C81E004F0904C81E0FEA3E0FF09
:10336000D39401EE9400500F904E0CE0FDA3E0903A
:103370004C85CDF0A3EDF0D3EF9402EE9400500F06
:10338000904E0CE0FFA3E0904C87CFF0A3EFF0D37A
:10339000904C82E09403904C81E09400500F904E4A
:1033A0000CE0FFA3E0904C89CFF0A3EFF0904C81AC
:1033B000E0FEA3E0FFD39404EE9400500F904E0C77
:1033C000E0FDA3E0904C8BCDF0A3EDF0D3EF94059E
:1033D000EE9400500F904E0CE0FFA3E0904C8DCF88
:1033E000F0A3EFF0D3904C82E09406904C81E094EF
:1033F00000500F904E0CE0FFA3E0904C8FCFF0A355
:10340000EFF0904C81E0FEA3E0FFD39407EE940030
:10341000500F904E0CE0FDA3E0904C91CDF0A3ED49
:10342000F0D3EF9408EE9400500F904E0CE0FFA301
:10343000E0904C93CFF0A3EFF0D3904C82E094084F
:10344000904C81E094004078904C87E0FFA3E0909E
:103450004C85CFF0A3EFF0904C89E0FFA3E0904CB7
:1034600087CFF0A3EFF0904C8BE0FFA3E0904C8966
:10347000CFF0A3EFF0904C8DE0FFA3E0904C8BCF0A
:10348000F0A3EFF0904C8FE0FFA3E0904C8DCFF0D5
:10349000A3EFF0904C91E0FFA3E0904C8FCFF0A30E
:1034A000EFF0904C93E0FFA3E0904C91CFF0A3EFAE
:1034B000F0904E0CE0FFA3E0904C93CFF0A3EFF020
:1034C000904C85E0FEA3E0FFE4FCFD904E0E12035D
:1034D00032904E0EE0F8A3E0F9A3E0FAA3E0FB90EF
:1034E0004C87E0FEA3E0FFE4FCFDEB2FFFEA3EFE8D
:1034F000ED39FDEC38FC904E0E120332904E0EE08A
:10350000F8A3E0F9A3E0FAA3E0FB904C89E0FEA366
:10351000E0FFE4FCFDEB2FFFEA3EFEED39FDEC3869
:10352000FC904E0E120332904E0EE0F8A3E0F9A389
:10353000E0FAA3E0FB904C8BE0FEA3E0FFE4FCFD8F
:10354000EB2FFFEA3EFEED39FDEC38FC904E0E12FB
:103550000332904E0EE0F8A3E0F9A3E0FAA3E0FBFB
:10356000904C8DE0FEA3E0FFE4FCFDEB2FFFEA3E74
:10357000FEED39FDEC38FC904E0E120332904E0EEB
:10358000E0F8A3E0F9A3E0FAA3E0FB904C8FE0FEA3
:10359000A3E0FFE4FCFDEB2FFFEA3EFEED39FDEC7E
:1035A00038FC904E0E120332904E0EE0F8A3E0F974
:1035B000A3E0FAA3E0FB904C91E0FEA3E0FFE4FC63
:1035C000FDEB2FFFEA3EFEED39FDEC38FC904E0E90
:1035D000120332904E0EE0F8A3E0F9A3E0FAA3E064
:1035E000FB904C93E0FEA3E0FFE4FCFDEB2FFFEA31
:1035F0003EFEED39FDEC38FC904E0E120332E47BBA
:1036000008FAF9F8904E0EE0FCA3E0FDA3E0FEA35B
:10361000E0FF120269904E0CEEF0A3EFF0904C83A5
:10362000EEF0A3EFF0904E0CE0FEA3E0FF22904DF1
:103630009FEEF0A3EFF07F02120A38904DA7EEF054
:10364000A3EFF07F03120A38904DA9EEF0A3EFF03C
:103650007F04120A38904DABEEF0A3EFF0904DA727
:10366000E0FEA3E0FF904D9FE0FCA3E0FDD39FECC4
:103670009E50337E137F881203C8A3120332904DED
:10368000A7E0FEA3E0FFFBAA06E4F9F8904DA1E055
:10369000FCA3E0FDA3E0FEA3E0FF120269904CC88A
:1036A000EEF0A3EFF022904DA7E0FEA3E0FFC39061
:1036B0004DA0E09FFF904D9FE09EFE904DA5F0A392
:1036C000EFF0C3904DAAE09F904DA9E09E4043903B
:1036D0004DA5E0FEA3E0FF7C137D881203C8904D4A
:1036E000A1120332904DA9E0FEA3E0FFFBAA06E47D
:1036F000F9F8904DA1E0FCA3E0FDA3E0FEA3E0FFFC
:10370000120269EF2488FFEE3413904CC8F0A3EF47
:10371000F022904DA7E0FEA3E0FFC3904DA0E09FF4
:10372000FF904D9FE09EFE904DA9E0FCA3E0FDC3FD
:10373000EF9DFFEE9C904DA5F0A3EFF0904DA5E01E
:10374000FEA3E0FF7C137D881203C8904DA11203F5
:1037500032904DABE0FEA3E0FFFBAA06E4F9F8903F
:103760004DA1E0FCA3E0FDA3E0FEA3E0FF1202698F
:10377000EF2410FFEE3427904CC8F0A3EFF022EFB7
:10378000B40209E4904CA0F0A3F0FF22D3904CC9FE
:10379000E094C4904CC8E0943B4006904CA0E004F8
:1037A000F0904CA0E0C39402400E7402F0A314F019
:1037B000904CC17404F08005E4904CA1F0EFB4018A
:1037C00006904CA1E0FF227F0022904CBFE0FEA3B8
:1037D000E0FF904CC8E0FCA3E0FDD39FEC9E4020AE
:1037E000ED9FFFEC9EFE904E54F0A3EFF0C394E8E3
:1037F000EE9403403E904CC47401F07F060216859F
:10380000904CC8E0FEA3E0FFC3904CC0E09FFF9047
:103810004CBFE09EFE904E54F0A3EFF0C3942CEE0C
:103820009401400F904CC47401F0FF1218D37F062E
:1038300012168522EFB40107E4904CA8F0A3F0EF34
:10384000B4020C904CA8E0C394FF5003E004F09045
:103850004CA9E07014904CA8E0D39496400BA3744C
:1038600001F0E4904CC2F0A3F022904D54E0B480FB
:103870001F7B007A0079007F80122AD1904D557409
:1038800080F0904D547401F0E4904D67F012059271
:10389000904D54E064016002213E7B017A4D7944F1
:1038A0007D09FC1207A8EF64094E6002213E904D8D
:1038B00047E0648060022138904D4BE0904CD9F095
:1038C00030E35C904CD67401F0904D48E0FFE4FC8E
:1038D000FDFE780812031FA804A905AA06AB07A3DA
:1038E000E0FFE4FCFDFEEB2FFFEE3AFEED39FDECD0
:1038F00038FC780812031FA804A905AA06AB07A381
:10390000E0FFE4FCFDFEEB2FFFEE3AFEED39FDECAF
:1039100038FC780612030C904CD7EEF0A3EFF09031
:103920004CC4E07006904D54F08006904D5474E005
:10393000F0904D567401F022904D677415F022906E
:103940004D54E0B4851F7B007A0079007F85122AF0
:10395000D1904D557485F0904D547406F0E4904D1F
:1039600067F0120592904D54E06406600221EF7BEF
:10397000017A4D79447D08FC1207A8EF64084E7067
:103980006E904D47E064857060A3E0FFE4FCFDFEAF
:10399000780812031FA804A905AA06AB07A3E0FF35
:1039A000E4FCFDFEEB2FFFEE3AFEED39FDEC38FCBA
:1039B000780812031FA804A905AA06AB07A3E0FF15
:1039C000E4FCFDFEEB2FFFEE3AFEED39FDEC38FC9A
:1039D000780612030CAD07AC067F061212F0E490D5
:1039E0004D54F0904D5604F022904D677415F0221E
:1039F000904E58EFF0BF850F904D177415F0A3044B
:103A0000F0A3F0A3F0A3F0904E58E0FFB48614E4C6
:103A1000904D17F0A37415F0A37410F0A304F0A355
:103A20007415F0EFB48712904D177415F0A3F0A33E
:103A3000740CF0A37415F0A3F0EF6481600FEF64D1
:103A400082600AEF64836005EF6484703EE4904D09
:103A500017F0A3740CF0A3740AF0A37410F0EFB481
:103A60008104A37401F0904E58E0B48206904D1B7F
:103A70007402F0904E58E0FFB48306904D1B74031F
:103A8000F0EFB48406904D1B7404F0904E58E0FFA4
:103A900064216014EF6441600FEF6442600AEF64D8
:103AA000436005EF6444705FAE04AF057B017A4D5F
:103AB0007917122EC2904E58E0FF30E61D904D1A35
:103AC000E0A3F0904D19E0A3F0904D18E0A3F09022
:103AD0004D17E0A3F0E4904D17F0904D17E07007FC
:103AE000A3E070037415F0904D18E0B41507A3E03F
:103AF00070037415F0EF30E50E904D19E0B4150722
:103B0000A3E070037415F0904D18E0FF122E7B9027
:103B10004D22EFF0904D19E0FF122E7B904D23EFD8
:103B2000F0904D1AE0FF122E7B904D24EFF0904D57
:103B30001BE0FF122E7B904D25EFF0122F2D904DA4
:103B40002BE0540FF0904D2AE054F7F0904E58E0DF
:103B5000FDB4410C904D2AE04408F0A3E04410F07D
:103B6000EDB4420C904D2AE04408F0A3E04420F06C
:103B7000904E58E0B4430C904D2AE04408F0A3E086
:103B80004480F0904E58E0FDB4440C904D2AE0443F
:103B900008F0A3E044C0F0904C5BE0B40109904D04
:103BA00027E04402F08007904D27E054FDF0EDB48B
:103BB0002114904D27E054FDF0904D17E0600790E0
:103BC0004D27E04402F022E4904D27F0A3F0A3F04B
:103BD000A3F0A3F022904D2774FFF0A3F0A3F0A36D
:103BE000F0A3F022904D27E0904D1CF0904D28E07E
:103BF000904D1DF0904D29E0904D1EF0904D2AE023
:103C0000904D1FF0904D2BE0904D20F022904C6491
:103C10007430F0A3741CF0E4A3F0904C5CE0120349
:103C20006F3C46103CB3133D21163DB3183E272090
:103C30003E68223E8D253EBC283EE5313EFF353FA5
:103C4000113600003F1A9048A8E064016004E0B417
:103C500002217513017514487515A27516067B01AE
:103C60007A4C790A1225E8904C067401F09043E7EB
:103C7000F08005E4904C06F0904C637408F0904C92
:103C8000677410F0A37403F0A314F0E4A3F0904C55
:103C900006E0904C6BF07B017A4C79697D037C00E7
:103CA000121D6B7B017A4C7963121BEF904C5C7494
:103CB00011F0229048A2E0C39401401BE0D3940489
:103CC0005015A3E0B401109048A2E0904C09F09088
:103CD0004C077401F08006904C077402F0904C631E
:103CE0007408F0A37430F0A3741CF0E4A3F0A37480
:103CF00010F0A37403F0A304F0E4A3F0904C07E0E9
:103D0000904C6BF07B017A4C79697D037C00121D2D
:103D10006B7B017A4C7963121BEF904C5C7414F04E
:103D200022904C63740FF0904C6704F0A3740AF077
:103D3000A37407F0E4A3F0904E5AF0904E5AE0FFBF
:103D4000C39406502EE0FE24E8F582E43443F58364
:103D5000E0FD740A2EF582E4344CF583E06DFE74C8
:103D60006B2FF582E4344CF583EEF0904E5AE0046C
:103D7000F080C8904C09E0904C71F07F011217A6BA
:103D8000BF0108904C72740AF08006904C72746403
:103D9000F07B017A4C79697D0A7C00121D6B7B01F6
:103DA0007A4C7963121BEF7F0A121D53904C5C749E
:103DB00017F0229048A2E0904C10F0E0640170509F
:103DC000904E5AF0904E5AE0FF2412F582E4344CA3
:103DD000F583E0FE74A32FF582E43448F583E06EAA
:103DE00060047F0180027F00904E5AE024E8F58253
:103DF000E43443F583E06F6006904C637401F09007
:103E00004E5AE004F0E0B406BB904C5C7420F02203
:103E1000E4904C5CF0904C6304F0A37429F07B01B7
:103E20007A4C7963021BEF904C637408F0A37430F2
:103E3000F0A3741CF0E4A3F0A37410F0A37403F0D7
:103E4000A37409F0E4A3F0A37408F07B017A4C7921
:103E5000697D037C00121D6B7B017A4C7963121B18
:103E6000EF904C5C7421F0229048A2E0B408187ADC
:103E70004C795E7B01C0038B137514487515A375CF
:103E80001604D0031225E8E4904C5CF0229048A27E
:103E9000E030E0187A4C795E7B01C0038B13751417
:103EA000487515A3751604D0031225E87D017F021D
:103EB0007E10121D10904C5C7426F0229048A2E0F7
:103EC000D394035010E0904CC5F07D017F047E1028
:103ED000121D1080097D027F047E10121D10904C6F
:103EE0005C7429F0229048A3E030E003121FC17DEA
:103EF000017F057E10121D10904C5C7432F02290F0
:103F000048A3E07005904C5CF022904C5C7436F055
:103F100022122393904C5C7437F022E4904C10F002
:053F2000A3F0A3F02254
:00000001FF
