:100000000203F5E709F608DFFA8046E709F208DFA0
:10001000FA803E88828C83E709F0A3DFFA8032E31E
:1000200009F608DFFA8078E309F208DFFA807088C1
:10003000828C83E309F0A3DFFA806489828A83E0FB
:10004000A3F608DFFA805889828A83E0A3F208DFEA
:10005000FA804C80D280FA80C680D4806980F28099
:1000600033801080A680EA809A80A880DA80E280BF
:10007000CA803389828A83ECFAE493A3C8C582C814
:10008000CCC583CCF0A3C8C582C8CCC583CCDFE97E
:10009000DEE7800D89828A83E493A3F608DFF9EC1A
:1000A000FAA9F0EDFB2289828A83ECFAE0A3C8C5A5
:1000B00082C8CCC583CCF0A3C8C582C8CCC583CCCC
:1000C000DFEADEE880DB89828A83E493A3F208DF3B
:1000D000F980CC88F0EF60010E4E60C388F0ED240B
:1000E00002B4040050B9F582EB2402B4040050AF0E
:1000F000232345822390005373BB010689828A83A0
:10010000E0225002E722BBFE02E32289828A83E4D6
:100110009322BB010CE58229F582E5833AF583E061
:10012000225006E92582F8E622BBFE06E92582F880
:10013000E222E58229F582E5833AF583E49322BB46
:10014000010689828A83F0225002F722BBFE01F366
:1001500022F8BB010DE58229F582E5833AF583E8B3
:10016000F0225006E92582C8F622BBFE05E9258269
:10017000C8F222BC000BBE0029EF8DF084FFADF069
:1001800022E4CCF875F008EF2FFFEE33FEEC33FCE1
:10019000EE9DEC984005FCEE9DFE0FD5F0E9E4CE17
:1001A000FD22EDF8F5F0EE8420D21CFEADF075F0E6
:1001B00008EF2FFFED33FD4007985006D5F0F222EF
:1001C000C398FD0FD5F0EA22A3F8E0C5F025F0F0C2
:1001D000E582158270021583E0C838F0E822E88FC6
:1001E000F0A4CC8BF0A42CFCE98EF0A42CFC8AF0BB
:1001F000EDA42CFCEA8EF0A4CDA8F08BF0A42DCCBD
:100200003825F0FDE98FF0A42CCD35F0FCEB8EF015
:10021000A4FEA9F0EB8FF0A4CFC5F02ECD39FEE4FB
:100220003CFCEAA42DCE35F0FDE43CFC2275F00840
:10023000758200EF2FFFEE33FECD33CDCC33CCC52E
:100240008233C5829BED9AEC99E58298400CF58249
:10025000EE9BFEED9AFDEC99FC0FD5F0D6E4CEFBBB
:10026000E4CDFAE4CCF9A88222B800C1B90059BAA9
:10027000002DEC8BF084CFCECDFCE5F0CBF97818D7
:10028000EF2FFFEE33FEED33FDEC33FCEB33FB10D1
:10029000D703994004EB99FB0FD8E5E4F9FA2278EB
:1002A00018EF2FFFEE33FEED33FDEC33FCC933C9FD
:1002B00010D7059BE99A4007EC9BFCE99AF90FD807
:1002C000E0E4C9FAE4CCFB2275F010EF2FFFEE3327
:1002D000FEED33FDCC33CCC833C810D7079BEC9A66
:1002E000E899400AED9BFDEC9AFCE899F80FD5F0EF
:1002F000DAE4CDFBE4CCFAE4C8F922EB9FF5F0EAAE
:100300009E42F0E99D42F0E89C45F022E8600FEC47
:10031000C313FCED13FDEE13FEEF13FFD8F122E83B
:10032000600FEFC333FFEE33FEED33FDEC33FCD84B
:10033000F122ECF0A3EDF0A3EEF0A3EFF022A882FF
:100340008583F0D083D082120355120355120355D2
:10035000120355E473E493A3C583C5F0C583C8C5F0
:1003600082C8F0A3C583C5F0C583C8C582C822D0A2
:1003700083D082F8E4937012740193700DA3A39359
:10038000F8740193F5828883E4737402936860EFD4
:10039000A3A3A380DFD083D082F8E493701274010A
:1003A00093700DA3A393F8740193F5828883E4738B
:1003B000740293B5F0067403936860E9A3A3A3A342
:1003C00080D88A838982E473EC8EF0A4CCC5F0CC0B
:1003D000CDF8EFA4CEC5F02DFDE43CFCE8A42EC87A
:1003E000C5F03DFDE43CFCEFA4FFE5F028FEE43D54
:1003F000FDE43CFC22787FE4F6D8FD7581CF020451
:100400003C0204C2E493A3F8E493A34003F6800102
:10041000F208DFF48029E493A3F85407240CC8C33E
:1004200033C4540F4420C8834004F456800146F678
:10043000DFE4800B0102040810204080900481E476
:100440007E019360BCA3FF543F30E509541FFEE4D6
:1004500093A360010ECF54C025E060A840B8E49398
:10046000A3FAE493A3F8E493A3C8C582C8CAC583DA
:10047000CAF0A3C8C582C8CAC583CADFE9DEE7805F
:10048000BE414C9500574D2ED706E3A736B5F5076C
:10049000F7B777F4D1E6F171D0E4736460000141FD
:1004A0004E0B01414E0D00414E0E00414E0F0041DA
:1004B0004E1000414E5D00000000000000000000F2
:1004C0000000904C62E004F0120FFA121FDA123AA8
:1004D000BBB1A2904E5BE0B402F11220B991E512DB
:1004E0000F9C80E722904D68E0C39415502B904CF0
:1004F000C5E024FE60140424FC50162405702DF180
:100500000112187AB1E2F11B8023D16D1237B58048
:100510001CB1E21236E0801522B192E4904D68F0F1
:10052000904D55E06006A3E0904D55F022904D555A
:10053000E0B4E01E7B017A4D79287FE012192C90FF
:100540004D5674E0F0904D55740BF0E4904D68F00A
:10055000B192904D55E0640B70377B017A4D79452F
:100560007D05FCF1A8EF64054E7026904D48E0B47F
:10057000E019904CC5E07006904D55F08006904D06
:10058000557480F0904D577401F022904D687415A9
:10059000F022908116E0FFA3E0908058CFF0A3EF07
:1005A000F022904E5BE0B40121904C5BE07032D1C0
:1005B0005BB1929049FE7401F0904C63F0A37420FB
:1005C000F07B017A4C79630227F2904E5BE0B40332
:1005D0000BD15BB1929049FE7401F0229049FEE488
:1005E000F022904D55E0B4821E7B007A0079007FA6
:1005F0008212192C904D567482F0904D557403F070
:10060000E4904D68F0B192904D55E06403704B7BDF
:10061000017A4D79457D09FCF1A8EF64094E703AE5
:10062000904D48E0B4822DA3E0904CD6F0904D4A16
:10063000E0904CD5F0904D4BE0904CD4F0904D4C68
:10064000E0904CD3F0E4904D55F0904D5704F0906D
:100650004CD7F022904D687415F02290810EA3E0E3
:10066000FC90810EE0FFECFEEF4E70EF22E4FDFC0B
:100670007F011212FBAD07AC06904D55E064A070EF
:100680004E904D587491F0ED7806C333CE33CED8EA
:10069000F9904D59F0EDAE047802CEC313CE13D8C5
:1006A000F9904D5AF0EC1313543FA3F04480F07BC3
:1006B000017A4D79587FA012192CD15B904D567458
:1006C000A0F0904D557407F0E4904D68F0B1929011
:1006D0004D55E0B4072A7B017A4D79457D057C00B4
:1006E000F1A8EF64054E7018904D48E0B4A00BE4FB
:1006F000904D55F0904D5704F022904D687415F0D0
:1007000022904D55E0B4C5127B007A0079007FC578
:1007100012192CB192E4904D55F0227F07120A086D
:10072000AD07AC06904D55E064A1704A904D5874E9
:1007300020F0ED7806C333CE33CED8F9FB904D5977
:10074000F0EDAE047802CEC313CE13D8F9FF904D6E
:100750005AF0A3EBF0A3EFF07B017A4D79587FA11B
:1007600012192C904D5674A1F0904D557408F0E478
:10077000904D68F0B192904D55E0B4082A7B017A13
:100780004D79457D057C00F1A8EF64054E70189009
:100790004D48E0B4A10BE4904D55F0904D5704F056
:1007A00022904D687415F022904DCCEBF0A3EAF046
:1007B000A3E9F0A3ECF0A3EDF0E4A3F0A3F09080A4
:1007C00058A3E0FC908058E0FFECFEEF904DD3EE94
:1007D000F0A3EFF0908112A3E0FC908112E0FFEC17
:1007E000FEEFD3904DD0E09F904DCFE09E4004E4CB
:1007F000FEFF22E4904DD1F0A3F0904DCFE0FEA398
:10080000E0FFC3904DD2E09F904DD1E09E400201A9
:10081000CD904DD3E475F0011201C8FAA9F07B0127
:10082000C003904DCCE0FBA3E475F0011201C8A811
:10083000F0FCAD03D0037E007F011200D390805600
:10084000A3E0FC908056E0FFECFEEF2401FFE43EC5
:10085000FE904DD3E0FCA3E0B5071AEEB504169068
:100860008054A3E0FC908054E0FFECFEEF904DD369
:10087000EEF0A3EFF0908116A3E0FC908116E0FF6C
:10088000ECFEEF904DD3E0FCA3E0FDEF6D7002EEC7
:100890006C7029904DD3E0FEA3E0FFECFF3395E0B0
:1008A000AB07EDFFEB908058CFF0A3EFF0904DD267
:1008B000E02401FF904DD1E03400FE22904DD2E0C3
:1008C00004F07006904DD1E004F00207FA904DD389
:1008D000E0FEA3E0FFFDAC06ECFF3395E0AB07EDD7
:1008E000FFEB908058CFF0A3EFF0904DCFE0FEA348
:1008F000E0FF227BFF7A0879F3904DDA744EF0A383
:100900007440F07F0A7E00121189904D68E0C39414
:10091000FF5003E004F0904E3EE0C394645005E0C5
:1009200004F0800FE4904E3EF07F071235877F027F
:100930001236AAE4FFD1E57F05121091E433FF904F
:100940004E0FE0C394FF5003E004F0EF64017043E6
:10095000904E0B04F0E4A3F0904E0EE0B40105E4D9
:10096000904E11F0E4904E0DF0A3F0904E11E06423
:100970000160024107F0904E0FE0C3940F5006A3B0
:10098000E004F08008E4904E10F01234EDE4904E54
:100990000FF022904E0BE07065A3E0C394FF50036C
:1009A000E004F0904E0CE0FFD39403401F904E11F2
:1009B0007401F0904E0DE0701304F0904E0FE0D3F0
:1009C000940F4003E4A3F0E4904E0FF0EFD3943281
:1009D0004035904E0EE0702F04F0904E10E0B403BE
:1009E00013904CC57403F07F055108E4904E11F04C
:1009F000904E0CF0E4904E10F0904E0FF022E490E8
:100A00004E0BF0904E11F022AD07EDB40508E490C6
:100A10004CB1F0FEFF22ED6401600241FA904C08F7
:100A2000E0FF904DF9E4F0A3EFF0E0FE904C09E018
:100A3000FBEEEBFF904CABEEF0A3EFF0904C0AE036
:100A4000FF904DF9E4F0A3EFF0E0FE904C0BE0FBDB
:100A5000EEEBFF904CADEEF0A3EFF0904C0CE0FF0E
:100A6000904DF9E4F0A3EFF0E0FE904C0DE0FBEECA
:100A7000EBFF904CAFEEF0A3EFF0904CABE0FEA399
:100A8000E0FFC394E8EE94034009D3EF9470EE9432
:100A900017404C904CADE0FEA3E0FFC394E8EE9409
:100AA000034009D3EF9470EE94174033904CAFE0BD
:100AB000FEA3E0FFC394E8EE94034009D3EF9470E3
:100AC000EE9417401A904CAB7417F0A37470F0A317
:100AD0007413F0A37488F0A3740FF0A374A0F090C3
:100AE0004CABE0FEA3E0FF7C007D0A120173904C4A
:100AF000B2EEF0A3EFF0E4FEFF22EDB4061B904C43
:100B0000ABE0FEA3E0FF7C007D0A120173904CB2C3
:100B1000EEF0A3EFF0E4FEFF22EDB40709904CB233
:100B2000E0FEA3E0FF22EDB40209904CABE0FEA38F
:100B3000E0FF22EDB40309904CADE0FEA3E0FF22FC
:100B4000EDB40409904CAFE0FEA3E0FF22904CD836
:100B5000E0FEA3E0FF904DF9EEF0FCA3EFF0FDE422
:100B6000FF12313D904DF9EEF0FCA3EFF0FD7F0256
:100B700012313D904DF5EEF0A3EFF0904CB1E070E6
:100B800048904DF9E0FCA3E0FD904CABECF0A3EDF8
:100B9000F0C3904DF6E0940F904DF5E09400401CAA
:100BA0007F051212FB904DF9E0FCA3E0FD7F0112DE
:100BB000313D7F02D1E5904CB17401F0904DF9E0E8
:100BC000FCA3E0FD7F21121603904CB1E0B40118A4
:100BD0007F01D1E5EFD394C84006904CB17402F088
:100BE000E4FDFC7F81121603904CB1E064026002C8
:100BF00081A9FDFCFF1212FB904DFBEEF0A3EFF07C
:100C0000C3904DFAE09FFF904DF9E09EFE904CABF3
:100C1000F0A3EFF0D3904CB3E09F904CB2E09E5025
:100C200015904DFBE0FEA3E0FFC3904DFAE09F90CE
:100C30004DF9E09E5032C3904DF6E0940F904DF583
:100C4000E09400401A904DF9E0FCA3E0FD7F05120E
:100C500012FB904DF9E0FCA3E0FD7F0112313DE471
:100C6000904CABF0A3F08034D3904CACE094EE9079
:100C70004CABE094024025904DF6E0943C904DF54D
:100C8000E0940040177F02D1E5904DF9E0FCA3E02D
:100C9000FD7F0112313D904CB17403F0904CABE0FC
:100CA000FCA3E0FD7F21121603904CB1E0B40318C1
:100CB0007F01D1E5EFD394C84006904CB17404F0A5
:100CC000E4FDFC7F82121603904CB1E064046002E4
:100CD000A16EFDFCFF1212FB904DFBEEF0A3EFF0B6
:100CE000C3904DFAE09FFF904DF9E09EFE904DF7C6
:100CF000F0A3EFF0904CABE0FCA3E0FDD39FEC9EA3
:100D00005015904DFBE0FEA3E0FFC3904DFAE09F2D
:100D1000904DF9E09E5009E4904CADF0A3F0804175
:100D2000C3904DF8E09DFF904DF7E09CFE904CADD8
:100D3000F0A3EFF0D394EEEE94024025904DF6E050
:100D4000940F904DF5E094004017904DF9E0FCA30E
:100D5000E0FD7F0112313D7F02D1E5904CB1740579
:100D6000F0904CADE0FCA3E0FD7F21121603904C07
:100D7000B1E0B405187F01D1E5EFD394C8400690E7
:100D80004CB17406F0E4FDFC7F83121603904CB165
:100D9000E064066002C14CFDFCFF1212FB904DFBAB
:100DA000EEF0A3EFF0C3904DFAE09FFF904DF9E015
:100DB0009EFE904DF7F0A3EFF0904CABE0FCA3E06B
:100DC000FDD39FEC9E5015904DFBE0FEA3E0FFC3CA
:100DD000904DFAE09F904DF9E09E5009E4904CAFA1
:100DE000F0A3F0805AC3904DF8E09DFF904DF7E0DE
:100DF0009CFEF0A3EFF0904CADE0FCA3E0FDD39F90
:100E0000EC9E4007E4A3F0A3F08034C3904DF8E0DB
:100E10009DFF904DF7E09CFE904CAFF0A3EFF0D318
:100E200094EEEE94024018904DF6E0940F904DF53C
:100E3000E09400400A7F02D1E5904CB17407F09035
:100E40004CAFE0FCA3E0FD7F21121603904CB1E013
:100E5000B407187F01D1E5EFD394C84006904CB198
:100E60007408F0E4FDFC7F84121603904CB1E0643A
:100E700008706EFDFCFF1212FB904DFBEEF0A3EF2D
:100E8000F0904DFBE0FCA3E0FD7F061212FB904CBE
:100E9000C57401F0904CABE0FAA3E07C007D0AFF42
:100EA000AE02120173904CB2EEF0A3EFF0EA904C58
:100EB00008F0904CABE0A3E0904C09F0904CADE012
:100EC000FCA3E0FDEC904C0AF0EDA3F0904CAFE0F9
:100ED000FCA3E0FDEC904C0CF0EDA3F07F41121F61
:100EE0003BE4FEFF22EFB40207E4904CB8F0A3F01D
:100EF000EFB40106904CB8E0FF22EF700C904CB8B4
:100F0000E0C394FF5003E004F0904CB8E0D3949613
:100F10004004A37401F0EFB40306904CB9E0FF2243
:100F20007F00227F03D1E5EF702D7F01D1E5EFC374
:100F3000941E50030239D7EFC3943C50028019EF3E
:100F4000C3945A5002802CEFC3947850028009EF6A
:100F5000C394965002F17322904D28E0540FF0A3F1
:100F6000E0E4F0A3E05408F0A3E05408F0A3E05458
:100F7000F0F022904D1DE0904D28F0904D1EE09035
:100F80004D29F0904D1FE0904D2AF0904D20E090BB
:100F90004D2BF0904D21E0904D2CF022904CC5E06F
:100FA0007005C200122DA4904CC5E0B40205E4FF08
:100FB000122E8D904CD7E06401703EF0FDFC7F0254
:100FC0001212FBEF4E7007FDFC7F0A0212FB904CE1
:100FD000C5E0B40106122B69121543904CC5E0B46C
:100FE0000407F1237F01122CF5904CC5E0B40304F3
:100FF000E4FF5108E4FF123587229049FEE4F090A7
:1010000049FCE06410704E904E5B7402F0E4904C2A
:10101000C5F0F1E57F40121F3BE4904C5BF0904C33
:1010200006E06401600B7B0AE4FD7F0E7E4C121F1C
:101030009C904C06E09043E7F011C67BFF7A08795C
:10104000F3904DDA744EF0A37440F07F0A7E0031C5
:101050008951C880367F05119150067F1B11914040
:1010600024904E5B7402F0904CC5F011C67BFF7A61
:101070000879F3904DDA744EF0A37440F07F0A7E45
:101080000031898006904E5B7401F09049FCE4F0D9
:1010900022EF5407FEEF1313135403FF241CFDE447
:1010A00034818D82F583E0FD7C00AF0674017E0003
:1010B000A807088005C333CE33CED8F9FFEE5CFE17
:1010C000EF5D4E24FF22E4904CDBF0908101E0FFC5
:1010D000E4FCFDFE780812031FA804A905AA06ABCC
:1010E00007908100E0FFE4EB4FFFEAFEE9FDE8FC3A
:1010F000C004C005C006C007908102E0FFE4FCFD0B
:10110000FE781012031FD003D002D001D000EF4BA5
:10111000FFEE4AFEED49FDEC48FCC004C005C006E8
:10112000C007A3E0FFE4FCFDFE781812031FD00304
:10113000D002D001D000EF4BFFEE4AFEED49FDECAE
:1011400048FC904D14120332E4904E58F0904E58E3
:10115000E0FFC394085031EF75F003A424DCF5825E
:10116000E4344CF583E4F0A3F0A3F0EF25E025E0B0
:1011700024F4F582E4344CF58312033E00000000B1
:10118000904E58E004F080C522904DD5EEF0A3EFCC
:10119000F0E4904DDCF0904CDBE0B4FF02C3229011
:1011A0004DDCE0FFC39408502D904CDBE0FEA80717
:1011B000088002C313D8FC20E014904DDAE0FEA3AF
:1011C000E0FF4E6011A3E08F828E83F08008904D87
:1011D000DCE004F080C9904CDBE0FF904DDCE0FEE9
:1011E0007401A806088002C333D8FC4F904CDBF092
:1011F000EE75F003A424DCF582E4344CF583EBF0C7
:10120000A3EAF0A3E9F0908101E0FFE4FCFDFE78A1
:101210000812031FA804A905AA06AB07908100E0E5
:10122000FFE4EB4FFFEAFEE9FDE8FCC004C005C0A7
:1012300006C007908102E0FFE4FCFDFE7810120377
:101240001FD003D002D001D000EF4BFFEE4AFEEDDD
:1012500049FDEC48FCC004C005C006C007A3E0FF80
:10126000E4FCFDFE781812031FD003D002D001D099
:1012700000EF4BFFEE4AFEED49FDEC48FCC004C018
:1012800005C006C007904DD5E0FEA3E0FFE4FCFDDD
:10129000780412031FE47B05FAF9F8120269D003FF
:1012A000D002D001D000EF2BFFEE3AFEED39FDEC7D
:1012B00038FC904DDCE025E025E024F4F582E434B0
:1012C0004CF583120332D322904CC5E0702C904C25
:1012D000D7F0904D56F0904D55F0904CC6F0A3F0DD
:1012E000A3F0C2017F01120A08E4FDFC7F0451FB58
:1012F0007F06123587D200122DA422904DEDEFF01B
:10130000BF0408E4904C9BF0FEFF22904DEDE0FB03
:10131000B4050C904C96ECF0A3EDF0E4FEFF22EB4C
:10132000B4060EAF05904C98ECF0A3EFF0E4FEFF8E
:1013300022904DEDE0FDB40808E4904C9CF0FEFFD7
:1013400022ED640A7075904C95E0C3943C5052E0D5
:1013500004F0904CD8E0FEA3E0FF904DEEEEF0FCE0
:10136000A3EFF0FDE4FF12313D904DEEEEF0FCA353
:10137000EFF0FD7F0212313DC3EF940AEE9400407E
:101380003A904DEEE0FEA3E0FF904C98EEF0A3EF14
:10139000F0904C96EEF0A3EFF0904C9B7401F0802F
:1013A0001A904C98740FF0A374A0F0904C96740FA0
:1013B000F0A374A0F0904C9B7401F0904DEDE064AC
:1013C00007600281F7904C9AF07F01F1EF904DF4A5
:1013D000EFF07F07120A08904DF2EEF0A3EFF090C5
:1013E0004CC9E0FEA3E0FFD3942CEE94014006909C
:1013F0004DF4E07006904C9A7401F0D3EF94C8EE6F
:1014000094004008904DF4E0600281F37F02122BBB
:101410008FEF6401600281F37F01122B8F7F021234
:101420002F6CEF7054904C96E0FEA3E0FF904CD8E8
:10143000E0FCA3E0FDC39FEC9E402DED9FFFEC9EE2
:10144000FE904DF0F0A3EFF0D3904DF3E09F904D60
:10145000F2E09E500281F3904CD8E0FFA3E0904C64
:1014600098CFF0A3EFF081F3904CD8E0FFA3E09089
:101470004C98CFF0A3EFF0807A904C9CE070749081
:101480004C98E0FEA3E0FF904CD8E0FCA3E0FDD335
:101490009FEC9E400EED9FFFEC9E904DF0F0A3EF71
:1014A000F0801B904CD8E0FEA3E0FFC3904C99E085
:1014B0009FFF904C98E09E904DF0F0A3EFF0904C81
:1014C000D8E0FFA3E0904C98CFF0A3EFF0D3904D7D
:1014D000F1E0940A904DF0E094004011904C9D741E
:1014E00001F0904CC27404F07F03122F6C904C9C5E
:1014F0007401F0E4FEFF22904DEDE0FD7009904C88
:1015000096E0FEA3E0FF22EDB40208904C9BE0FFC2
:101510007E0022904DEDE0FDB40109904C98E0FE74
:10152000A3E0FF22EDB40308904C9AE0FF7E002276
:10153000904DEDE0B40908904C9DE0FF7E0022E460
:10154000FEFF22904CC2E0640470337F01122F2111
:10155000BF0107E4FDFC7F85D1037F01122FDABFB5
:101560000107E4FDFC7F86D103E4FDFC7F0951FB0C
:10157000EF64014E6002C102FDFC7F87C103904C05
:10158000C6E07014904CC9E0FEA3E0FFA3EEF0FCAF
:10159000A3EFF0FD7F41D103904CC6E0B40214905C
:1015A0004CC9E0FEA3E0FFA3EEF0FCA3EFF0FD7F4B
:1015B00044D103904CC6E0B4031A904CCAE025E035
:1015C000FF904CC9E033FE904CD1F0FCA3EFF0FD4E
:1015D0007F43D103904CC6E0B40127904CC9E0FE94
:1015E000A3E0FF7C567D1E1203C8E47B107A27F926
:1015F000F8120269904CCDEEF0FCA3EFF0FD7F42B3
:10160000D10322904E5AEFF0BF850F904D187415FC
:10161000F0A304F0A3F0A3F0A3F0904E5AE0FFB4BF
:101620008614E4904D18F0A37415F0A37410F0A381
:1016300004F0A37415F0EFB48712904D187415F0F0
:10164000A3F0A3740CF0A37415F0A3F0EF64816011
:101650000FEF6482600AEF64836005EF6484703E7C
:10166000E4904D18F0A3740CF0A3740AF0A3741066
:10167000F0EFB48104A37401F0904E5AE0B48206F6
:10168000904D1C7402F0904E5AE0FFB48306904DCA
:101690001C7403F0EFB48406904D1C7404F0904E5B
:1016A0005AE0FF64216014EF6441600FEF64426010
:1016B0000AEF64436005EF6444705FAE04AF057BDE
:1016C000017A4D79181238B8904E5AE0FF30E61D75
:1016D000904D1BE0A3F0904D1AE0A3F0904D19E05F
:1016E000A3F0904D18E0A3F0E4904D18F0904D1841
:1016F000E07007A3E070037415F0904D19E0B41585
:1017000007A3E070037415F0EF30E50E904D1AE07A
:10171000B41507A3E070037415F0904D19E0FFF1C4
:10172000D5904D23EFF0904D1AE0FFF1D5904D2468
:10173000EFF0904D1BE0FFF1D5904D25EFF0904D6F
:101740001CE0FFF1D5904D26EFF0123923904D2C7F
:10175000E0540FF0904D2BE054F7F0904E5AE0FD1E
:10176000B42114904D28E054FDF0904D18E060072E
:10177000904D28E04402F0EDB4410C904D2BE04434
:1017800008F0A3E04410F0904E5AE0B4420C904DA3
:101790002BE04408F0A3E04420F0904E5AE0FDB462
:1017A000430C904D2BE04408F0A3E04480F0EDB4EE
:1017B000440C904D2BE04408F0A3E044C0F0904C62
:1017C0005BE0B40108904D28E04402F022904D28DF
:1017D000E054FDF0227B017A4D792E8F82758300D3
:1017E000120112FF22E4904C10F0A3F0A3F022901B
:1017F0004E47EFF0E4FDFC7F0151FB904CD8E0FC3C
:10180000A3E0FDD39FEC9E4014ED9FFFEC9E904E15
:1018100048F0A3EFF0904C807401F0801A904CD8FF
:10182000E0FCA3E0FDC3EF9DFFEE9C904E48F0A3CB
:10183000EFF0E4904C80F0904E47E0B40108904CFB
:1018400080E0FF7E0022904E48E0FEA3E0FF229061
:101850004E41EBF0A3EAF0A3E9F0E4FFAE051DEE84
:101860006017904E41E0FBA3E475F0011201C8A996
:10187000F0FA1200F96FFF80E322E4904E4AF0A3E1
:10188000744EF0A3744AF0904D55E0B4842C904D02
:10189000587406F0A374F7F0A3740FF07B017A4D2F
:1018A00079587F84312C904D567484F0904D557446
:1018B00005F0E4904D68F0120592904D55E06405F6
:1018C00070697B017A4D79457D0BFC1207A8EF64A6
:1018D0000B4E70577B017A4D79457D0A114F904D23
:1018E0004FE06F7040904D47E064107038A3E0B453
:1018F0008433904D4BE0904D4EF0904D4D7455F02B
:10190000904D4AE0904D4CF0904D4B74BEF0904D90
:1019100049E0A3F0904D497408F0E4904D55F090E3
:101920004D5704F022904D687415F022904D82EFCF
:10193000F0A3EBF0A3EAF0A3E9F078867C4D7D01FB
:101940007BFF7A0479B87E007F0A1200D3904D861F
:1019500074C5F0904D82E012036F19938019A9812C
:1019600019BF8219D5831A12841A59851A6FA01AC1
:10197000C0A11B1BA21B6CA31982C51BB3E00000F6
:101980001C16E4904D86F0A3F0A3F0904D907403E4
:10199000F08121904D877401F0A37480F0A374440A
:1019A000F0904D907404F08121904D877401F0A364
:1019B0007481F0A37445F0904D907404F0812190EF
:1019C0004D877401F0A37482F0A37446F0904D909B
:1019D0007404F08121904D877403F0A37483F09018
:1019E0004D83E0FBA3E0FAA3E0F99000011201129D
:1019F000904D89F01200F9904D8AF07B017A4D7973
:101A0000867D05B12C904D8BEFF0904D907406F0D3
:101A10008121904D877404F0A37484F0904D83E08D
:101A2000FBA3E0FAA3E0F9900002120112904D89A5
:101A3000F0900001120112904D8AF01200F9904DC1
:101A40008BF07B017A4D79867D06B12C904D8CEF21
:101A5000F0904D907407F08121904D877401F0A3B0
:101A60007485F0A37441F0904D907404F08121903E
:101A70004D877405F0A374A0F0904D83E0FBA3E0C4
:101A8000FAA3E0F9900003120112904D89F0900042
:101A900002120112904D8AF0900001120112904D35
:101AA0008BF01200F9904D8CF07B017A4D79867D98
:101AB00007B12C904D8DEFF0904D907408F081217E
:101AC000904D877406F0A374A1F0904D83E0FBA3C2
:101AD000E0FAA3E0F9900004120112904D89F09011
:101AE0000003120112904D8AF09000021201129030
:101AF0004D8BF0900001120112904D8CF01200F904
:101B0000904D8DF07B017A4D79867D08B12C904DFA
:101B10008EEFF0904D907409F08121904D877405FF
:101B2000F0A374A2F0904D83E0FBA3E0FAA3E0F9E8
:101B3000900003120112904D89F0900002120112E0
:101B4000904D8AF0900001120112904D8BF012001E
:101B5000F9904D8CF07B017A4D79867D07B12C9000
:101B60004D8DEFF0904D907408F08121904D877469
:101B700004F0A374A3F0904D83E0FBA3E0FAA3E08C
:101B8000F9900002120112904D89F09000011201AB
:101B900012904D8AF01200F9904D8BF07B017A4D36
:101BA00079867D06B12C904D8CEFF0904D907407A6
:101BB000F0806E904D877407F0A374E0F0904D8331
:101BC000E0FBA3E0FAA3E0F9900005120112904DAA
:101BD00089F0900004120112904D8AF090000312D7
:101BE0000112904D8BF0900002120112904D8CF07A
:101BF000900001120112904D8DF01200F9904D8E5F
:101C0000F07B017A4D79867D09B12C904D8FEFF0F4
:101C1000A3740AF0800BE4904D87F0904D9074020D
:101C2000F07B017A4D7986904D90E0FD7C00904DDF
:101C3000AEEBF0A3EAF0A3E9F0A3ECF0A3EDF09093
:101C4000805EA3E0FC90805EE0FFECFEEFAA06F968
:101C5000904DB5E4F0A3EAF0A3E9F0E4904DB3F0C1
:101C6000A3F0904DB1E0FEA3E0FFC3904DB4E09F20
:101C7000904DB3E09E4002A10D904DB5E0A3E475F8
:101C8000F0011201C8FEAFF0904DAEE0FBA3E47589
:101C9000F0011201C8A9F0FA751C01B18690805CB0
:101CA000A3E0FC90805CE0FFECFEEF904DB5E0A37C
:101CB000E0FAA3E024FFFDEA34FFFCEF6D7002EED2
:101CC0006C703A90805CE0FFA3E0A3CFF0A3EFF04C
:101CD00090810EA3E0FC90810EE0FFECFEEF4E70D1
:101CE000EF90805AA3E0FC90805AE0FFECFEEFAA50
:101CF00006F9904DB5E4F0A3EAF0A3E9F0904DB4F5
:101D0000E004F07006904DB3E004F08162904DB5B0
:101D1000E0A3E0FAA3E0AC02FDECFF3395E0AB07F3
:101D2000EDFFEB90805ECFF0A3EFF022904E4DEBF5
:101D3000F0A3EAF0A3E9F0E4FFEFC39D5035904E25
:101D40004DE0FBA3E0FAA3E02409F9E43AFAC0026B
:101D5000C0011200F9FE904E4DE0A3E0FAA3E0F9B5
:101D60008F827583001201126ED001D00212013FE2
:101D70000F80C6904E4DE0FBA3E0FAA3E0F990007F
:101D800009120112FF228E178F188B198A1A891BCC
:101D9000AF1C151CEF6025AB19051BE51BAA1A70BB
:101DA00002051A14F91200F9FF0518E518AC1770AE
:101DB00002051714F5828C83EFF080D422904E1E1A
:101DC000EBF0A3EAF0A3E9F0904E1EE0FBA3E0FAEB
:101DD000A3E0F9900004120112904E21F0E92406CC
:101DE000F9E43AFAC002C001904E1EE0A3E0FAA363
:101DF000E0F9900005120112FD7C00D001D0021222
:101E00003A00904E1EE0FBA3E0FAA3E0F990000731
:101E1000120112FE900006120112FDEEEDFF904E2F
:101E200022EEF0A3EFF0904E21E064106002C1B802
:101E30007D017F25FEF108904E1EE0FBA3E0FAA392
:101E4000E02406F9E43AFAC002C001904E1EE0A375
:101E5000E0FAA3E0F9900005120112F51CD001D0C0
:101E6000027FA07E48B186904E22E0FEA3E08EF075
:101E70001203951E9700011E9B00031E9F00081E63
:101E8000A3000A1EA710021EAB10041EAF10051EF1
:101E9000B3480100001EFE7F1080647F1380607FC6
:101EA00018805C7F2280587F2580547F2880507F57
:101EB00031804C7F35804822904E21E07040904E1A
:101EC0001EE0FBA3E0FAA3E0F9900006120112B4B1
:101ED0000111904C5CE0B411047F41F13BE4904C63
:101EE0005CF022904C5CE0B4110F7B0AE4FD7F0EA5
:101EF0007E4CF19C9043E7E4F0E4904C5CF022903F
:101F00004C5CE07002EFF022AB07AA06904C5AE05E
:101F100064017026904C637406F0A37430F0EBA358
:101F2000F0EAA3F0E4A3F0A304F0A3EDF07B017AC0
:101F30004C79631227F27F0AF18422904E5EEFF013
:101F4000BF40177B017A4C7900904DEC744CF07FC8
:101F5000007EA07D007C000223D3904E5EE0B44161
:101F6000227F007EA07D007C001222587B017A4CEB
:101F70007900904DE4744CF07F007EA07D007C00E1
:101F80001222CE22EFD394004011E4FDFC0DBD00DF
:101F9000010CBC2EF8BD7CF51F80E9228E1D8F1E22
:101FA000AF031BEF6013051EE51EAE1D7002051D7D
:101FB00014F5828E83EDF080E7227E4C7F067B0A4B
:101FC000E4FDF19C1217E59043E7E4F0904C5E12BB
:101FD000033E000000007F41E13B7B017A4D7969BF
:101FE00012297E904D69E06076A3E024EE601C1417
:101FF000602414602A24FC606024077062E4904C22
:1020000059F0904C5AF0904C5BF022E4904C5CF00C
:10201000904C5B04F0227B017A4D7969021DBD90E2
:102020004D6BE0FFB41C0A904D6DE0904C59F08070
:102030000CEFB42508904D6DE0904C5AF0904C0E8A
:10204000E0B4011B904C59E0B40114904C5AE0B438
:10205000010D904C5C7416F022904C5D7401F022DE
:10206000AC07EFD394085011904CDBE0FEA80708B2
:102070008002C313D8FC20E002C322AF047401A87D
:1020800007088002C333D8FCF45E904CDBF0EC759B
:10209000F003A424DCF582E4344CF583E4F0A3F0EF
:1020A000A3F0EC25E025E024F4F582E4344CF5833C
:1020B00012033E00000000D322908101E0FFE4FC07
:1020C000FDFE780812031FA804A905AA06AB079015
:1020D0008100E0FFE4EB4FFFEAFEE9FDE8FCC0040D
:1020E000C005C006C007908102E0FFE4FCFDFE7859
:1020F0001012031FD003D002D001D000EF4BFFEE2F
:102100004AFEED49FDEC48FCC004C005C006C0070E
:10211000A3E0FFE4FCFDFE781812031FD003D002F9
:10212000D001D000EF4BFFEE4AFEED49FDEC48FC3C
:10213000904D14120332E4F51FAF1F904CDBE0FE0C
:10214000A807088002C313D8FC20E00221F0E51F95
:1021500025E025E024F4F582E4344CF583E0FCA38B
:10216000E0FDA3E0FEA3E0FF904D14E0F8A3E0F94A
:10217000A3E0FAA3E0FBD31202FB503EE51F25E0EB
:1021800025E024F4F582E4344CF583E0FCA3E0FD83
:10219000A3E0FEA3E0FF904D14E0F8A3E0A3E0A3CA
:1021A000E0C3EF9BFFEE9AFEED99FDEC98FCE4FB9B
:1021B0007A10F9F8C31202FB5036904CDBE0FFAE08
:1021C0001F7401A806088002C333D8FCF45F904C4A
:1021D000DBF0E51F75F003A424DCF582E4344CF554
:1021E00083E0A3E0FAA3E0F5828A83AF1F1203C65F
:1021F000051FE51FC394085002213922904E5974DF
:10220000FFF090808E7401F0A3E4F090808804F0D9
:10221000A3E4F09001BC7405F090808A74BCF0A334
:102220007401F07D59EDFA744EFFEAFEEFA3EEF073
:10223000A3EFF09080067402F090812CE030E3F977
:10224000904E59E0FF22120332718F31FCEF30E0E3
:10225000067F0171BB80F422904E2E51469001BC46
:102260007420F0904E2EE0FCA3E0FDA3E0FEA3E07E
:10227000FF781012030C9001BDEFF0904E2EE0FCA1
:10228000A3E0FDA3E0FEA3E0FF780812030C900199
:10229000BEEFF0904E2EE0FCA3E0FDA3E0FEA3E035
:1022A000FFE49001BFEFF09080887404F0A3E4F0A5
:1022B000A374BCF0A37401F090808EE4F0A3F090BE
:1022C00080067402F090812CE030E3F9414B904D90
:1022D000DDEBF0A3EAF0A3E9F0A35146E4FF904D53
:1022E000E4E0FEEFC39E5023904DDDE0FBA3E0FA57
:1022F000A3E0F98F82758300120112FE74C02FF5DE
:1023000082E43401F583EEF00F80D39001BC7402B7
:10231000F0904DE0E0FCA3E0FDA3E0FEA3E0FF7839
:102320001012030C9001BDEFF0904DE0E0FCA3E033
:10233000FDA3E0FEA3E0FF780812030C9001BEEFBE
:10234000F0904DE0E0FCA3E0FDA3E0FEA3E0FFE49D
:102350009001BFEFF0904DE4E02404FDE433FCED88
:10236000FAECFF3395E0EAFEEF908088EEF0A3EF01
:10237000F0A374BCF0A37401F090808EE4F0A3F09D
:102380009080067402F090812CE030E3F9414B908C
:10239000808EE4F0A3F090808804F0A3E4F0900134
:1023A000BC7406F090808A74BCF0A37401F0908035
:1023B0000604F090812CE030E3F922EFD394004042
:1023C00011E4FDFC0DBD00010CBC04F8BD88F51F37
:1023D00080E922904DE8120332904DECE0FDFEE4DE
:1023E00090808EEEF0A3E4F09080887404F0A3E473
:1023F000F09001BC7403F0904DE8E0FCA3E0FDA375
:10240000E0FEA3E0FF781012030C9001BDEFF09006
:102410004DE8E0FCA3E0FDA3E0FEA3E0FF78081296
:10242000030C9001BEEFF0904DE8E0FCA3E0FDA3AB
:10243000E0FEA3E0FFE49001BFEFF090808A74BC5F
:10244000F0A37401F0E9FCEAFFECFEEFA3EEF0A3C9
:10245000EFF0908086E04440F09080067402F090A7
:10246000812CE020E7F990812CE030E3F922904DB7
:1024700091120332904D95EBF0A3EAF0A3E9F090AE
:102480004D9C12033E00000000904D98E0FCA3E03C
:10249000FDA3E0FEA3E0FFA3E0F8A3E0F9A3E0FAC8
:1024A000A3E0FBC31202FB4002A15A904D9CE0A3A3
:1024B000E0A3E0FEA3E0FF904D95E0FBA3E0FAA3CC
:1024C000E0F98F828E83120112FFE4904D91E0F8C3
:1024D000A3E0F9A3E0FAA3E06FFFEAFEE9FDE8FC60
:1024E000EFE4FEFDFC7B04FAF9F81201DEE42FFFB5
:1024F000EE3480FEE43DFDE43CFC904DEC7404F0D1
:102500007B017A4E793A71D3904D91E0FCA3E0FDC6
:10251000A3E0FEA3E0FF780812030C904E3AE0F827
:10252000A3E0F9A3E0FAA3E06FFFEA6EFEE96DFD18
:10253000E86CFC904D91120332904D9CE0FCA3E0BE
:10254000FDA3E0FEA3E02401FFE43EFEE43DFDE444
:102550003CFC904D9C1203328189904D91E0FCA38C
:10256000E0FDA3E0FEA3E0FF22904DC2E4F0A3F063
:10257000A3F0904DC9F0904C12E0904DCBF075F067
:1025800006A4240CFFE435F0FE7C007D12120173DA
:10259000EDD3940040067F017B0180047F007B0027
:1025A000904C12E0FA75F006A4240CFFE435F0FE1E
:1025B0007C007D12120173EB2F904DCAF0EA75F08A
:1025C00006A4240C904E5DF0904C647430F0A3741B
:1025D0001CF0E4A3F09048D27402F0A37448F09089
:1025E0004DCAE0FF149048D4F0A3E4F0A37405F0C2
:1025F000A3E4F0A3F0A3F0EFD394015002E145E48B
:10260000904DC9F0904DCBE0FF904DC9E0C39F5075
:1026100047123E08904DC2EBF0A3EAF0A3E9F09018
:102620004DC9E075F006A424DAFFE5F03448FAA9B4
:10263000077B01C003C002904DC2E0FBA3E0FAA3F8
:10264000E08B138A14F515751606D002D003F1BE7F
:10265000904DC9E004F080AC7B017A4879D2904E6D
:102660005DE024FCFFE434FFFEE4FCFD904D981295
:1026700003327F007E007D007C00916E904DC5127C
:102680000332904DC9E075F006A424DAFFE5F0347A
:1026900048FAA9077B01C0038B1375144D7515C546
:1026A000751604D003F1BE7B017A4879D2904E5D55
:1026B000E0FD7C00123A00E4904DC9F0904DCAE074
:1026C000FF904DC9E0FEC39F4002E1BDA3E0FDC401
:1026D00054F0FFEE2F904C67F0ED14B5060A904EC3
:1026E0005DE0904C68F0800D904C687412F0904E54
:1026F0005DE024EEF0904DC9E0FDA3E0C39D149091
:102700004C6BF0904C68E02405904C63F0ED75F054
:1027100012A424D2FFE5F03448A907751301F5147B
:102720008915904C68E0F5167B017A4C7969F1BE09
:102730007B017A4C7963F1F27F0C121F84904DC9B2
:10274000E004F0C1BC904C637413F0904C677410BB
:10275000F0A3740EF0123E08904DC2EBF0A3EAF025
:10276000A3E9F04A601D904DC2E0FBA3E0FAA3E0AC
:102770008B138A14F5157516067B017A4879DAF100
:10278000BE800B7B06E4FD7FD27E48121F9C751332
:10279000017514487515D2904C68E0F5167B017AE6
:1027A0004C7969F1BE7B017A4C7969904C68E0FD07
:1027B0007C00123A007B017A4C7963F1F2228B1093
:1027C0008A118912AF161516EF6026AB130515E5B1
:1027D00015AA147002051414F91200F9FFAB1005C4
:1027E00012E512AA117002051114F9EF12013F80CF
:1027F000D322904DFDEBF0A3EAF0A3E9F01200F92B
:102800007002C3223112904DFDE0FBA3E0FAA3E079
:10281000F91200F9FD2FFFE433CF2402CF3400FE7C
:10282000D3EF9480EE940040022110904A03E0FA26
:10283000904A02E0FFEAFEEF904E00EEF0A3EFF0C8
:10284000904E00E475F0011201C885F082F58374A2
:10285000C5F0904E00E0B44F0EA3E0B48009904E56
:1028600000744FF0A3E4F0904E00E475F001120103
:10287000C885F082F583EDF0904E00E0B44F0EA3D2
:10288000E0B48009904E00744FF0A3E4F0E4904E61
:1028900002F0A3F0904DFDE0FBA3E0FAA3E0F912F3
:1028A00000F9FF904E02E0FCA3E0FDC39FEC940012
:1028B0005047E92401F9E43AFAE92DF9EA3CFA1221
:1028C00000F9FF904E00E475F0011201C885F08216
:1028D000F583EFF0904E00E0B44F0EA3E0B4800912
:1028E000904E00744FF0A3E4F0904E03E004F070BB
:1028F00006904E02E004F0809B904E00E0FCA3E0C6
:10290000FAECFFEAFEEF904A02EEF0A3EFF0D322DA
:10291000C322904A03E0FC904A02E0FFECEFFD90F6
:102920004A01E0FA904A00E0FFEAFEEFED2480FD64
:10293000E43CFCC3ED9FFFEC9E7E00EF547FFF2242
:102940003112EF7002D322C322904E44EBF0A3EA7F
:10295000F0A3E9F03112904E44E0FBA3E0FAA3E0CB
:10296000F91200F92FFFE433CF2401CF3400FED356
:10297000EF9480EE648094804002D322C322904E74
:1029800024EBF0A3EAF0A3E9F05181EFD3940250D5
:10299000024172904A05E0FC904A04E0FFECFEEF31
:1029A000904E27EEF0A3EFF0904E27E475F0011261
:1029B00001C885F082F583E0FF64C66002414D9056
:1029C0004E2775F0011201C885F082F583E0FF9073
:1029D0004E24E0FBA3E0FAA3E0F9EF12013F904E92
:1029E00027E0B4500FA3E0B4000A904E27744FF0D4
:1029F000A37480F0E4FFFE904E24E0FBA3E0FAA372
:102A0000E0F91200F9FDC3EF9DEE9400504E904E98
:102A100027E475F0011201C885F082F583E0FDE935
:102A20002401F9E43AFAE92FF9EA3EFAED12013FFE
:102A3000904E27E0B4500FA3E0B4000A904E2774E4
:102A40004FF0A37480F00FBF00010E80AA904E24B7
:102A5000E0FBA3E0FAA3E0F9E412013F904E27E087
:102A6000FCA3E0FAECFFEAFEEF904A04EEF0A3EFDD
:102A7000F022904E24E0FBA3E0FAA3E0F9E4020187
:102A80003F904A07E0FC904A06E0FFECEFFD904AD9
:102A900005E0FA904A04E0FFEAFEEFED2480FDE451
:102AA0003CFCC3ED9FFFEC9E7E00EF547FFF229025
:102AB00082807401F0228E218F228B238A24892523
:102AC000AF261526EF6025AB230525E525AA247042
:102AD00002052414F91200F9FF0522E522AC217049
:102AE00002052114F5828C83EFF080D422904E32BF
:102AF000EBF0A3EAF0A3E9F0A3EDF0E4FFFE904EC3
:102B000035E0FDC3EF9D7480F86E985034904E32DE
:102B1000E0FBA3E0FAA3E0F98F828E83120112FD9D
:102B2000701F904E35E024FFFBE434FFFAEBB5074D
:102B300009EAB50605ED7002C3220FBF00010E8041
:102B4000BDD322EFD39400401FE4FDFCE4FBFA0B5D
:102B5000BB00010ABA04F8BB7EF50DBD00010CBC38
:102B600003EABDE8E71F80DB22E4FF1217EFAD07A1
:102B7000AC06E4FF12313DF1ECE4FDFC7F071212DC
:102B8000FBE4FFF16CE4FFF121E4FFF1DAE4FFEF95
:102B9000B4010BE4904CA4F0A3F0A3F0FF22EFB437
:102BA0000206904CA5E0FF22EFB40306904CA6E08D
:102BB000FF227F02F16CEF600281F2904CA2E0FEF6
:102BC000A3E0FF904CC9E0FCA3E0FDD39FEC9E4046
:102BD0000EED9FFFEC9E904E36F0A3EFF0801B9021
:102BE0004CC9E0FEA3E0FFC3904CA3E09FFF904CD4
:102BF000A2E09E904E36F0A3EFF0C3904E37E094E3
:102C000014904E36E09400500E904CA4E0C394FF14
:102C1000500AE004F08005E4904CA4F0904CC9E028
:102C2000FEA3E0FF904CA2EEF0A3EFF0E4904CA5E1
:102C3000F0A3F0C3EF94FAEE94005010904CA4E08F
:102C40009406500281F2A37401F081F2904CA4E04A
:102C5000D39406500281F2904CA67401F0904CC3BC
:102C6000E0FEA3E0FF904CC9E0FCA3E0FDD39FECA5
:102C70009E400EED9FFFEC9E904E38F0A3EFF0804B
:102C80001B904CC9E0FEA3E0FFC3904CC4E09FFF43
:102C9000904CC3E09E904E38F0A3EFF0D3904CCA16
:102CA000E09458904CC9E09402401D904E39E09455
:102CB00019904E38E09400500F904CC3E0FFA3E011
:102CC000904CC9CFF0A3EFF0904CC9E0FEA3E0FF19
:102CD000904CC0EEF0A3EFF0904CC3EEF0A3EFF0F9
:102CE000A37404F07F02120EE5E4FF91F57F061253
:102CF00035877F0022EF7005904CA7F0227F0312EA
:102D00000EE5EF64016002A1987F03718FBF01128D
:102D10007F01718FE4FDFC7F081212FBE4904CA848
:102D2000F022904CA7E0705DA3E0700604F07F8273
:102D3000B199D187EF6401705F904CA8F0904CD3AB
:102D4000E0904E14F0904CD4E0904E15F0904CD59D
:102D5000E0904E16F0904CD6E0904E17F0904CC993
:102D6000E0FCA3E0FAECFFEAFEEF904E12EEF0A3D7
:102D7000EFF07B017A4E7912123E62904CA77401FB
:102D8000F07F808014E4FF1217EFAD07AC06E4FF7C
:102D900012313DF1EC12351F22E4904D57F0904D69
:102DA00055EFF02230000AE4904CB7F0904CB6F0AA
:102DB00022904CB7E07016904CB6E0700804F07F9B
:102DC000C5B1998008E4904CB6F0A304F0904CB7DC
:102DD000E0B4011A904CB6E0700604F07F84B1991B
:102DE000D187BF0109E4904CB6F0A37402F0904C77
:102DF000B7E0B402037403F0904CB7E0B4031A9048
:102E00004CB6E0700604F07F82B199D187BF01090A
:102E1000E4904CB6F0A37404F0904CB7E0B4041AFC
:102E2000904CB6E0700604F07FA1B199D187BF0144
:102E300009E4904CB6F0A37405F0904CB7E064053B
:102E40007028904CB6E0700F04F07DB87C227F2192
:102E50001216037FE0B199D187BF010EE4904CB602
:102E6000F0A37406F07F02120EE5904CB7E0B406B2
:102E7000157F01120EE5EFD394C8400A904CC5743B
:102E800001F07F80B19922904D57E0FF22EFB4010D
:102E90000AE4904CB5F0904CB4F022EFB4020C90E0
:102EA0004CB57401F0E4904CB4F022904CB5E014B1
:102EB0006035047066904CB4E0700604F07FA0B1F9
:102EC00099D187EF64017058904CB4F0A304F0904E
:102ED0004C63F0A37420F07B017A4C79631227F2E3
:102EE000904E5B7401F022904CB4E0700604F07FC9
:102EF00085B199D187BF0128E4904CB4F0A3F0903C
:102F00004E5B7402F0FFF1217F06123587E4904C8E
:102F1000C2F0904CC504F07F80A199E4904CB5F0CC
:102F200022EFB40209E4904CA0F0A3F0FF22D3906A
:102F30004CCAE094C4904CC9E0943B4006904CA02D
:102F4000E004F0904CA0E0C39402400E7402F0A3A1
:102F500014F0904CC27404F08005E4904CA1F0EFA2
:102F6000B40106904CA1E0FF227F0022EFB40109DA
:102F7000904C9E7403F07F0022EFB40206904C9EAA
:102F8000E0FF22EFB40307E4904C9EF0FF22E4FD43
:102F9000FC7F031212FBEF64014E701B904C9EE00D
:102FA00054FDF030E031904CC0E0FFA3E0904CC9FC
:102FB000CFF0A3EFF08020904C9EE0FF30E1119025
:102FC0004CC0E0FDA3E0904CC9CDF0A3EDF080072C
:102FD000EF54FE904C9EF07F0022E4904C9FF0EF67
:102FE000B40106904C9FE0FF227F0022904DA0EE9E
:102FF000F0A3EFF07F02120A08904DA8EEF0A3EFC5
:10300000F07F03120A08904DAAEEF0A3EFF07F04C0
:10301000120A08904DACEEF0A3EFF0904DA8E0FE40
:10302000A3E0FF904DA0E0FCA3E0FDD39FEC9E50F9
:10303000337E137F881203C8A3120332904DA8E099
:10304000FEA3E0FFFBAA06E4F9F8904DA2E0FCA382
:10305000E0FDA3E0FEA3E0FF120269904CC9EEF090
:10306000A3EFF022904DA8E0FEA3E0FFC3904DA196
:10307000E09FFF904DA0E09EFE904DA6F0A3EFF0E4
:10308000C3904DABE09F904DAAE09E4043904DA66B
:10309000E0FEA3E0FF7C137D881203C8904DA212CE
:1030A0000332904DAAE0FEA3E0FFFBAA06E4F9F884
:1030B000904DA2E0FCA3E0FDA3E0FEA3E0FF12021E
:1030C00069EF2488FFEE3413904CC9F0A3EFF0228F
:1030D000904DA8E0FEA3E0FFC3904DA1E09FFF90BC
:1030E0004DA0E09EFE904DAAE0FCA3E0FDC3EF9D45
:1030F000FFEE9C904DA6F0A3EFF0904DA6E0FEA34E
:10310000E0FF7C137D881203C8904DA21203329019
:103110004DACE0FEA3E0FFFBAA06E4F9F8904DA257
:10312000E0FCA3E0FDA3E0FEA3E0FF120269EF24B0
:1031300010FFEE3427904CC9F0A3EFF022904E051B
:10314000ECF0A3EDF0904E04EFF0BF0209904C813B
:10315000E0FEA3E0FF22904C83E0FEA3E0FF904E50
:1031600005E0FCA3E0FDD39FEC9E4017904C83E06C
:10317000A3E0ED9FFFEC9EFEE4FCFD904E071203E2
:1031800032801E904E05E0FEA3E0FFC3904C84E029
:103190009FFF904C83E09EFEE4FCFD904E071203DF
:1031A00032904E05E0FFA3E0904C83CFF0A3EFF008
:1031B000E47F05FEFDFC904E07E0F8A3E0F9A3E0F4
:1031C000FAA3E0FBD31202FB5007904E04E0B401D7
:1031D0002BE4904C81F0A3F0904C85F0A3F0A3F089
:1031E000A3F0A3F0A3F0A3F0A3F0A3F0A3F0A3F047
:1031F000A3F0A3F0A3F0A3F0A3F081E4C3904C826A
:10320000E094C8904C81E09400500CA3E004F0706E
:1032100006904C81E004F0904C81E0FEA3E0FFD3E7
:103220009401EE9400500F904E05E0FDA3E0904C09
:1032300085CDF0A3EDF0D3EF9402EE9400500F9003
:103240004E05E0FFA3E0904C87CFF0A3EFF0D390C2
:103250004C82E09403904C81E09400500F904E0516
:10326000E0FFA3E0904C89CFF0A3EFF0904C81E019
:10327000FEA3E0FFD39404EE9400500F904E05E0BF
:10328000FDA3E0904C8BCDF0A3EDF0D3EF9405EED1
:103290009400500F904E05E0FFA3E0904C8DCFF0CE
:1032A000A3EFF0D3904C82E09406904C81E0940020
:1032B000500F904E05E0FFA3E0904C8FCFF0A3EFAE
:1032C000F0904C81E0FEA3E0FFD39407EE94005011
:1032D0000F904E05E0FDA3E0904C91CDF0A3EDF0F2
:1032E000D3EF9408EE9400500F904E05E0FFA3E05A
:1032F000904C93CFF0A3EFF0D3904C82E0940890E1
:103300004C81E094004078904C87E0FFA3E0904C23
:1033100085CFF0A3EFF0904C89E0FFA3E0904C87BD
:10332000CFF0A3EFF0904C8BE0FFA3E0904C89CF5F
:10333000F0A3EFF0904C8DE0FFA3E0904C8BCFF02A
:10334000A3EFF0904C8FE0FFA3E0904C8DCFF0A363
:10335000EFF0904C91E0FFA3E0904C8FCFF0A3EF03
:10336000F0904C93E0FFA3E0904C91CFF0A3EFF0EE
:10337000904E05E0FFA3E0904C93CFF0A3EFF090C8
:103380004C85E0FEA3E0FFE4FCFD904E0712033203
:10339000904E07E0F8A3E0F9A3E0FAA3E0FB904C1D
:1033A00087E0FEA3E0FFE4FCFDEB2FFFEA3EFEED2D
:1033B00039FDEC38FC904E07120332904E07E0F8CE
:1033C000A3E0F9A3E0FAA3E0FB904C89E0FEA3E0C0
:1033D000FFE4FCFDEB2FFFEA3EFEED39FDEC38FC8F
:1033E000904E07120332904E07E0F8A3E0F9A3E0F5
:1033F000FAA3E0FB904C8BE0FEA3E0FFE4FCFDEBC6
:103400002FFFEA3EFEED39FDEC38FC904E0712032B
:1034100032904E07E0F8A3E0F9A3E0FAA3E0FB90B6
:103420004C8DE0FEA3E0FFE4FCFDEB2FFFEA3EFE47
:10343000ED39FDEC38FC904E07120332904E07E058
:10344000F8A3E0F9A3E0FAA3E0FB904C8FE0FEA321
:10345000E0FFE4FCFDEB2FFFEA3EFEED39FDEC382A
:10346000FC904E07120332904E07E0F8A3E0F9A358
:10347000E0FAA3E0FB904C91E0FEA3E0FFE4FCFD4A
:10348000EB2FFFEA3EFEED39FDEC38FC904E0712C3
:103490000332904E07E0F8A3E0F9A3E0FAA3E0FBC3
:1034A000904C93E0FEA3E0FFE4FCFDEB2FFFEA3E2F
:1034B000FEED39FDEC38FC904E07120332E47B0838
:1034C000FAF9F8904E07E0FCA3E0FDA3E0FEA3E0CC
:1034D000FF120269904E05EEF0A3EFF0904C83EEE0
:1034E000F0A3EFF0904E05E0FEA3E0FF22904CC663
:1034F000E014601114601C1460122403701B904CC3
:10350000C67401F022904CC67403F022904CC6742D
:1035100002F022E4904CC6F022E4904CC6F02290D7
:103520004CC0E0FEA3E0FF904CC9E0FCA3E0FDD35B
:103530009FEC9E401FED9FFFEC9EFE904E56F0A329
:10354000EFF0C394E8EE9403403C904CC57401F056
:103550007F068033904CC9E0FEA3E0FFC3904CC1CE
:10356000E09FFF904CC0E09EFE904E56F0A3EFF01F
:10357000C3942CEE9401400E904CC57401F0FF12E0
:103580002F6C7F06B18722EFB40707904CBF740100
:10359000F022EF6040B40105E4904CBAF0EFB402C1
:1035A00005E4904CBBF0EFB40305E4904CBCF0EFA5
:1035B000B40405E4904CBDF0EFB40505E4904CBEB6
:1035C000F0EF64066002C1A9904CBAF0A3F0A3F03A
:1035D000A3F0A3F022904CBFE064016002C1A9F007
:1035E0007F01122FDABF011F904CBEE004F0E0C350
:1035F00094035002C1A9904CC57402F07F01122EB1
:103600008DE4904CBEF0227F01122F21BF011F904C
:103610004CBDE004F0E0C394035002C1A9904CC536
:103620007402F07F01122E8DE4904CBDF022904C7C
:10363000C5E06401704BFDFC7F031212FBEF6401D7
:103640004E700C904CBCF0904CBAE004F0800BE44F
:10365000904CBAF0904CBCE004F0904CBAE0C394AB
:103660000F5009904CBCE0C3940F403D904CC57482
:1036700002F07F01122E8DE4904CBAF0904CBCF019
:1036800022904CC5E0B40421E4904CBCF0904CBBBB
:10369000E004F0E0C3940F4010904CC57402F07F3A
:1036A00001122E8DE4904CBBF022EFB40107E490A0
:1036B0004CA9F0A3F0EFB4020C904CA9E0C394FF26
:1036C0005003E004F0904CAAE07014904CA9E0D3B1
:1036D0009496400BA37401F0E4904CC3F0A3F02245
:1036E000904D55E0B4801F7B007A0079007F8012F6
:1036F000192C904D567480F0904D557401F0E49063
:103700004D68F0120592904D55E064016002E1B4FD
:103710007B017A4D79457D09FC1207A8EF64094EBB
:103720006002E1B4904D48E064806002E1AE904DEB
:103730004CE0904CDAF030E35C904CD77401F090A0
:103740004D49E0FFE4FCFDFE780812031FA804A920
:1037500005AA06AB07A3E0FFE4FCFDFEEB2FFFEE9E
:103760003AFEED39FDEC38FC780812031FA804A9D5
:1037700005AA06AB07A3E0FFE4FCFDFEEB2FFFEE7E
:103780003AFEED39FDEC38FC780612030C904CD86B
:10379000EEF0A3EFF0904CC5E07006904D55F08030
:1037A00006904D5574E0F0904D577401F022904D05
:1037B000687415F022904D55E0B4851F7B007A00A7
:1037C00079007F8512192C904D567485F0904D55D7
:1037D0007406F0E4904D68F0120592904D55E06447
:1037E0000660030238667B017A4D79457D08FC123C
:1037F00007A8EF64084E706E904D48E064857060D5
:10380000A3E0FFE4FCFDFE780812031FA804A9054D
:10381000AA06AB07A3E0FFE4FCFDFEEB2FFFEE3AA8
:10382000FEED39FDEC38FC780812031FA804A90549
:10383000AA06AB07A3E0FFE4FCFDFEEB2FFFEE3A88
:10384000FEED39FDEC38FC780612030CAD07AC0632
:103850007F061212FBE4904D55F0904D5704F02274
:10386000904D687415F022904CC7E0FEA3E0FF7BFA
:10387000017A4E792911B8904E2AE0FF1217D5909F
:103880004D23EFF0904E2BE0FF1217D5904D24EF13
:10389000F0904E2CE0FF1217D5904D25EFF0904E92
:1038A0002DE0FF1217D5904D26EFF031237B017AE2
:1038B0004D79287FE002192C904E18EEF0A3EFF01E
:1038C000A3EBF0A3EAF0A3E9F0E4A3F0904E1DE02F
:1038D000FBC39405504C904E18E0FEA3E0FF7C0023
:1038E0007D0A120173AF05EBFDC374049DFDE494E2
:1038F00000FCA3E0FBA3E0FAA3E0F98D828C83EF48
:10390000120151904E18E0FEA3E0FF7C007D0A12E8
:103910000173904E18EEF0A3EFF0904E1DE004F00E
:1039200080AA22904D26E0540FFFA3E054F04FF000
:10393000904D25E0540FFFA3E054F04FF0904D243C
:10394000E0540FFFA3E054F04FF0904D23E0540FEC
:10395000FFA3E054F04FF0904D23E054F0FFF0FD52
:10396000904D28E0540FF0A3E05408F0A3E0540871
:10397000F0A3E05408F0A3E054F8F0904D28E04D97
:10398000F0A3E0FF904D24E0FEEF4E904D29F0A310
:10399000E0FF904D25E0FEEF4E904D2AF0A3E0FFB2
:1039A000904D26E0FEEF4E904D2BF0A3E0FF904DA2
:1039B00027E0FEEF4E904D2CF022E4904D28F0A32E
:1039C000F0A3F0A3F0A3F022904D2874FFF0A3F031
:1039D000A3F0A3F0A3F022904D28E0904D1DF090AD
:1039E0004D29E0904D1EF0904D2AE0904D1FF09033
:1039F0004D2BE0904D20F0904D2CE0904D21F02289
:103A0000904DB8EBF0A3EAF0A3E9F0A3ECF0A3ED3E
:103A1000F024FFFEEC34FF904DBFF0A3CEF0E49015
:103A20004DBDF0A3F0904DBBE0C313FEA3E013FF28
:103A3000C3904DBEE09F904DBDE09E507D904DB82F
:103A4000E0FBA3E0FAA3E0F9904DBDE0FEA3E0F5B2
:103A5000828E83120112904DC1F0904DBDE0A3E023
:103A6000FFC3904DC0E09FFF904DBFE09E8F82F559
:103A700083120112FF904DBDE0FCA3E0FDF5828CA6
:103A800083EF120151904DC1E0FFC3904DC0E09D06
:103A9000FD904DBFE09CFC904DB8E0FBA3E0FAA385
:103AA000E0F98D828C83EF120151904DBEE004F05D
:103AB0007006904DBDE004F0412522904C647430B6
:103AC000F0A3741CF0E4A3F0904C5CE012036F3A96
:103AD000F4103B60133BCD163C5E183CD2203D12E7
:103AE000223D37253D65283D8C313DA5353DB73616
:103AF00000003DC09048A8E064016004E0B40221E9
:103B00007513017514487515A27516067B017A4C5C
:103B1000790A1227BE904C067401F09043E7F080BA
:103B200005E4904C06F0904C637408F0904C677478
:103B300010F0A37403F0A314F0E4A3F0904C06E09B
:103B4000904C6BF07B017A4C79697D037C005100CD
:103B50007B017A4C79631227F2904C5C7411F0224D
:103B60009048A2E0C39401401BE0D394045015A3F5
:103B7000E0B401109048A2E0904C09F0904C07741A
:103B800001F08006904C077402F0904C637408F0CA
:103B9000A37430F0A3741CF0E4A3F0A37410F0A39A
:103BA0007403F0A304F0E4A3F0904C07E0904C6B96
:103BB000F07B017A4C79697D037C0051007B017AAE
:103BC0004C79631227F2904C5C7414F022904C6391
:103BD000740FF0904C6704F0A3740AF0A37407F01C
:103BE000E4A3F0904E5CF0904E5CE0FFC39406506E
:103BF0002EE0FE24E8F582E43443F583E0FD740A08
:103C00002EF582E4344CF583E06DFE746B2FF58263
:103C1000E4344CF583EEF0904E5CE004F080C89004
:103C20004C09E0904C71F07F01122FDABF0108902F
:103C30004C72740AF08006904C727464F07B017AC6
:103C40004C79697D0A7C0051007B017A4C796312C2
:103C500027F27F0A121F84904C5C7417F022904860
:103C6000A2E0904C10F0E064017050904E5CF09037
:103C70004E5CE0FF2412F582E4344CF583E0FE74E0
:103C8000A32FF582E43448F583E06E60047F018061
:103C9000027F00904E5CE024E8F582E43443F58333
:103CA000E06F6006904C637401F0904E5CE004F0AD
:103CB000E0B406BB904C5C7420F022E4904C5CF0C5
:103CC000904C6304F0A37429F07B017A4C79630271
:103CD00027F2904C637408F0A37430F0A3741CF0C6
:103CE000E4A3F0A37410F0A37403F0A37409F0E448
:103CF000A3F0A37408F07B017A4C79697D037C0002
:103D000051007B017A4C79631227F2904C5C74214C
:103D1000F0229048A2E0B408187A4C795E7B01C08A
:103D2000038B137514487515A3751604D003122759
:103D3000BEE4904C5CF0229048A2E030E0187A4C4F
:103D4000795E7B01C0038B137514487515A3751636
:103D500004D0031227BE7D017F027E10B1C1904CBA
:103D60005C7426F0229048A2E0D39403500FE090B8
:103D70004CC6F07D017F047E10B1C180087D027FBA
:103D8000047E10B1C1904C5C7429F0229048A3E0ED
:103D900030E003121FBA7D017F057E10B1C1904C47
:103DA0005C7432F0229048A3E07005904C5CF022E5
:103DB000904C5C7436F022122569904C5C7437F09C
:103DC00022AB07AA06904C63740AF0A37430F0A3E8
:103DD000741CF0E4A3F0A37410F0A37405F0E4A342
:103DE000F0A37410F0EFA3F0EEA3F0A3EDF07B01CD
:103DF0007A4C79697D057C0051007B017A4C7963AE
:103E00001227F27F0A021F84904E50E4F0A3F0A321
:103E1000F0904C12E0D3940050077B007A007900B8
:103E200022904C10E075F006A42413F9744C35F080
:103E3000FA904E507401F0A3EAF0A3E9F0904C1010
:103E4000E02401FFE433FE7C007D0A120173EDF0F3
:103E5000904C12E014F0904E50E0FBA3E0FAA3E087
:103E6000F922904E53EBF0A3EAF0A3E9F0904C1244
:103E7000E0C3940A4002D108904C11E075F006A40A
:103E80002413F9744C35F0FA7B01C003C002904E44
:103E900053E0FBA3E0FAA3E08B138A14F515751623
:103EA00006D002D0031227BE904C11E02401FFE49B
:103EB00033FE7C007D0A120173EDF0A3E004F022D2
:00000001FF
