:100000000203F5E709F608DFFA8046E709F208DFA0
:10001000FA803E88828C83E709F0A3DFFA8032E31E
:1000200009F608DFFA8078E309F208DFFA807088C1
:10003000828C83E309F0A3DFFA806489828A83E0FB
:10004000A3F608DFFA805889828A83E0A3F208DFEA
:10005000FA804C80D280FA80C680D4806980F28099
:1000600033801080A680EA809A80A880DA80E280BF
:10007000CA803389828A83ECFAE493A3C8C582C814
:10008000CCC583CCF0A3C8C582C8CCC583CCDFE97E
:10009000DEE7800D89828A83E493A3F608DFF9EC1A
:1000A000FAA9F0EDFB2289828A83ECFAE0A3C8C5A5
:1000B00082C8CCC583CCF0A3C8C582C8CCC583CCCC
:1000C000DFEADEE880DB89828A83E493A3F208DF3B
:1000D000F980CC88F0EF60010E4E60C388F0ED240B
:1000E00002B4040050B9F582EB2402B4040050AF0E
:1000F000232345822390005373BB010689828A83A0
:10010000E0225002E722BBFE02E32289828A83E4D6
:100110009322BB010CE58229F582E5833AF583E061
:10012000225006E92582F8E622BBFE06E92582F880
:10013000E222E58229F582E5833AF583E49322BB46
:10014000010689828A83F0225002F722BBFE01F366
:1001500022F8BB010DE58229F582E5833AF583E8B3
:10016000F0225006E92582C8F622BBFE05E9258269
:10017000C8F222BC000BBE0029EF8DF084FFADF069
:1001800022E4CCF875F008EF2FFFEE33FEEC33FCE1
:10019000EE9DEC984005FCEE9DFE0FD5F0E9E4CE17
:1001A000FD22EDF8F5F0EE8420D21CFEADF075F0E6
:1001B00008EF2FFFED33FD4007985006D5F0F222EF
:1001C000C398FD0FD5F0EA22A3F8E0C5F025F0F0C2
:1001D000E582158270021583E0C838F0E822E88FC6
:1001E000F0A4CC8BF0A42CFCE98EF0A42CFC8AF0BB
:1001F000EDA42CFCEA8EF0A4CDA8F08BF0A42DCCBD
:100200003825F0FDE98FF0A42CCD35F0FCEB8EF015
:10021000A4FEA9F0EB8FF0A4CFC5F02ECD39FEE4FB
:100220003CFCEAA42DCE35F0FDE43CFC2275F00840
:10023000758200EF2FFFEE33FECD33CDCC33CCC52E
:100240008233C5829BED9AEC99E58298400CF58249
:10025000EE9BFEED9AFDEC99FC0FD5F0D6E4CEFBBB
:10026000E4CDFAE4CCF9A88222B800C1B90059BAA9
:10027000002DEC8BF084CFCECDFCE5F0CBF97818D7
:10028000EF2FFFEE33FEED33FDEC33FCEB33FB10D1
:10029000D703994004EB99FB0FD8E5E4F9FA2278EB
:1002A00018EF2FFFEE33FEED33FDEC33FCC933C9FD
:1002B00010D7059BE99A4007EC9BFCE99AF90FD807
:1002C000E0E4C9FAE4CCFB2275F010EF2FFFEE3327
:1002D000FEED33FDCC33CCC833C810D7079BEC9A66
:1002E000E899400AED9BFDEC9AFCE899F80FD5F0EF
:1002F000DAE4CDFBE4CCFAE4C8F922EB9FF5F0EAAE
:100300009E42F0E99D42F0E89C45F022E8600FEC47
:10031000C313FCED13FDEE13FEEF13FFD8F122E83B
:10032000600FEFC333FFEE33FEED33FDEC33FCD84B
:10033000F122ECF0A3EDF0A3EEF0A3EFF022A882FF
:100340008583F0D083D082120355120355120355D2
:10035000120355E473E493A3C583C5F0C583C8C5F0
:1003600082C8F0A3C583C5F0C583C8C582C822D0A2
:1003700083D082F8E4937012740193700DA3A39359
:10038000F8740193F5828883E4737402936860EFD4
:10039000A3A3A380DFD083D082F8E493701274010A
:1003A00093700DA3A393F8740193F5828883E4738B
:1003B000740293B5F0067403936860E9A3A3A3A342
:1003C00080D88A838982E473EC8EF0A4CCC5F0CC0B
:1003D000CDF8EFA4CEC5F02DFDE43CFCE8A42EC87A
:1003E000C5F03DFDE43CFCEFA4FFE5F028FEE43D54
:1003F000FDE43CFC22787FE4F6D8FD7581CF020451
:100400003C0204C2E493A3F8E493A34003F6800102
:10041000F208DFF48029E493A3F85407240CC8C33E
:1004200033C4540F4420C8834004F456800146F678
:10043000DFE4800B0102040810204080900481E476
:100440007E019360BCA3FF543F30E509541FFEE4D6
:1004500093A360010ECF54C025E060A840B8E49398
:10046000A3FAE493A3F8E493A3C8C582C8CAC583DA
:10047000CAF0A3C8C582C8CAC583CADFE9DEE7805F
:10048000BE414C9500574D2ED706E3A736B5F5076C
:10049000F7B777F4D1E6F171D0E4736460000141FD
:1004A0004E0B01414E0D00414E0E00414E0F0041DA
:1004B0004E1000414E5D00000000000000000000F2
:1004C0000000904C62E004F012112C122041122224
:1004D000CCB1A2904E5BE0B402F1122F0491E51270
:1004E00016D080E722904D68E0C39415502B904CB5
:1004F000C5E024FE60140424FC50162405702DF180
:1005000001121865B1E2F11B8023D16D123C6080AD
:100510001CB1E2123B8B801522B192E4904D68F041
:10052000904D55E06006A3E0904D55F022904D555A
:10053000E0B4E01E7B017A4D79287FE01219179014
:100540004D5674E0F0904D55740BF0E4904D68F00A
:10055000B192904D55E0640B70377B017A4D79452F
:100560007D05FCF1A8EF64054E7026904D48E0B47F
:10057000E019904CC5E07006904D55F08006904D06
:10058000557480F0904D577401F022904D687415A9
:10059000F022908116E0FFA3E0908058CFF0A3EF07
:1005A000F022904E5BE0B40121904C5BE07032D1C0
:1005B0005BB1929049FE7401F0904C63F0A37420FB
:1005C000F07B017A4C7963022623904E5BE0B40302
:1005D0000BD15BB1929049FE7401F0229049FEE488
:1005E000F022904D55E0B4821E7B007A0079007FA6
:1005F00082121917904D567482F0904D557403F085
:10060000E4904D68F0B192904D55E06403704B7BDF
:10061000017A4D79457D09FCF1A8EF64094E703AE5
:10062000904D48E0B4822DA3E0904CD6F0904D4A16
:10063000E0904CD5F0904D4BE0904CD4F0904D4C68
:10064000E0904CD3F0E4904D55F0904D5704F0906D
:100650004CD7F022904D687415F02290810EA3E0E3
:10066000FC90810EE0FFECFEEF4E70EF22E4FDFC0B
:100670007F0112349AAD07AC06904D55E064A0702E
:100680004E904D587491F0ED7806C333CE33CED8EA
:10069000F9904D59F0EDAE047802CEC313CE13D8C5
:1006A000F9904D5AF0EC1313543FA3F04480F07BC3
:1006B000017A4D79587FA0121917D15B904D56746D
:1006C000A0F0904D557407F0E4904D68F0B1929011
:1006D0004D55E0B4072A7B017A4D79457D057C00B4
:1006E000F1A8EF64054E7018904D48E0B4A00BE4FB
:1006F000904D55F0904D5704F022904D687415F0D0
:1007000022904D55E0B4C5127B007A0079007FC578
:10071000121917B192E4904D55F0227F07120A1773
:10072000AD07AC06904D55E064A1704A904D5874E9
:1007300020F0ED7806C333CE33CED8F9FB904D5977
:10074000F0EDAE047802CEC313CE13D8F9FF904D6E
:100750005AF0A3EBF0A3EFF07B017A4D79587FA11B
:10076000121917904D5674A1F0904D557408F0E48D
:10077000904D68F0B192904D55E0B4082A7B017A13
:100780004D79457D057C00F1A8EF64054E70189009
:100790004D48E0B4A10BE4904D55F0904D5704F056
:1007A00022904D687415F022904DCCEBF0A3EAF046
:1007B000A3E9F0A3ECF0A3EDF0E4A3F0A3F09080A4
:1007C00058A3E0FC908058E0FFECFEEF904DD3EE94
:1007D000F0A3EFF0908112A3E0FC908112E0FFEC17
:1007E000FEEFD3904DD0E09F904DCFE09E4004E4CB
:1007F000FEFF22E4904DD1F0A3F0904DCFE0FEA398
:10080000E0FFC3904DD2E09F904DD1E09E400201A9
:10081000CD904DD3E475F0011201C8FAA9F07B0127
:10082000C003904DCCE0FBA3E475F0011201C8A811
:10083000F0FCAD03D0037E007F011200D390805600
:10084000A3E0FC908056E0FFECFEEF2401FFE43EC5
:10085000FE904DD3E0FCA3E0B5071AEEB504169068
:100860008054A3E0FC908054E0FFECFEEF904DD369
:10087000EEF0A3EFF0908116A3E0FC908116E0FF6C
:10088000ECFEEF904DD3E0FCA3E0FDEF6D7002EEC7
:100890006C7029904DD3E0FEA3E0FFECFF3395E0B0
:1008A000AB07EDFFEB908058CFF0A3EFF0904DD267
:1008B000E02401FF904DD1E03400FE22904DD2E0C3
:1008C00004F07006904DD1E004F00207FA904DD389
:1008D000E0FEA3E0FFFDAC06ECFF3395E0AB07EDD7
:1008E000FFEB908058CFF0A3EFF0904DCFE0FEA348
:1008F000E0FF227BFF7A0879F3904DDA744EF0A383
:100900007440F07F0A7E001212BB904D68E0C394E1
:10091000FF5003E004F0904E3EE0C394645005E0C5
:1009200004F0800FE4904E3EF07F071215B37F0273
:10093000123B55E4FFD1F47F051211C3E433FF905D
:100940004E0FE0C394FF5003E004F0EF64017052D7
:10095000904E0B04F0E4A3F0904E0EE0B40105E4D9
:10096000904E11F0E4904E0DF0A3F0A3E0D394125A
:100970004009A3E0B40104E4F0F132904E11E064C8
:100980000160024116F0904E0FE0C394125006A38E
:10099000E004F08007E4904E10F0F132E4904E0F46
:1009A000F022904E0BE07065A3E0C394FF5003E08B
:1009B00004F0904E0CE0FFD39403401F904E11744E
:1009C00001F0904E0DE0701304F0904E0FE0D394C0
:1009D000124003E4A3F0E4904E0FF0EFD39496405E
:1009E00035904E0EE0702F04F0904E10E0B40313DB
:1009F000904CC57403F07F055117E4904E11F090B0
:100A00004E0CF0E4904E10F0904E0FF022E4904E19
:100A10000BF0904E11F022AD07EDB40508E4904CB8
:100A2000B1F0FEFF22ED640160026109904C08E024
:100A3000FF904DF9E4F0A3EFF0E0FE904C09E0FBED
:100A4000EEEBFF904CABEEF0A3EFF0904C0AE0FF22
:100A5000904DF9E4F0A3EFF0E0FE904C0BE0FBEEDC
:100A6000EBFF904CADEEF0A3EFF0904C0CE0FF905C
:100A70004DF9E4F0A3EFF0E0FE904C0DE0FBEEEB5F
:100A8000FF904CAFEEF0A3EFF0904CABE0FEA3E094
:100A9000FFC394E8EE94034009D3EF9470EE9417EB
:100AA000404C904CADE0FEA3E0FFC394E8EE94030D
:100AB0004009D3EF9470EE94174033904CAFE0FEB2
:100AC000A3E0FFC394E8EE94034009D3EF9470EEE3
:100AD0009417401A904CAB7417F0A37470F0A37481
:100AE00013F0A37488F0A3740FF0A374A0F0904CDB
:100AF000ABE0FEA3E0FF7C007D0A120173904CB2D4
:100B0000EEF0A3EFF0E4FEFF22EDB4061B904CAB39
:100B1000E0FEA3E0FF7C007D0A120173904CB2EE70
:100B2000F0A3EFF0E4FEFF22EDB40709904CB2E031
:100B3000FEA3E0FF22EDB40209904CABE0FEA3E07F
:100B4000FF22EDB40309904CADE0FEA3E0FF22EDDF
:100B5000B40409904CAFE0FEA3E0FF22904CD8E033
:100B6000FEA3E0FF904DF9EEF0FCA3EFF0FDE4FFF3
:100B70001237A5904DF9EEF0FCA3EFF0FD7F0212C5
:100B800037A5904DF5EEF0A3EFF0904CB1E0704832
:100B9000904DF9E0FCA3E0FD904CABECF0A3EDF040
:100BA000C3904DF6E0940C904DF5E09400401C7F0E
:100BB0000512349A904DF9E0FCA3E0FD7F01123755
:100BC000A57F02D1F4904CB17401F0904DF9E0FC96
:100BD000A3E0FD7F21121DCE904CB1E0B401187F3F
:100BE00001D1F4EFD394C84006904CB17402F0E404
:100BF000FDFC7F81121DCE904CB1E0640260028149
:100C0000B8FDFCFF12349A904DFBEEF0A3EFF0C359
:100C1000904DFAE09FFF904DF9E09EFE904CABF0B6
:100C2000A3EFF0D3904CB3E09F904CB2E09E5015F0
:100C3000904DFBE0FEA3E0FFC3904DFAE09F904D86
:100C4000F9E09E5032C3904DF6E0940C904DF5E0E3
:100C50009400401A904DF9E0FCA3E0FD7F051234AA
:100C60009A904DF9E0FCA3E0FD7F011237A5E490D6
:100C70004CABF0A3F08034D3904CACE094EE904CAD
:100C8000ABE094024025904DF6E0940C904DF5E0D9
:100C9000940040177F02D1F4904DF9E0FCA3E0FDF1
:100CA0007F011237A5904CB17403F0904CABE0FC7F
:100CB000A3E0FD7F21121DCE904CB1E0B403187F5C
:100CC00001D1F4EFD394C84006904CB17404F0E421
:100CD000FDFC7F82121DCE904CB1E064046002A145
:100CE0007DFDFCFF12349A904DFBEEF0A3EFF0C3B4
:100CF000904DFAE09FFF904DF9E09EFE904DF7F089
:100D0000A3EFF0904CABE0FCA3E0FDD39FEC9E5032
:100D100015904DFBE0FEA3E0FFC3904DFAE09F90DD
:100D20004DF9E09E5009E4904CADF0A3F08041C332
:100D3000904DF8E09DFF904DF7E09CFE904CADF09B
:100D4000A3EFF0D394EEEE94024025904DF6E0949C
:100D50000C904DF5E094004017904DF9E0FCA3E0B5
:100D6000FD7F011237A57F02D1F4904CB17405F0DC
:100D7000904CADE0FCA3E0FD7F21121DCE904CB164
:100D8000E0B405187F01D1F4EFD394C84006904C2D
:100D9000B17406F0E4FDFC7F83121DCE904CB1E0EF
:100DA00064066002C15BFDFCFF12349A904DFBEEBD
:100DB000F0A3EFF0C3904DFAE09FFF904DF9E09E55
:100DC000FE904DF7F0A3EFF0904CABE0FCA3E0FDFC
:100DD000D39FEC9E5015904DFBE0FEA3E0FFC39027
:100DE0004DFAE09F904DF9E09E5009E4904CAFF031
:100DF000A3F0805AC3904DF8E09DFF904DF7E09C22
:100E0000FEF0A3EFF0904CADE0FCA3E0FDD39FEC2F
:100E10009E4007E4A3F0A3F08034C3904DF8E09D1A
:100E2000FF904DF7E09CFE904CAFF0A3EFF0D39411
:100E3000EEEE94024018904DF6E0940C904DF5E0E3
:100E40009400400A7F02D1F4904CB17407F0904CAA
:100E5000AFE0FCA3E0FD7F21121DCE904CB1E0B4C9
:100E600007187F01D1F4EFD394C84006904CB174B9
:100E700008F0E4FDFC7F84121DCE904CB1E06408C4
:100E8000706EFDFCFF12349A904DFBEEF0A3EFF074
:100E9000904DFBE0FCA3E0FD7F0612349A904CC518
:100EA0007401F0904CABE0FAA3E07C007D0AFFAE49
:100EB00002120173904CB2EEF0A3EFF0EA904C08EE
:100EC000F0904CABE0A3E0904C09F0904CADE0FC0E
:100ED000A3E0FDEC904C0AF0EDA3F0904CAFE0FCE9
:100EE000A3E0FDEC904C0CF0EDA3F07F411227E65F
:100EF000E4FEFF22EFB40207E4904CB8F0A3F0EF59
:100F0000B40106904CB8E0FF22EF700C904CB8E0B2
:100F1000C394FF5003E004F0904CB8E0D3949640A3
:100F200004A37401F0EFB40306904CB9E0FF227FF4
:100F30000022904CC6E014601114601C146012244E
:100F400003701B904CC67401F022904CC67403F0E1
:100F500022904CC67402F022E4904CC6F022E49039
:100F60004CC6F0227F03D1F4EF702D7F01D1F4EF56
:100F7000C3941E5003023E8DEFC3943C500280196F
:100F8000EFC3945A5002802CEFC39478500280092A
:100F9000EFC394965002F1B422904D28E0540FF024
:100FA000A3E0E4F0A3E05408F0A3E05408F0A3E0C9
:100FB00054F0F022904D1DE0904D28F0904D1EE031
:100FC000904D29F0904D1FE0904D2AF0904D20E07B
:100FD000904D2BF0904D21E0904D2CF022904DA0A3
:100FE000EEF0A3EFF07F025117904DA8EEF0A3EFC3
:100FF000F07F035117904DAAEEF0A3EFF07F04129B
:101000000A17904DACEEF0A3EFF0904DA8E0FEA3D0
:10101000E0FF904DA0E0FCA3E0FDD39FEC9E503399
:101020007E137F881203C8A3120332904DA8E0FEFE
:10103000A3E0FFFBAA06E4F9F8904DA2E0FCA3E0D0
:10104000FDA3E0FEA3E0FF120269904CC9EEF0A3FD
:10105000EFF022904DA8E0FEA3E0FFC3904DA1E089
:101060009FFF904DA0E09EFE904DA6F0A3EFF0C331
:10107000904DABE09F904DAAE09E4043904DA6E07E
:10108000FEA3E0FF7C137D881203C8904DA21203DB
:1010900032904DAAE0FEA3E0FFFBAA06E4F9F89027
:1010A0004DA2E0FCA3E0FDA3E0FEA3E0FF12026975
:1010B000EF2488FFEE3413904CC9F0A3EFF0229098
:1010C0004DA8E0FEA3E0FFC3904DA1E09FFF904D2F
:1010D000A0E09EFE904DAAE0FCA3E0FDC3EF9DFFC3
:1010E000EE9C904DA6F0A3EFF0904DA6E0FEA3E09D
:1010F000FF7C137D881203C8904DA2120332904DDD
:10110000ACE0FEA3E0FFFBAA06E4F9F8904DA2E0F4
:10111000FCA3E0FDA3E0FEA3E0FF120269EF2410B0
:10112000FFEE3427904CC9F0A3EFF0229049FEE483
:10113000F09049FCE06410704E904E5B7402F0E455
:10114000904CC5F0F1D37F401227E6E4904C5BF061
:10115000904C06E06401600B7B0AE4FD7F0E7E4C40
:101160001227AA904C06E09043E7F031F87BFF7A13
:101170000879F3904DDA744EF0A37440F07F0A7E44
:101180000051BB71FA80367F0531C350067F1B3199
:10119000C34024904E5B7402F0904CC5F031F87B54
:1011A000FF7A0879F3904DDA744EF0A37440F07F23
:1011B0000A7E0051BB8006904E5B7401F09049FCA2
:1011C000E4F022EF5407FEEF1313135403FF241C23
:1011D000FDE434818D82F583E0FD7C00AF0674016F
:1011E0007E00A807088005C333CE33CED8F9FFEEC2
:1011F0005CFEEF5D4E24FF22E4904CDBF090810119
:10120000E0FFE4FCFDFE780812031FA804A905AA6C
:1012100006AB07908100E0FFE4EB4FFFEAFEE9FD3B
:10122000E8FCC004C005C006C007908102E0FFE4EE
:10123000FCFDFE781012031FD003D002D001D000B5
:10124000EF4BFFEE4AFEED49FDEC48FCC004C00543
:10125000C006C007A3E0FFE4FCFDFE781812031FE0
:10126000D003D002D001D000EF4BFFEE4AFEED4993
:10127000FDEC48FC904D14120332E4904E58F0906F
:101280004E58E0FFC394085031EF75F003A424DCFE
:10129000F582E4344CF583E4F0A3F0A3F0EF25E00D
:1012A00025E024F4F582E4344CF58312033E00007B
:1012B0000000904E58E004F080C522904DD5EEF02D
:1012C000A3EFF0E4904DDCF0904CDBE0B4FF02C300
:1012D00022904DDCE0FFC39408502D904CDBE0FEE3
:1012E000A807088002C313D8FC20E014904DDAE070
:1012F000FEA3E0FF4E6011A3E08F828E83F0800892
:10130000904DDCE004F080C9904CDBE0FF904DDCB8
:10131000E0FE7401A806088002C333D8FC4F904C4D
:10132000DBF0EE75F003A424DCF582E4344CF583A5
:10133000EBF0A3EAF0A3E9F0908101E0FFE4FCFD0B
:10134000FE780812031FA804A905AA06AB0790811E
:1013500000E0FFE4EB4FFFEAFEE9FDE8FCC004C05B
:1013600005C006C007908102E0FFE4FCFDFE781096
:1013700012031FD003D002D001D000EF4BFFEE4A82
:10138000FEED49FDEC48FCC004C005C006C007A343
:10139000E0FFE4FCFDFE781812031FD003D002D05A
:1013A00001D000EF4BFFEE4AFEED49FDEC48FCC0DA
:1013B00004C005C006C007904DD5E0FEA3E0FFE4E1
:1013C000FCFD780412031FE47B05FAF9F8120269A8
:1013D000D003D002D001D000EF2BFFEE3AFEED3962
:1013E000FDEC38FC904DDCE025E025E024F4F582AE
:1013F000E4344CF583120332D322904CC5E0702BB9
:10140000904CD7F0904D56F0904D55F0904CC6F062
:10141000A3F0A3F0C2017F01120A17E4FDFC7F04D0
:1014200012349A7F06B1B3D200912C2230000AE424
:10143000904CB7F0904CB6F022904CB7E0701690FC
:101440004CB6E0700804F07FC5B10F8008E4904C02
:10145000B6F0A304F0904CB7E0B4011A904CB6E09B
:10146000700604F07F84B10FB11ABF0109E4904CFB
:10147000B6F0A37402F0904CB7E0B402037403F02A
:10148000904CB7E0B4031A904CB6E0700604F07FBD
:1014900082B10FB11ABF0109E4904CB6F0A37404F5
:1014A000F0904CB7E0B4041A904CB6E0700604F02B
:1014B0007FA1B10FB11ABF0109E4904CB6F0A3743B
:1014C00005F0904CB7E064057028904CB6E0700FC2
:1014D00004F07DB87C227F21121DCE7FE0B10FB1D8
:1014E0001ABF010EE4904CB6F0A37406F07F02120E
:1014F0000EF4904CB7E0B406157F01120EF4EFD352
:1015000094C8400A904CC57401F07F80B10F22E46A
:10151000904D57F0904D55EFF022904D57E0FF223F
:10152000EFB4010AE4904CB5F0904CB4F022EFB463
:10153000020C904CB57401F0E4904CB4F022904C45
:10154000B5E0146035047065904CB4E0700604F0AA
:101550007FA0B10FB11AEF64017057904CB4F0A3A3
:1015600004F0904C63F0A37420F07B017A4C796313
:10157000122623904E5B7401F022904CB4E070066A
:1015800004F07F85B10FB11ABF0127E4904CB4F08D
:10159000A3F0904E5B7402F0FFF1EF7F06B1B3E46D
:1015A000904CC2F0904CC504F07F80A10FE4904CA9
:1015B000B5F022EFB40707904CBF7401F022EF6042
:1015C00040B40105E4904CBAF0EFB40205E4904C4D
:1015D000BBF0EFB40305E4904CBCF0EFB40405E4B9
:1015E000904CBDF0EFB40505E4904CBEF0EF6406FE
:1015F0006002C1CF904CBAF0A3F0A3F0A3F0A3F027
:1016000022904CBFE064016002C1CFF07F01F1DDA8
:10161000BF011E904CBEE004F0E0C394035002C131
:10162000CF904CC57402F07F01B120E4904CBEF025
:10163000227F01F1EFBF011E904CBDE004F0E0C33A
:1016400094035002C1CF904CC57402F07F01B120C9
:10165000E4904CBDF022904CC5E06401704AFDFC62
:101660007F0312349AEF64014E700C904CBCF090E2
:101670004CBAE004F0800BE4904CBAF0904CBCE023
:1016800004F0904CBAE0C3940F5009904CBCE0C3F6
:10169000940F403B904CC57402F07F01B120E49060
:1016A0004CBAF0904CBCF022904CC5E0B40420E45D
:1016B000904CBCF0904CBBE004F0E0C3940F400FA2
:1016C000904CC57402F07F01B120E4904CBBF02235
:1016D000904CC5E07004C200912C904CC5E0B4025F
:1016E00004E4FFB120904CD7E06401703EF0FDFCB3
:1016F0007F0212349AEF4E7007FDFC7F0A02349A83
:10170000904CC5E0B401061232A0123D11904CC5B8
:10171000E0B40407120F647F01F12C904CC5E0B4D3
:101720000305E4FF120A17E4FFB1B322EF7005903E
:101730004CA7F0227F03120EF4EF64016002E1D2A5
:101740007F031232C6BF01137F011232C6E4FDFCD3
:101750007F0812349AE4904CA8F022904CA7E070D5
:101760005DA3E0700604F07F82B10FB11AEF64014F
:101770007060904CA8F0904CD3E0904E14F0904CD8
:10178000D4E0904E15F0904CD5E0904E16F0904C71
:10179000D6E0904E17F0904CC9E0FCA3E0FAECFFC5
:1017A000EAFEEF904E12EEF0A3EFF07B017A4E7955
:1017B00012122E4D904CA77401F07F80A10FE4FF10
:1017C0001236DCAD07AC06E4FF1237A5120FDD12AE
:1017D000373C22E4904C10F0A3F0A3F022E4904CAC
:1017E0009FF0EFB40106904C9FE0FF227F0022EFB4
:1017F000B40209E4904CA0F0A3F0FF22D3904CCAAD
:10180000E094C4904CC9E0943B4006904CA0E004A6
:10181000F0904CA0E0C39402400E7402F0A314F0C8
:10182000904CC27404F08005E4904CA1F0EFB40138
:1018300006904CA1E0FF227F0022904E41EBF0A3E6
:10184000EAF0A3E9F0E4FFAE051DEE6017904E410B
:10185000E0FBA3E475F0011201C8A9F0FA1200F947
:101860006FFF80E322E4904E4AF0A3744EF0A3741D
:101870004AF0904D55E0B4842C904D587406F0A376
:1018800074F7F0A3740FF07B017A4D79587F84319F
:1018900017904D567484F0904D557405F0E4904DBA
:1018A00068F0120592904D55E0640570697B017AED
:1018B0004D79457D0BFC1207A8EF640B4E70577BEA
:1018C000017A4D79457D0A113A904D4FE06F704095
:1018D000904D47E064107038A3E0B48433904D4BD2
:1018E000E0904D4EF0904D4D7455F0904D4AE09083
:1018F0004D4CF0904D4B74BEF0904D49E0A3F090EC
:101900004D497408F0E4904D55F0904D5704F02285
:10191000904D687415F022904D82EFF0A3EBF0A388
:10192000EAF0A3E9F078867C4D7D017BFF7A0479AB
:10193000B87E007F0A1200D3904D8674C5F0904D9A
:1019400082E012036F197E8019948119AA8219C04E
:101950008319FD841A44851A5AA01AABA11B06A24A
:101960001B57A3196DC51B9EE000001C01E4904DA0
:1019700086F0A3F0A3F0904D907403F0810C904D8D
:10198000877401F0A37480F0A37444F0904D9074B8
:1019900004F0810C904D877401F0A37481F0A3745E
:1019A00045F0904D907404F0810C904D877401F0D7
:1019B000A37482F0A37446F0904D907404F0810CEF
:1019C000904D877403F0A37483F0904D83E0FBA3E4
:1019D000E0FAA3E0F9900001120112904D89F01293
:1019E00000F9904D8AF07B017A4D79867D05B1171B
:1019F000904D8BEFF0904D907406F0810C904D87D8
:101A00007404F0A37484F0904D83E0FBA3E0FAA388
:101A1000E0F9900002120112904D89F0900001123D
:101A20000112904D8AF01200F9904D8BF07B017AF3
:101A30004D79867D06B117904D8CEFF0904D9074E6
:101A400007F0810C904D877401F0A37485F0A374A6
:101A500041F0904D907404F0810C904D877405F026
:101A6000A374A0F0904D83E0FBA3E0FAA3E0F9900B
:101A70000003120112904D89F090000212011290A1
:101A80004D8AF0900001120112904D8BF01200F976
:101A9000904D8CF07B017A4D79867D07B117904D82
:101AA0008DEFF0904D907408F0810C904D87740686
:101AB000F0A374A1F0904D83E0FBA3E0FAA3E0F95A
:101AC000900004120112904D89F09000031201124F
:101AD000904D8AF0900002120112904D8BF0900010
:101AE00001120112904D8CF01200F9904D8DF07B97
:101AF000017A4D79867D08B117904D8EEFF0904DAB
:101B0000907409F0810C904D877405F0A374A2F0D5
:101B1000904D83E0FBA3E0FAA3E0F99000031201EB
:101B200012904D89F0900002120112904D8AF090AF
:101B30000001120112904D8BF01200F9904D8CF0C3
:101B40007B017A4D79867D07B117904D8DEFF0902E
:101B50004D907408F0810C904D877404F0A374A329
:101B6000F0904D83E0FBA3E0FAA3E0F990000212AD
:101B70000112904D89F0900001120112904D8AF0EF
:101B80001200F9904D8BF07B017A4D79867D06B17C
:101B900017904D8CEFF0904D907407F0806E904D43
:101BA000877407F0A374E0F0904D83E0FBA3E0FAA4
:101BB000A3E0F9900005120112904D89F090000405
:101BC000120112904D8AF0900003120112904D8B79
:101BD000F0900002120112904D8CF0900001120161
:101BE00012904D8DF01200F9904D8EF07B017A4DE0
:101BF00079867D09B117904D8FEFF0A3740AF080BC
:101C00000BE4904D87F0904D907402F07B017A4D7B
:101C10007986904D90E0FD7C00904DAEEBF0A3EA0C
:101C2000F0A3E9F0A3ECF0A3EDF090805EA3E0FC5C
:101C300090805EE0FFECFEEFAA06F9904DB5E4F06F
:101C4000A3EAF0A3E9F0E4904DB3F0A3F0904DB116
:101C5000E0FEA3E0FFC3904DB4E09F904DB3E09E43
:101C6000400281F8904DB5E0A3E475F0011201C87F
:101C7000FEAFF0904DAEE0FBA3E475F0011201C899
:101C8000A9F0FA751C01F19F90805CA3E0FC9080A4
:101C90005CE0FFECFEEF904DB5E0A3E0FAA3E0249A
:101CA000FFFDEA34FFFCEF6D7002EE6C703A90803D
:101CB0005CE0FFA3E0A3CFF0A3EFF090810EA3E0E0
:101CC000FC90810EE0FFECFEEF4E70EF90805AA387
:101CD000E0FC90805AE0FFECFEEFAA06F9904DB5CB
:101CE000E4F0A3EAF0A3E9F0904DB4E004F070064C
:101CF000904DB3E004F0814D904DB5E0A3E0FAA320
:101D0000E0AC02FDECFF3395E0AB07EDFFEB90801C
:101D10005ECFF0A3EFF022904E4DEBF0A3EAF0A3DC
:101D2000E9F0E4FFEFC39D5035904E4DE0FBA3E09A
:101D3000FAA3E02409F9E43AFAC002C0011200F95A
:101D4000FE904E4DE0A3E0FAA3E0F98F8275830088
:101D50001201126ED001D00212013F0F80C6904EC8
:101D60004DE0FBA3E0FAA3E0F9900009120112FF95
:101D700022904CC7E0FEA3E0FF7B017A4E7929F167
:101D8000D6904E2AE0FFB1BE904D23EFF0904E2B3F
:101D9000E0FFB1BE904D24EFF0904E2CE0FFB1BEBD
:101DA000904D25EFF0904E2DE0FFB1BE904D26EF07
:101DB000F0123DD97B017A4D79287FE021177B0114
:101DC0007A4D792E8F82758300120112FF22904E78
:101DD0005AEFF0BF850F904D187415F0A304F0A3CF
:101DE000F0A3F0A3F0904E5AE0FFB48614E4904DB7
:101DF00018F0A37415F0A37410F0A304F0A37415E5
:101E0000F0EFB48712904D187415F0A3F0A3740C82
:101E1000F0A37415F0A3F0EF6481600FEF648260AB
:101E20000AEF64836005EF6484703EE4904D18F01F
:101E3000A3740CF0A3740AF0A37410F0EFB481043F
:101E4000A37401F0904E5AE0B48206904D1C7402C7
:101E5000F0904E5AE0FFB48306904D1C7403F0EFEF
:101E6000B48406904D1C7404F0904E5AE0FF642137
:101E70006014EF6441600FEF6442600AEF644360F6
:101E800005EF6444705EAE04AF057B017A4D7918AE
:101E9000F1D6904E5AE0FF30E61D904D1BE0A3F0C6
:101EA000904D1AE0A3F0904D19E0A3F0904D18E08A
:101EB000A3F0E4904D18F0904D18E07007A3E07087
:101EC000037415F0904D19E0B41507A3E070037486
:101ED00015F0EF30E50E904D1AE0B41507A3E07051
:101EE000037415F0904D19E0FFB1BE904D23EFF053
:101EF000904D1AE0FFB1BE904D24EFF0904D1BE0E5
:101F0000FFB1BE904D25EFF0904D1CE0FFB1BE90AB
:101F10004D26EFF0123DD9904D2CE0540FF0904D2E
:101F20002BE054F7F0904E5AE0FDB42114904D2868
:101F3000E054FDF0904D18E06007904D28E0440219
:101F4000F0EDB4410C904D2BE04408F0A3E04410B8
:101F5000F0904E5AE0B4420C904D2BE04408F0A3B0
:101F6000E04420F0904E5AE0FDB4430C904D2BE03D
:101F70004408F0A3E04480F0EDB4440C904D2BE015
:101F80004408F0A3E044C0F0904C5BE0B40108903A
:101F90004D28E04402F022904D28E054FDF0228EBE
:101FA000178F188B198A1A891BAF1C151CEF602517
:101FB000AB19051BE51BAA1A7002051A14F91200C9
:101FC000F9FF0518E518AC177002051714F5828C97
:101FD00083EFF080D422904E18EEF0A3EFF0A3EB45
:101FE000F0A3EAF0A3E9F0E4A3F0904E1DE0FBC3F8
:101FF0009405504C904E18E0FEA3E0FF7C007D0A53
:10200000120173AF05EBFDC374049DFDE49400FC65
:10201000A3E0FBA3E0FAA3E0F98D828C83EF120129
:1020200051904E18E0FEA3E0FF7C007D0A12017380
:10203000904E18EEF0A3EFF0904E1DE004F080AA51
:10204000227B017A4D7969123049904D69E06075C3
:10205000A3E024EE601C14602414602924FC605F5B
:1020600024077061E4904C59F0904C5AF0904C5B0E
:10207000F022E4904C5CF0904C5B04F0227B017AFF
:102080004D79698041904D6BE0FFB41C0A904D6D15
:10209000E0904C59F0800CEFB42508904D6DE09025
:1020A0004C5AF0904C0EE0B4011B904C59E0B40136
:1020B00014904C5AE0B4010D904C5C7416F02290D0
:1020C0004C5D7401F022904E1EEBF0A3EAF0A3E900
:1020D000F0904E1EE0FBA3E0FAA3E0F9900004129A
:1020E0000112904E21F0E92406F9E43AFAC002C048
:1020F00001904E1EE0A3E0FAA3E0F9900005120162
:1021000012FD7C00D001D0025111904E1EE0FBA3C5
:10211000E0FAA3E0F9900007120112FE9000061207
:102120000112FDEEEDFF904E22EEF0A3EFF0904E87
:1021300021E06410600221C17D017F25FEF17890CD
:102140004E1EE0FBA3E0FAA3E02406F9E43AFAC04D
:1021500002C001904E1EE0A3E0FAA3E0F990000552
:10216000120112F51CD001D0027FA07E48121F9FE1
:10217000904E22E0FEA3E08EF012039521A0000114
:1021800021A4000321A8000821AC000A21B01002FC
:1021900021B4100421B8100521BC48010000220719
:1021A0007F1080647F1380607F18805C7F2280585E
:1021B0007F2580547F2880507F31804C7F35804838
:1021C00022904E21E07040904E1EE0FBA3E0FAA367
:1021D000E0F9900006120112B40111904C5CE0B4D9
:1021E00011047F41F1E6E4904C5CF022904C5CE0FD
:1021F000B4110F7B0AE4FD7F0E7E4CF1AA9043E7F9
:10220000E4F0E4904C5CF022904C5CE07002EFF063
:1022100022904DB8EBF0A3EAF0A3E9F0A3ECF0A311
:10222000EDF024FFFEEC34FF904DBFF0A3CEF0E4C0
:10223000904DBDF0A3F0904DBBE0C313FEA3E0139F
:10224000FFC3904DBEE09F904DBDE09E507D904DF0
:10225000B8E0FBA3E0FAA3E0F9904DBDE0FEA3E0F7
:10226000F5828E83120112904DC1F0904DBDE0A316
:10227000E0FFC3904DC0E09FFF904DBFE09E8F8276
:10228000F583120112FF904DBDE0FCA3E0FDF58245
:102290008C83EF120151904DC1E0FFC3904DC0E01F
:1022A0009DFD904DBFE09CFC904DB8E0FBA3E0FA93
:1022B000A3E0F98D828C83EF120151904DBEE004B2
:1022C000F07006904DBDE004F0413622904C6474ED
:1022D00030F0A3741CF0E4A3F0904C5CE012036FA8
:1022E000230510236F1323DB16246A1824DD202511
:1022F0001C22254025256D2825943125AC3525BE89
:1023000036000025C79048A8E064016004E0B402EC
:10231000207513017514487515A27516067B017A90
:102320004C790AF144904C067401F09043E7F08038
:1023300005E4904C06F0904C637408F0904C677480
:1023400010F0A37403F0A314F0E4A3F0904C06E0A3
:10235000904C6BF07B017A4C79697D037C005111C4
:102360007B017A4C7963D123904C5C7411F02290FC
:1023700048A2E0C39401401BE0D394045015A3E0AD
:10238000B401109048A2E0904C09F0904C07740101
:10239000F08006904C077402F0904C637408F0A330
:1023A0007430F0A3741CF0E4A3F0A37410F0A374D1
:1023B00003F0A304F0E4A3F0904C07E0904C6BF022
:1023C0007B017A4C79697D037C0051117B017A4C49
:1023D0007963D123904C5C7414F022904C63740F99
:1023E000F0904C6704F0A3740AF0A37407F0E4A320
:1023F000F0904E5CF0904E5CE0FFC39406502EE0EF
:10240000FE24E8F582E43443F583E0FD740A2EF5FA
:1024100082E4344CF583E06DFE746B2FF582E43476
:102420004CF583EEF0904E5CE004F080C8904C09CF
:10243000E0904C71F07F011217DDBF0108904C72E3
:10244000740AF08006904C727464F07B017A4C79C7
:10245000697D0A7C0051117B017A4C7963D1237F1D
:102460000AD10B904C5C7417F0229048A2E0904C7B
:1024700010F0E064017050904E5CF0904E5CE0FF14
:102480002412F582E4344CF583E0FE74A32FF58228
:10249000E43448F583E06E60047F0180027F0090A1
:1024A0004E5CE024E8F582E43443F583E06F600697
:1024B000904C637401F0904E5CE004F0E0B406BB15
:1024C000904C5C7420F022E4904C5CF0904C6304DF
:1024D000F0A37429F07B017A4C7963C123904C639B
:1024E0007408F0A37430F0A3741CF0E4A3F0A37498
:1024F00010F0A37403F0A37409F0E4A3F0A374082C
:10250000F07B017A4C79697D037C0051117B017A63
:102510004C7963D123904C5C7421F0229048A2E066
:10252000B408177A4C795E7B01C0038B137514488D
:102530007515A3751604D003F144E4904C5CF022A9
:102540009048A2E030E0177A4C795E7B01C0038BA3
:10255000137514487515A3751604D003F1447D0155
:102560007F027E10B1C8904C5C7426F0229048A285
:10257000E0D39403500FE0904CC6F07D017F047EC1
:1025800010B1C880087D027F047E10B1C8904C5CF9
:102590007429F0229048A3E030E002F1C87D017F69
:1025A000057E10B1C8904C5C7432F0229048A3E0D4
:1025B0007005904C5CF022904C5C7436F022122B2B
:1025C00099904C5C7437F022AB07AA06904C637468
:1025D0000AF0A37430F0A3741CF0E4A3F0A3741009
:1025E000F0A37405F0E4A3F0A37410F0EFA3F0EEF1
:1025F000A3F0A3EDF07B017A4C79697D057C005155
:10260000117B017A4C7963D1237F0AEFD394004088
:1026100011E4FDFC0DBD00010CBC2EF8BD7CF51FC6
:1026200080E922904DFDEBF0A3EAF0A3E9F012005F
:10263000F97002C32212317A904DFDE0FBA3E0FA5B
:10264000A3E0F91200F9FD2FFFE433CF2402CF34C9
:1026500000FED3EF9480EE94004002E142904A03E2
:10266000E0FA904A02E0FFEAFEEF904E00EEF0A39F
:10267000EFF0904E00E475F0011201C885F082F58C
:102680008374C5F0904E00E0B44F0EA3E0B480090F
:10269000904E00744FF0A3E4F0904E00E475F0010A
:1026A0001201C885F082F583EDF0904E00E0B44F42
:1026B0000EA3E0B48009904E00744FF0A3E4F0E460
:1026C000904E02F0A3F0904DFDE0FBA3E0FAA3E0F2
:1026D000F91200F9FF904E02E0FCA3E0FDC39FEC6D
:1026E00094005047E92401F9E43AFAE92DF9EA3C6B
:1026F000FA1200F9FF904E00E475F0011201C8854E
:10270000F082F583EFF0904E00E0B44F0EA3E0B4FA
:102710008009904E00744FF0A3E4F0904E03E00463
:10272000F07006904E02E004F0809B904E00E0FCBA
:10273000A3E0FAECFFEAFEEF904A02EEF0A3EFF01E
:10274000D322C3228B108A118912AF161516EF609F
:1027500026AB130515E515AA147002051414F91219
:1027600000F9FFAB100512E512AA11700205111451
:10277000F9EF12013F80D322AB07AA06904C5AE032
:1027800064017025904C637406F0A37430F0EBA3E1
:10279000F0EAA3F0E4A3F0A304F0A3EDF07B017A48
:1027A0004C7963D1237F0AD10B228E1D8F1EAF037C
:1027B0001BEF6013051EE51EAE1D7002051D14F50E
:1027C000828E83EDF080E7227E4C7F067B0AE4FD5B
:1027D000F1AA1217D39043E7E4F0904C5E12033E47
:1027E000000000007F41904E5EEFF0BF40167B017D
:1027F0007A4C7900904DEC744CF07F007EA07D0007
:102800007C004103904E5EE0B441207F007EA07DBD
:10281000007C00112C7B017A4C7900904DE4744CC3
:10282000F07F007EA07D007C0011B422904E2E111E
:10283000A29001BC7420F0904E2EE0FCA3E0FDA31A
:10284000E0FEA3E0FF781012030C9001BDEFF090C2
:102850004E2EE0FCA3E0FDA3E0FEA3E0FF7808120B
:10286000030C9001BEEFF0904E2EE0FCA3E0FDA320
:10287000E0FEA3E0FFE49001BFEFF09080887404D5
:10288000F0A3E4F0A374BCF0A37401F090808EE494
:10289000F0A3F09080067402F090812CE030E3F910
:1028A0008005120332317531B9EF30E0067F013116
:1028B000A180F422904DDDEBF0A3EAF0A3E9F0A3B0
:1028C00011A2E4FF904DE4E0FEEFC39E5023904D33
:1028D000DDE0FBA3E0FAA3E0F98F8275830012012B
:1028E00012FE74C02FF582E43401F583EEF00F8000
:1028F000D39001BC7402F0904DE0E0FCA3E0FDA396
:10290000E0FEA3E0FF781012030C9001BDEFF09001
:102910004DE0E0FCA3E0FDA3E0FEA3E0FF78081299
:10292000030C9001BEEFF0904DE0E0FCA3E0FDA3AE
:10293000E0FEA3E0FFE49001BFEFF0904DE4E0245F
:1029400004FDE433FCEDFAECFF3395E0EAFEEF9092
:102950008088EEF0A3EFF0A374BCF0A37401F090B4
:10296000808EE4F0A3F09080067402F090812CE059
:1029700030E3F901A790808EE4F0A3F09080880402
:10298000F0A3E4F09001BC7406F090808A74BCF06F
:10299000A37401F090800604F090812CE030E3F9FC
:1029A00022EFD394004011E4FDFC0DBD00010CBCEE
:1029B00004F8BD88F51F80E922904E5974FFF0900D
:1029C000808E7401F0A3E4F090808804F0A3E4F01A
:1029D0009001BC7405F090808A74BCF0A37401F07F
:1029E0007D59EDFA744EFFEAFEEFA3EEF0A3EFF08F
:1029F0009080067402F090812CE030E3F9904E59FB
:102A0000E0FF22904DE8120332904DECE0FDFEE431
:102A100090808EEEF0A3E4F09080887404F0A3E43C
:102A2000F09001BC7403F0904DE8E0FCA3E0FDA33E
:102A3000E0FEA3E0FF781012030C9001BDEFF090D0
:102A40004DE8E0FCA3E0FDA3E0FEA3E0FF78081260
:102A5000030C9001BEEFF0904DE8E0FCA3E0FDA375
:102A6000E0FEA3E0FFE49001BFEFF090808A74BC29
:102A7000F0A37401F0E9FCEAFFECFEEFA3EEF0A393
:102A8000EFF0908086E04440F09080067402F09071
:102A9000812CE020E7F990812CE030E3F922904D81
:102AA00091120332904D95EBF0A3EAF0A3E9F09078
:102AB0004D9C12033E00000000904D98E0FCA3E006
:102AC000FDA3E0FEA3E0FFA3E0F8A3E0F9A3E0FA92
:102AD000A3E0FBC31202FB4002618A904D9CE0A37D
:102AE000E0A3E0FEA3E0FF904D95E0FBA3E0FAA396
:102AF000E0F98F828E83120112FFE4904D91E0F88D
:102B0000A3E0F9A3E0FAA3E06FFFEAFEE9FDE8FC29
:102B1000EFE4FEFDFC7B04FAF9F81201DEE42FFF7E
:102B2000EE3480FEE43DFDE43CFC904DEC7404F09A
:102B30007B017A4E793A5103904D91E0FCA3E0FD80
:102B4000A3E0FEA3E0FF780812030C904E3AE0F8F1
:102B5000A3E0F9A3E0FAA3E06FFFEA6EFEE96DFDE2
:102B6000E86CFC904D91120332904D9CE0FCA3E088
:102B7000FDA3E0FEA3E02401FFE43EFEE43DFDE40E
:102B80003CFC904D9C12033241B9904D91E0FCA366
:102B9000E0FDA3E0FEA3E0FF22904DC2E4F0A3F02D
:102BA000A3F0904DC9F0904C12E0904DCBF075F031
:102BB00006A4240CFFE435F0FE7C007D12120173A4
:102BC000EDD3940040067F017B0180047F007B00F1
:102BD000904C12E0FA75F006A4240CFFE435F0FEE8
:102BE0007C007D12120173EB2F904DCAF0EA75F054
:102BF00006A4240C904E5DF0904C647430F0A374E5
:102C00001CF0E4A3F09048D27402F0A37448F09052
:102C10004DCAE0FF149048D4F0A3E4F0A37405F08B
:102C2000A3E4F0A3F0A3F0EFD394015002A178E461
:102C3000904DC9F0904DCBE0FF904DC9E0C39F503F
:102C400047B1F3904DC2EBF0A3EAF0A3E9F0904D49
:102C5000C9E075F006A424DAFFE5F03448FAA907C4
:102C60007B01C003C002904DC2E0FBA3E0FAA3E0E9
:102C70008B138A14F515751606D002D0031227445B
:102C8000904DC9E004F080AC7B017A4879D2904E37
:102C90005DE024FCFFE434FFFEE4FCFD904D98125F
:102CA00003327F007E007D007C00519E904DC51256
:102CB0000332904DC9E075F006A424DAFFE5F03444
:102CC00048FAA9077B01C0038B1375144D7515C510
:102CD000751604D0031227447B017A4879D2904EAE
:102CE0005DE0FD7C00122211E4904DC9F0904DCAC8
:102CF000E0FF904DC9E0FEC39F4002A1F2A3E0FDBA
:102D0000C454F0FFEE2F904C67F0ED14B5060A9016
:102D10004E5DE0904C68F0800D904C687412F0901D
:102D20004E5DE024EEF0904DC9E0FDA3E0C39D149C
:102D3000904C6BF0904C68E02405904C63F0ED757E
:102D4000F012A424D2FFE5F03448A907751301F569
:102D5000148915904C68E0F5167B017A4C7969125C
:102D600027447B017A4C79631226237F0C12260BB1
:102D7000904DC9E004F081ED904C637413F0904CD9
:102D8000677410F0A3740EF0B1F3904DC2EBF0A392
:102D9000EAF0A3E9F04A601E904DC2E0FBA3E0FA1E
:102DA000A3E08B138A14F5157516067B017A487912
:102DB000DA122744800B7B06E4FD7FD27E4812277F
:102DC000AA7513017514487515D2904C68E0F51674
:102DD0007B017A4C79691227447B017A4C7969909E
:102DE0004C68E0FD7C001222117B017A4C79631261
:102DF000262322904E50E4F0A3F0A3F0904C12E072
:102E0000D3940050077B007A00790022904C10E0A8
:102E100075F006A42413F9744C35F0FA904E5074F2
:102E200001F0A3EAF0A3E9F0904C10E02401FFE4E4
:102E300033FE7C007D0A120173EDF0904C12E01419
:102E4000F0904E50E0FBA3E0FAA3E0F922904E533D
:102E5000EBF0A3EAF0A3E9F0904C12E0C3940A402F
:102E600002B1F3904C11E075F006A42413F9744CF0
:102E700035F0FA7B01C003C002904E53E0FBA3E0A3
:102E8000FAA3E08B138A14F515751606D002D00349
:102E9000122744904C11E02401FFE433FE7C007DB6
:102EA0000A120173EDF0A3E004F022AC07EFD39413
:102EB000085011904CDBE0FEA807088002C313D82D
:102EC000FC20E002C322AF047401A807088002C3FB
:102ED00033D8FCF45E904CDBF0EC75F003A424DCFA
:102EE000F582E4344CF583E4F0A3F0A3F0EC25E0A4
:102EF00025E024F4F582E4344CF58312033E00000F
:102F00000000D322908101E0FFE4FCFDFE7808126E
:102F1000031FA804A905AA06AB07908100E0FFE4FF
:102F2000EB4FFFEAFEE9FDE8FCC004C005C006C0A7
:102F300007908102E0FFE4FCFDFE781012031FD031
:102F400003D002D001D000EF4BFFEE4AFEED49FD69
:102F5000EC48FCC004C005C006C007A3E0FFE4FCC9
:102F6000FDFE781812031FD003D002D001D000EF6D
:102F70004BFFEE4AFEED49FDEC48FC904D14120368
:102F800032E4F51FAF1F904CDBE0FEA8070880027B
:102F9000C313D8FC20E00302303CE51F25E025E008
:102FA00024F4F582E4344CF583E0FCA3E0FDA3E0D7
:102FB000FEA3E0FF904D14E0F8A3E0F9A3E0FAA32C
:102FC000E0FBD31202FB503EE51F25E025E024F490
:102FD000F582E4344CF583E0FCA3E0FDA3E0FEA31E
:102FE000E0FF904D14E0F8A3E0A3E0A3E0C3EF9B63
:102FF000FFEE9AFEED99FDEC98FCE4FB7A10F9F8EF
:10300000C31202FB5036904CDBE0FFAE1F7401A8E8
:1030100006088002C333D8FCF45F904CDBF0E51F58
:1030200075F003A424DCF582E4344CF583E0A3E0DE
:10303000FAA3E0F5828A83AF1F1203C6051FE51FBE
:10304000C394085003022F8422904E24EBF0A3EA8D
:10305000F0A3E9F0314CEFD394025002213D904AA5
:1030600005E0FC904A04E0FFECFEEF904E27EEF006
:10307000A3EFF0904E27E475F0011201C885F082AD
:10308000F583E0FF64C660022118904E2775F001B9
:103090001201C885F082F583E0FF904E24E0FBA387
:1030A000E0FAA3E0F9EF12013F904E27E0B4500F91
:1030B000A3E0B4000A904E27744FF0A37480F0E4AC
:1030C000FFFE904E24E0FBA3E0FAA3E0F91200F922
:1030D000FDC3EF9DEE9400504E904E27E475F00135
:1030E0001201C885F082F583E0FDE92401F9E43A94
:1030F000FAE92FF9EA3EFAED12013F904E27E0B4CB
:10310000500FA3E0B4000A904E27744FF0A37480D0
:10311000F00FBF00010E80AA904E24E0FBA3E0FA5E
:10312000A3E0F9E412013F904E27E0FCA3E0FAECA3
:10313000FFEAFEEF904A04EEF0A3EFF022904E2457
:10314000E0FBA3E0FAA3E0F9E402013F904A07E0C4
:10315000FC904A06E0FFECEFFD904A05E0FA904A49
:1031600004E0FFEAFEEFED2480FDE43CFCC3ED9FAC
:10317000FFEC9E7E00EF547FFF22904A03E0FC901C
:103180004A02E0FFECEFFD904A01E0FA904A00E0CD
:10319000FFEAFEEFED2480FDE43CFCC3ED9FFFEC75
:1031A0009E7E00EF547FFF22317AEF7002D322C35C
:1031B00022904E44EBF0A3EAF0A3E9F0317A904E6E
:1031C00044E0FBA3E0FAA3E0F91200F92FFFE43397
:1031D000CF2401CF3400FED3EF9480EE648094803E
:1031E0004002D322C3229082807401F0228E218F6C
:1031F000228B238A248925AF261526EF6025AB2351
:103200000525E525AA247002052414F91200F9FF0A
:103210000522E522AC217002052114F5828C83EF92
:10322000F080D422904E32EBF0A3EAF0A3E9F0A3B1
:10323000EDF0E4FFFE904E35E0FDC3EF9D7480F8A5
:103240006E985034904E32E0FBA3E0FAA3E0F98F81
:10325000828E83120112FD701F904E35E024FFFB19
:10326000E434FFFAEBB50709EAB50605ED7002C3D1
:10327000220FBF00010E80BDD322EFD39400401F68
:10328000E4FDFCE4FBFA0BBB00010ABA04F8BB7EC8
:10329000F50DBD00010CBC03EABDE8E71F80DB2291
:1032A000E4FFD1DCAD07AC06E4FFF1A5120FDDE4CD
:1032B000FDFC7F07919AE4FF912DE4FF1217EFE4E4
:1032C000FF1217DDE4FFEFB4010BE4904CA4F0A370
:1032D000F0A3F0FF22EFB40206904CA5E0FF22EF2E
:1032E000B40306904CA6E0FF227F02912DEF60020E
:1032F000812A904CA2E0FEA3E0FF904CC9E0FCA321
:10330000E0FDD39FEC9E400EED9FFFEC9E904E366D
:10331000F0A3EFF0801B904CC9E0FEA3E0FFC39048
:103320004CA3E09FFF904CA2E09E904E36F0A3EF9E
:10333000F0C3904E37E09414904E36E09400500E57
:10334000904CA4E0C394FF500AE004F08005E490A0
:103350004CA4F0904CC9E0FEA3E0FF904CA2EEF02C
:10336000A3EFF0E4904CA5F0A3F0C3EF94FAEE9431
:10337000005010904CA4E094065002812AA37401DE
:10338000F0812A904CA4E0D394065002812A904CFC
:10339000A67401F0904CC3E0FEA3E0FF904CC9E09E
:1033A000FCA3E0FDD39FEC9E400EED9FFFEC9E90B2
:1033B0004E38F0A3EFF0801B904CC9E0FEA3E0FF75
:1033C000C3904CC4E09FFF904CC3E09E904E38F0F9
:1033D000A3EFF0D3904CCAE09458904CC9E094020B
:1033E000401D904E39E09419904E38E09400500FF3
:1033F000904CC3E0FFA3E0904CC9CFF0A3EFF09056
:103400004CC9E0FEA3E0FF904CC0EEF0A3EFF090BB
:103410004CC3EEF0A3EFF0A37404F07F02120EF49D
:10342000E4FF12172C7F061215B37F0022EFB401C0
:1034300009904C9E7403F07F0022EFB40206904C7A
:103440009EE0FF22EFB40307E4904C9EF0FF22E4DD
:10345000FDFC7F03919AEF64014E701B904C9EE03F
:1034600054FDF030E031904CC0E0FFA3E0904CC937
:10347000CFF0A3EFF08020904C9EE0FF30E1119060
:103480004CC0E0FDA3E0904CC9CDF0A3EDF0800767
:10349000EF54FE904C9EF07F0022904DEDEFF0BF78
:1034A0000408E4904C9BF0FEFF22904DEDE0FBB44D
:1034B000050C904C96ECF0A3EDF0E4FEFF22EBB48B
:1034C000060EAF05904C98ECF0A3EFF0E4FEFF225F
:1034D000904DEDE0FDB40808E4904C9CF0FEFF2216
:1034E000ED640A7073904C95E0C3943C5050E00436
:1034F000F0904CD8E0FEA3E0FF904DEEEEF0FCA380
:10350000EFF0FDE4FFF1A5904DEEEEF0FCA3EFF03F
:10351000FD7F02F1A5C3EF940AEE9400403A904D6E
:10352000EEE0FEA3E0FF904C98EEF0A3EFF0904C9D
:1035300096EEF0A3EFF0904C9B7401F0801A904C43
:1035400098740FF0A374A0F0904C96740FF0A374CD
:10355000A0F0904C9B7401F0904DEDE06407600288
:10356000C190904C9AF07F01D1DC904DF4EFF07F48
:1035700007120A17904DF2EEF0A3EFF0904CC9E05D
:10358000FEA3E0FFD3942CEE94014006904DF4E0AE
:103590007006904C9A7401F0D3EF94C8EE940040FA
:1035A00008904DF4E06002C18C7F0251C6EF6401C7
:1035B0006002C18C7F0151C67F02912DEF70549043
:1035C0004C96E0FEA3E0FF904CD8E0FCA3E0FDC3E6
:1035D0009FEC9E402DED9FFFEC9EFE904DF0F0A3E2
:1035E000EFF0D3904DF3E09F904DF2E09E5002C17A
:1035F0008C904CD8E0FFA3E0904C98CFF0A3EFF074
:10360000C18C904CD8E0FFA3E0904C98CFF0A3EF92
:10361000F08079904C9CE07073904C98E0FEA3E0B1
:10362000FF904CD8E0FCA3E0FDD39FEC9E400EED54
:103630009FFFEC9E904DF0F0A3EFF0801B904CD8D4
:10364000E0FEA3E0FFC3904C99E09FFF904C98E010
:103650009E904DF0F0A3EFF0904CD8E0FFA3E090E7
:103660004C98CFF0A3EFF0D3904DF1E0940A904D39
:10367000F0E094004010904C9D7401F0904CC274A6
:1036800004F07F03912D904C9C7401F0E4FEFF2226
:10369000904DEDE0FD7009904C96E0FEA3E0FF2216
:1036A000EDB40208904C9BE0FF7E0022904DEDE0CF
:1036B000FDB40109904C98E0FEA3E0FF22EDB403B5
:1036C00008904C9AE0FF7E0022904DEDE0B409088E
:1036D000904C9DE0FF7E0022E4FEFF22904E47EFDB
:1036E000F0E4FDFC7F01919A904CD8E0FCA3E0FD52
:1036F000D39FEC9E4014ED9FFFEC9E904E48F0A3AC
:10370000EFF0904C807401F0801A904CD8E0FCA34C
:10371000E0FDC3EF9DFFEE9C904E48F0A3EFF0E478
:10372000904C80F0904E47E0B40108904C80E0FF50
:103730007E0022904E48E0FEA3E0FF22904CC0E0C5
:10374000FEA3E0FF904CC9E0FCA3E0FDD39FEC9EFC
:103750004020ED9FFFEC9EFE904E56F0A3EFF0C38D
:1037600094E8EE9403403D904CC57401F07F06024E
:1037700015B3904CC9E0FEA3E0FFC3904CC1E09F9D
:10378000FF904CC0E09EFE904E56F0A3EFF0C39425
:103790002CEE9401400E904CC57401F0FF912D7FEA
:1037A000061215B322904E05ECF0A3EDF0904E04F6
:1037B000EFF0BF0209904C81E0FEA3E0FF22904CA5
:1037C00083E0FEA3E0FF904E05E0FCA3E0FDD39F65
:1037D000EC9E4017904C83E0A3E0ED9FFFEC9EFE33
:1037E000E4FCFD904E07120332801E904E05E0FE71
:1037F000A3E0FFC3904C84E09FFF904C83E09EFECB
:10380000E4FCFD904E07120332904E05E0FFA3E06A
:10381000904C83CFF0A3EFF0E47F05FEFDFC904ECB
:1038200007E0F8A3E0F9A3E0FAA3E0FBD31202FB60
:103830005007904E04E0B4012BE4904C81F0A3F0CB
:10384000904C85F0A3F0A3F0A3F0A3F0A3F0A3F0B5
:10385000A3F0A3F0A3F0A3F0A3F0A3F0A3F0A3F0D0
:10386000A3F0614CC3904C82E094C8904C81E094EA
:1038700000500CA3E004F07006904C81E004F0903E
:103880004C81E0FEA3E0FFD39401EE9400500F9032
:103890004E05E0FDA3E0904C85CDF0A3EDF0D3EF15
:1038A0009402EE9400500F904E05E0FFA3E0904C80
:1038B00087CFF0A3EFF0D3904C82E09403904C813B
:1038C000E09400500F904E05E0FFA3E0904C89CFAC
:1038D000F0A3EFF0904C81E0FEA3E0FFD39404EE60
:1038E0009400500F904E05E0FDA3E0904C8BCDF07E
:1038F000A3EDF0D3EF9405EE9400500F904E05E049
:10390000FFA3E0904C8DCFF0A3EFF0D3904C82E07A
:103910009406904C81E09400500F904E05E0FFA378
:10392000E0904C8FCFF0A3EFF0904C81E0FEA3E04D
:10393000FFD39407EE9400500F904E05E0FDA3E0F6
:10394000904C91CDF0A3EDF0D3EF9408EE9400509D
:103950000F904E05E0FFA3E0904C93CFF0A3EFF063
:10396000D3904C82E09408904C81E0940040789091
:103970004C87E0FFA3E0904C85CFF0A3EFF0904C94
:1039800089E0FFA3E0904C87CFF0A3EFF0904C8B41
:10399000E0FFA3E0904C89CFF0A3EFF0904C8DE0D6
:1039A000FFA3E0904C8BCFF0A3EFF0904C8FE0FFA3
:1039B000A3E0904C8DCFF0A3EFF0904C91E0FFA3EB
:1039C000E0904C8FCFF0A3EFF0904C93E0FFA3E09A
:1039D000904C91CFF0A3EFF0904E05E0FFA3E09064
:1039E0004C93CFF0A3EFF0904C85E0FEA3E0FFE412
:1039F000FCFD904E07120332904E07E0F8A3E0F969
:103A0000A3E0FAA3E0FB904C87E0FEA3E0FFE4FC18
:103A1000FDEB2FFFEA3EFEED39FDEC38FC904E0742
:103A2000120332904E07E0F8A3E0F9A3E0FAA3E016
:103A3000FB904C89E0FEA3E0FFE4FCFDEB2FFFEAE6
:103A40003EFEED39FDEC38FC904E07120332904EED
:103A500007E0F8A3E0F9A3E0FAA3E0FB904C8BE0C9
:103A6000FEA3E0FFE4FCFDEB2FFFEA3EFEED39FD97
:103A7000EC38FC904E07120332904E07E0F8A3E0BA
:103A8000F9A3E0FAA3E0FB904C8DE0FEA3E0FFE495
:103A9000FCFDEB2FFFEA3EFEED39FDEC38FC904ECD
:103AA00007120332904E07E0F8A3E0F9A3E0FAA36F
:103AB000E0FB904C8FE0FEA3E0FFE4FCFDEB2FFF6A
:103AC000EA3EFEED39FDEC38FC904E0712033290D1
:103AD0004E07E0F8A3E0F9A3E0FAA3E0FB904C91D5
:103AE000E0FEA3E0FFE4FCFDEB2FFFEA3EFEED3934
:103AF000FDEC38FC904E07120332904E07E0F8A31D
:103B0000E0F9A3E0FAA3E0FB904C93E0FEA3E0FF12
:103B1000E4FCFDEB2FFFEA3EFEED39FDEC38FC90B6
:103B20004E07120332E47B08FAF9F8904E07E0FCE6
:103B3000A3E0FDA3E0FEA3E0FF120269904E05EEB4
:103B4000F0A3EFF0904C83EEF0A3EFF0904E05E081
:103B5000FEA3E0FF22EFB40107E4904CA9F0A3F02C
:103B6000EFB4020C904CA9E0C394FF5003E004F0C2
:103B7000904CAAE07014904CA9E0D39496400BA30B
:103B80007401F0E4904CC3F0A3F022904D55E0B4E2
:103B9000801F7B007A0079007F80121917904D56A4
:103BA0007480F0904D557401F0E4904D68F012056A
:103BB00092904D55E064016002815F7B017A4D79FE
:103BC000457D09FC1207A8EF64094E6002815F90F1
:103BD0004D48E0648060028159904D4CE0904CDA91
:103BE000F030E35C904CD77401F0904D49E0FFE475
:103BF000FCFDFE780812031FA804A905AA06AB075E
:103C0000A3E0FFE4FCFDFEEB2FFFEE3AFEED39FDF5
:103C1000EC38FC780812031FA804A905AA06AB0714
:103C2000A3E0FFE4FCFDFEEB2FFFEE3AFEED39FDD5
:103C3000EC38FC780612030C904CD8EEF0A3EFF0B1
:103C4000904CC5E07006904D55F08006904D55742F
:103C5000E0F0904D577401F022904D687415F022F9
:103C6000904D55E0B4851F7B007A0079007F851266
:103C70001917904D567485F0904D557406F0E490E8
:103C80004D68F0120592904D55E064066002A11057
:103C90007B017A4D79457D08FC1207A8EF64084E38
:103CA000706E904D48E064857060A3E0FFE4FCFD19
:103CB000FE780812031FA804A905AA06AB07A3E013
:103CC000FFE4FCFDFEEB2FFFEE3AFEED39FDEC3894
:103CD000FC780812031FA804A905AA06AB07A3E0F5
:103CE000FFE4FCFDFEEB2FFFEE3AFEED39FDEC3874
:103CF000FC780612030CAD07AC067F0612349AE47A
:103D0000904D55F0904D5704F022904D687415F089
:103D100022904CC2E0640470377F011217EFBF019C
:103D200008E4FDFC7F85121DCE7F011217DDBF0167
:103D300008E4FDFC7F86121DCEE4FDFC7F091234F1
:103D40009AEF64014E6002A1D8FDFC7F87021DCE70
:103D5000904CC6E07015904CC9E0FEA3E0FFA3EEC6
:103D6000F0FCA3EFF0FD7F41121DCE904CC6E0B4F5
:103D70000215904CC9E0FEA3E0FFA3EEF0FCA3EF18
:103D8000F0FD7F44121DCE904CC6E0B4031B904C56
:103D9000CAE025E0FF904CC9E033FE904CD1F0FC26
:103DA000A3EFF0FD7F43121DCE904CC6E0B4012876
:103DB000904CC9E0FEA3E0FF7C567D1E1203C8E4D0
:103DC0007B107A27F9F8120269904CCDEEF0FCA333
:103DD000EFF0FD7F42121DCE22904D26E0540FFFE2
:103DE000A3E054F04FF0904D25E0540FFFA3E054B2
:103DF000F04FF0904D24E0540FFFA3E054F04FF04B
:103E0000904D23E0540FFFA3E054F04FF0904D236A
:103E1000E054F0FFF0FD904D28E0540FF0A3E05483
:103E200008F0A3E05408F0A3E05408F0A3E054F82D
:103E3000F0904D28E04DF0A3E0FF904D24E0FEEF20
:103E40004E904D29F0A3E0FF904D25E0FEEF4E90FF
:103E50004D2AF0A3E0FF904D26E0FEEF4E904D2B53
:103E6000F0A3E0FF904D27E0FEEF4E904D2CF022A6
:103E7000E4904D28F0A3F0A3F0A3F0A3F022904D1E
:103E80002874FFF0A3F0A3F0A3F0A3F022904D2834
:103E9000E0904D1DF0904D29E0904D1EF0904D2A80
:103EA000E0904D1FF0904D2BE0904D20F0904D2C68
:063EB000E0904D21F0221C
:00000001FF
