:100000000203F5E709F608DFFA8046E709F208DFA0
:10001000FA803E88828C83E709F0A3DFFA8032E31E
:1000200009F608DFFA8078E309F208DFFA807088C1
:10003000828C83E309F0A3DFFA806489828A83E0FB
:10004000A3F608DFFA805889828A83E0A3F208DFEA
:10005000FA804C80D280FA80C680D4806980F28099
:1000600033801080A680EA809A80A880DA80E280BF
:10007000CA803389828A83ECFAE493A3C8C582C814
:10008000CCC583CCF0A3C8C582C8CCC583CCDFE97E
:10009000DEE7800D89828A83E493A3F608DFF9EC1A
:1000A000FAA9F0EDFB2289828A83ECFAE0A3C8C5A5
:1000B00082C8CCC583CCF0A3C8C582C8CCC583CCCC
:1000C000DFEADEE880DB89828A83E493A3F208DF3B
:1000D000F980CC88F0EF60010E4E60C388F0ED240B
:1000E00002B4040050B9F582EB2402B4040050AF0E
:1000F000232345822390005373BB010689828A83A0
:10010000E0225002E722BBFE02E32289828A83E4D6
:100110009322BB010CE58229F582E5833AF583E061
:10012000225006E92582F8E622BBFE06E92582F880
:10013000E222E58229F582E5833AF583E49322BB46
:10014000010689828A83F0225002F722BBFE01F366
:1001500022F8BB010DE58229F582E5833AF583E8B3
:10016000F0225006E92582C8F622BBFE05E9258269
:10017000C8F222BC000BBE0029EF8DF084FFADF069
:1001800022E4CCF875F008EF2FFFEE33FEEC33FCE1
:10019000EE9DEC984005FCEE9DFE0FD5F0E9E4CE17
:1001A000FD22EDF8F5F0EE8420D21CFEADF075F0E6
:1001B00008EF2FFFED33FD4007985006D5F0F222EF
:1001C000C398FD0FD5F0EA22A3F8E0C5F025F0F0C2
:1001D000E582158270021583E0C838F0E822E88FC6
:1001E000F0A4CC8BF0A42CFCE98EF0A42CFC8AF0BB
:1001F000EDA42CFCEA8EF0A4CDA8F08BF0A42DCCBD
:100200003825F0FDE98FF0A42CCD35F0FCEB8EF015
:10021000A4FEA9F0EB8FF0A4CFC5F02ECD39FEE4FB
:100220003CFCEAA42DCE35F0FDE43CFC2275F00840
:10023000758200EF2FFFEE33FECD33CDCC33CCC52E
:100240008233C5829BED9AEC99E58298400CF58249
:10025000EE9BFEED9AFDEC99FC0FD5F0D6E4CEFBBB
:10026000E4CDFAE4CCF9A88222B800C1B90059BAA9
:10027000002DEC8BF084CFCECDFCE5F0CBF97818D7
:10028000EF2FFFEE33FEED33FDEC33FCEB33FB10D1
:10029000D703994004EB99FB0FD8E5E4F9FA2278EB
:1002A00018EF2FFFEE33FEED33FDEC33FCC933C9FD
:1002B00010D7059BE99A4007EC9BFCE99AF90FD807
:1002C000E0E4C9FAE4CCFB2275F010EF2FFFEE3327
:1002D000FEED33FDCC33CCC833C810D7079BEC9A66
:1002E000E899400AED9BFDEC9AFCE899F80FD5F0EF
:1002F000DAE4CDFBE4CCFAE4C8F922EB9FF5F0EAAE
:100300009E42F0E99D42F0E89C45F022E8600FEC47
:10031000C313FCED13FDEE13FEEF13FFD8F122E83B
:10032000600FEFC333FFEE33FEED33FDEC33FCD84B
:10033000F122ECF0A3EDF0A3EEF0A3EFF022A882FF
:100340008583F0D083D082120355120355120355D2
:10035000120355E473E493A3C583C5F0C583C8C5F0
:1003600082C8F0A3C583C5F0C583C8C582C822D0A2
:1003700083D082F8E4937012740193700DA3A39359
:10038000F8740193F5828883E4737402936860EFD4
:10039000A3A3A380DFD083D082F8E493701274010A
:1003A00093700DA3A393F8740193F5828883E4738B
:1003B000740293B5F0067403936860E9A3A3A3A342
:1003C00080D88A838982E473EC8EF0A4CCC5F0CC0B
:1003D000CDF8EFA4CEC5F02DFDE43CFCE8A42EC87A
:1003E000C5F03DFDE43CFCEFA4FFE5F028FEE43D54
:1003F000FDE43CFC22787FE4F6D8FD7581CF020451
:100400003C0204C2E493A3F8E493A34003F6800102
:10041000F208DFF48029E493A3F85407240CC8C33E
:1004200033C4540F4420C8834004F456800146F678
:10043000DFE4800B0102040810204080900481E476
:100440007E019360BCA3FF543F30E509541FFEE4D6
:1004500093A360010ECF54C025E060A840B8E49398
:10046000A3FAE493A3F8E493A3C8C582C8CAC583DA
:10047000CAF0A3C8C582C8CAC583CADFE9DEE7805F
:10048000BE414C9500574D2ED706E3A736B5F5076C
:10049000F7B777F4D1E6F171D0E4736460000141FD
:1004A0004DFD01414DFF00414E0000414E01004114
:1004B0004E0200414E5E00000000000000000000FF
:1004C0000000904C62E004F0120FEC12181F121A98
:1004D000AAB1A2904E5CE0B402F112224C91E51256
:1004E0002AC180E722904D68E0C39415502B904CB0
:1004F000C5E024FE60140424FC50162405702DF180
:10050000011236C4B1E2F11B8023D16D1238508044
:100510001CB1E2123778801522B192E4904D68F058
:10052000904D55E06006A3E0904D55F022904D555A
:10053000E0B4E01E7B017A4D79287FE01224C4905C
:100540004D5674E0F0904D55740BF0E4904D68F00A
:10055000B192904D55E0640B70377B017A4D79452F
:100560007D05FCF1A8EF64054E7026904D48E0B47F
:10057000E019904CC5E07006904D55F08006904D06
:10058000557480F0904D577401F022904D687415A9
:10059000F022908116E0FFA3E0908058CFF0A3EF07
:1005A000F022904E5CE0B40121904C5BE07032D1BF
:1005B0005BB1929049FE7401F0904C63F0A37420FB
:1005C000F07B017A4C7963021E00904E5CE0B4032C
:1005D0000BD15BB1929049FE7401F0229049FEE488
:1005E000F022904D55E0B4821E7B007A0079007FA6
:1005F000821224C4904D567482F0904D557403F0CD
:10060000E4904D68F0B192904D55E06403704B7BDF
:10061000017A4D79457D09FCF1A8EF64094E703AE5
:10062000904D48E0B4822DA3E0904CD6F0904D4A16
:10063000E0904CD5F0904D4BE0904CD4F0904D4C68
:10064000E0904CD3F0E4904D55F0904D5704F0906D
:100650004CD7F022904D687415F02290810EA3E0E3
:10066000FC90810EE0FFECFEEF4E70EF22E4FDFC0B
:100670007F011212F1AD07AC06904D55E064A070F9
:100680004E904D587491F0ED7806C333CE33CED8EA
:10069000F9904D59F0EDAE047802CEC313CE13D8C5
:1006A000F9904D5AF0EC1313543FA3F04480F07BC3
:1006B000017A4D79587FA01224C4D15B904D5674B5
:1006C000A0F0904D557407F0E4904D68F0B1929011
:1006D0004D55E0B4072A7B017A4D79457D057C00B4
:1006E000F1A8EF64054E7018904D48E0B4A00BE4FB
:1006F000904D55F0904D5704F022904D687415F0D0
:1007000022904D55E0B4C5127B007A0079007FC578
:100710001224C4B192E4904D55F0227F07120A389A
:10072000AD07AC06904D55E064A1704A904D5874E9
:1007300020F0ED7806C333CE33CED8F9FB904D5977
:10074000F0EDAE047802CEC313CE13D8F9FF904D6E
:100750005AF0A3EBF0A3EFF07B017A4D79587FA11B
:100760001224C4904D5674A1F0904D557408F0E4D5
:10077000904D68F0B192904D55E0B4082A7B017A13
:100780004D79457D057C00F1A8EF64054E70189009
:100790004D48E0B4A10BE4904D55F0904D5704F056
:1007A00022904D687415F022904DCCEBF0A3EAF046
:1007B000A3E9F0A3ECF0A3EDF0E4A3F0A3F09080A4
:1007C00058A3E0FC908058E0FFECFEEF904DD3EE94
:1007D000F0A3EFF0908112A3E0FC908112E0FFEC17
:1007E000FEEFD3904DD0E09F904DCFE09E4004E4CB
:1007F000FEFF22E4904DD1F0A3F0904DCFE0FEA398
:10080000E0FFC3904DD2E09F904DD1E09E400201A9
:10081000CD904DD3E475F0011201C8FAA9F07B0127
:10082000C003904DCCE0FBA3E475F0011201C8A811
:10083000F0FCAD03D0037E007F011200D390805600
:10084000A3E0FC908056E0FFECFEEF2401FFE43EC5
:10085000FE904DD3E0FCA3E0B5071AEEB504169068
:100860008054A3E0FC908054E0FFECFEEF904DD369
:10087000EEF0A3EFF0908116A3E0FC908116E0FF6C
:10088000ECFEEF904DD3E0FCA3E0FDEF6D7002EEC7
:100890006C7029904DD3E0FEA3E0FFECFF3395E0B0
:1008A000AB07EDFFEB908058CFF0A3EFF0904DD267
:1008B000E02401FF904DD1E03400FE22904DD2E0C3
:1008C00004F07006904DD1E004F00207FA904DD389
:1008D000E0FEA3E0FFFDAC06ECFF3395E0AB07EDD7
:1008E000FFEB908058CFF0A3EFF0904DCFE0FEA348
:1008F000E0FF227BFF7A0879F3904DDA744EF0A383
:100900007441F07F0A7E0012117C904D68E0C39420
:10091000FF5003E004F0904E3FE0C394645005E0C4
:1009200004F0800FE4904E3FF07F07122BBB7F0254
:1009300012368EE4FFF1157F05121084E433FF9028
:100940004CC5E0B40206904E047401F0904E01E0F4
:10095000C394FF5003E004F0EF64017066904DFD16
:1009600004F0E4A3F0904E00E0B40105E4904E03DF
:10097000F0E4904DFFF0A3F0A3E0C39412400FA366
:10098000E0B4010AE4F0904E04E07002F153904E9E
:1009900003E0B40124E4F0904E01E0C39412500649
:1009A000A3E004F0800EE4904E02F0F0904E04E0DC
:1009B0007002F153E4904E01F0904E04E064017037
:1009C00076F022904DFDE07065A3E0C394FF5003E4
:1009D000E004F0904DFEE0FFD39403401F904E03DF
:1009E0007401F0904DFFE0701304F0904E01E0D3DD
:1009F00094124003E4A3F0E4904E01F0EFD394503E
:100A00004035904E00E0702F04F0904E02E0B403A9
:100A100013904CC57403F07F055138E4904E03F0F9
:100A2000904DFEF0E4904E02F0904E01F022E490E2
:100A30004DFDF0904E03F022AD07EDB40508E490B3
:100A40004CB1F0FEFF22ED64016002612A904C0877
:100A5000E0FF904DF9E4F0A3EFF0E0FE904C09E0E8
:100A6000FBEEEBFF904CABEEF0A3EFF0904C0AE006
:100A7000FF904DF9E4F0A3EFF0E0FE904C0BE0FBAB
:100A8000EEEBFF904CADEEF0A3EFF0904C0CE0FFDE
:100A9000904DF9E4F0A3EFF0E0FE904C0DE0FBEE9A
:100AA000EBFF904CAFEEF0A3EFF0904CABE0FEA369
:100AB000E0FFC394E8EE94034009D3EF9470EE9402
:100AC00017404C904CADE0FEA3E0FFC394E8EE94D9
:100AD000034009D3EF9470EE94174033904CAFE08D
:100AE000FEA3E0FFC394E8EE94034009D3EF9470B3
:100AF000EE9417401A904CAB7417F0A37470F0A3E7
:100B00007413F0A37488F0A3740FF0A374A0F09092
:100B10004CABE0FEA3E0FF7C007D0A120173904C19
:100B2000B2EEF0A3EFF0E4FEFF22EDB4061B904C12
:100B3000ABE0FEA3E0FF7C007D0A120173904CB293
:100B4000EEF0A3EFF0E4FEFF22EDB40709904CB203
:100B5000E0FEA3E0FF22EDB40209904CABE0FEA35F
:100B6000E0FF22EDB40309904CADE0FEA3E0FF22CC
:100B7000EDB40409904CAFE0FEA3E0FF22904CD806
:100B8000E0FEA3E0FF904DF9EEF0FCA3EFF0FDE4F2
:100B9000FF1230D4904DF9EEF0FCA3EFF0FD7F0290
:100BA0001230D4904DF5EEF0A3EFF0904CB1E07020
:100BB00048904DF9E0FCA3E0FD904CABECF0A3EDC8
:100BC000F0C3904DF6E0940C904DF5E09400401C7D
:100BD0007F051212F1904DF9E0FCA3E0FD7F0112B8
:100BE00030D47F02F115904CB17401F0904DF9E0D2
:100BF000FCA3E0FD7F211215FA904CB1E0B401187E
:100C00007F01F115EFD394C84006904CB17402F007
:100C1000E4FDFC7F811215FA904CB1E064026002A1
:100C200081D9FDFCFF1212F1904DFBEEF0A3EFF025
:100C3000C3904DFAE09FFF904DF9E09EFE904CABC3
:100C4000F0A3EFF0D3904CB3E09F904CB2E09E50F5
:100C500015904DFBE0FEA3E0FFC3904DFAE09F909E
:100C60004DF9E09E5032C3904DF6E0940C904DF556
:100C7000E09400401A904DF9E0FCA3E0FD7F0512DE
:100C800012F1904DF9E0FCA3E0FD7F011230D4E4B5
:100C9000904CABF0A3F08034D3904CACE094EE9049
:100CA0004CABE094024025904DF6E0940C904DF54D
:100CB000E0940040177F02F115904DF9E0FCA3E0AD
:100CC000FD7F011230D4904CB17403F0904CABE036
:100CD000FCA3E0FD7F211215FA904CB1E0B403189B
:100CE0007F01F115EFD394C84006904CB17404F025
:100CF000E4FDFC7F821215FA904CB1E064046002BE
:100D0000A19EFDFCFF1212F1904DFBEEF0A3EFF05F
:100D1000C3904DFAE09FFF904DF9E09EFE904DF795
:100D2000F0A3EFF0904CABE0FCA3E0FDD39FEC9E72
:100D30005015904DFBE0FEA3E0FFC3904DFAE09FFD
:100D4000904DF9E09E5009E4904CADF0A3F0804145
:100D5000C3904DF8E09DFF904DF7E09CFE904CADA8
:100D6000F0A3EFF0D394EEEE94024025904DF6E020
:100D7000940C904DF5E094004017904DF9E0FCA3E1
:100D8000E0FD7F011230D47F02F115904CB1740563
:100D9000F0904CADE0FCA3E0FD7F211215FA904CE1
:100DA000B1E0B405187F01F115EFD394C840069067
:100DB0004CB17406F0E4FDFC7F831215FA904CB13F
:100DC000E064066002C17CFDFCFF1212F1904DFB55
:100DD000EEF0A3EFF0C3904DFAE09FFF904DF9E0E5
:100DE0009EFE904DF7F0A3EFF0904CABE0FCA3E03B
:100DF000FDD39FEC9E5015904DFBE0FEA3E0FFC39A
:100E0000904DFAE09F904DF9E09E5009E4904CAF70
:100E1000F0A3F0805AC3904DF8E09DFF904DF7E0AD
:100E20009CFEF0A3EFF0904CADE0FCA3E0FDD39F5F
:100E3000EC9E4007E4A3F0A3F08034C3904DF8E0AB
:100E40009DFF904DF7E09CFE904CAFF0A3EFF0D3E8
:100E500094EEEE94024018904DF6E0940C904DF50F
:100E6000E09400400A7F02F115904CB17407F090B5
:100E70004CAFE0FCA3E0FD7F211215FA904CB1E0ED
:100E8000B407187F01F115EFD394C84006904CB118
:100E90007408F0E4FDFC7F841215FA904CB1E06414
:100EA00008706EFDFCFF1212F1904DFBEEF0A3EF07
:100EB000F0904DFBE0FCA3E0FD7F061212F1904C98
:100EC000C57401F0904CABE0FAA3E07C007D0AFF12
:100ED000AE02120173904CB2EEF0A3EFF0EA904C28
:100EE00008F0904CABE0A3E0904C09F0904CADE0E2
:100EF000FCA3E0FDEC904C0AF0EDA3F0904CAFE0C9
:100F0000FCA3E0FDEC904C0CF0EDA3F07F41121F30
:100F1000D5E4FEFF22EFB40207E4904CB8F0A3F052
:100F2000EFB40106904CB8E0FF22EF700C904CB883
:100F3000E0C394FF5003E004F0904CB8E0D39496E3
:100F40004004A37401F0EFB40306904CB9E0FF2213
:100F50007F0022904CC6E024FE600A14700E904C74
:100F6000C67402F022904CC67403F022904CC674F2
:100F700002F0227F03F115EF702D7F01F115EFC311
:100F8000941E5003023ACBEFC3943C50028019EFF9
:100F9000C3945A5002802CEFC3947850028009EF1A
:100FA000C394965002F1C322904D28E0540FF0A351
:100FB000E0E4F0A3E05408F0A3E05408F0A3E05408
:100FC000F0F022904D1DE0904D28F0904D1EE090E5
:100FD0004D29F0904D1FE0904D2AF0904D20E0906B
:100FE0004D2BF0904D21E0904D2CF0229049FEE4E5
:100FF000F09049FCE06410704F904E5C7402F0E495
:10100000904CC5F0123F027F40121FD5E4904C5B1C
:10101000F0904C06E06401600B7B0AE4FD7F0E7EDD
:101020004C121F99904C06E09043E7F011B97BFFFA
:101030007A0879F3904DDA744EF0A37441F07F0A88
:101040007E00317C51BB80367F05118450067F1BAA
:1010500011844024904E5C7402F0904CC5F011B99C
:101060007BFF7A0879F3904DDA744EF0A37441F067
:101070007F0A7E00317C8006904E5C7401F09049BE
:10108000FCE4F022EF5407FEEF1313135403FF2484
:101090001CFDE434818D82F583E0FD7C00AF067495
:1010A000017E00A807088005C333CE33CED8F9FFF0
:1010B000EE5CFEEF5D4E24FF22E4904CDBF090816D
:1010C00001E0FFE4FCFDFE780812031FA804A90557
:1010D000AA06AB07908100E0FFE4EB4FFFEAFEE9D0
:1010E000FDE8FCC004C005C006C007908102E0FF17
:1010F000E4FCFDFE781012031FD003D002D001D013
:1011000000EF4BFFEE4AFEED49FDEC48FCC004C089
:1011100005C006C007A3E0FFE4FCFDFE781812033B
:101120001FD003D002D001D000EF4BFFEE4AFEEDFE
:1011300049FDEC48FC904D14120332E4904E59F0F6
:10114000904E59E0FFC394085031EF75F003A4248A
:10115000DCF582E4344CF583E4F0A3F0A3F0EF2552
:10116000E025E024F4F582E4344CF58312033E00DC
:10117000000000904E59E004F080C522904DD5EE5D
:10118000F0A3EFF0E4904DDCF0904CDBE0B4FF0214
:10119000C322904DDCE0FFC39408502D904CDBE05F
:1011A000FEA807088002C313D8FC20E014904DDA93
:1011B000E0FEA3E0FF4E6011A3E08F828E83F080FB
:1011C00008904DDCE004F080C9904CDBE0FF904DCE
:1011D000DCE0FE7401A806088002C333D8FC4F90FF
:1011E0004CDBF0EE75F003A424DCF582E4344CF51E
:1011F00083EBF0A3EAF0A3E9F0908101E0FFE4FCC7
:10120000FDFE780812031FA804A905AA06AB0790E3
:101210008100E0FFE4EB4FFFEAFEE9FDE8FCC004DB
:10122000C005C006C007908102E0FFE4FCFDFE7827
:101230001012031FD003D002D001D000EF4BFFEEFD
:101240004AFEED49FDEC48FCC004C005C006C007DD
:10125000A3E0FFE4FCFDFE781812031FD003D002C8
:10126000D001D000EF4BFFEE4AFEED49FDEC48FC0B
:10127000C004C005C006C007904DD5E0FEA3E0FF46
:10128000E4FCFD780412031FE47B05FAF9F812026E
:1012900069D003D002D001D000EF2BFFEE3AFEED73
:1012A00039FDEC38FC904DDCE025E025E024F4F538
:1012B00082E4344CF583120332D322904CC5E070A3
:1012C0002F904CD7F0904D56F0904D55F0904CC665
:1012D0007402F0E4A3F0A3F0C2017F01120A38E423
:1012E000FDFC7F0451F17F06122BBBD200122CE5CE
:1012F00022904DEDEFF0BF0408E4904C9BF0FEFF10
:1013000022904DEDE0FBB4050C904C96ECF0A3ED73
:10131000F0E4FEFF22EBB4060EAF05904C98ECF023
:10132000A3EFF0E4FEFF22904DEDE0FDB40808E4E9
:10133000904C9CF0FEFF22ED640A7075904C95E095
:10134000C3943C5052E004F0904CD8E0FEA3E0FF80
:10135000904DEEEEF0FCA3EFF0FDE4FF1230D490E0
:101360004DEEEEF0FCA3EFF0FD7F021230D4C3EFA0
:10137000940AEE9400403A904DEEE0FEA3E0FF9018
:101380004C98EEF0A3EFF0904C96EEF0A3EFF090B7
:101390004C9B7401F0801A904C98740FF0A374A0C9
:1013A000F0904C96740FF0A374A0F0904C9B7401D5
:1013B000F0904DEDE06407600281EE904C9AF07F72
:1013C00001123073904DF4EFF07F07120A38904D00
:1013D000F2EEF0A3EFF0904CC9E0FEA3E0FFD3944F
:1013E0002CEE94014006904DF4E07006904C9A74F7
:1013F00001F0D3EF94C8EE94004008904DF4E06003
:101400000281EA7F02122F07EF6401600281EA7F06
:1014100001122F077F021235D5EF7054904C96E0E1
:10142000FEA3E0FF904CD8E0FCA3E0FDC39FEC9E40
:10143000402DED9FFFEC9EFE904DF0F0A3EFF0D31A
:10144000904DF3E09F904DF2E09E500281EA904C67
:10145000D8E0FFA3E0904C98CFF0A3EFF081EA90A2
:101460004CD8E0FFA3E0904C98CFF0A3EFF0807A47
:10147000904C9CE07074904C98E0FEA3E0FF904C80
:10148000D8E0FCA3E0FDD39FEC9E400EED9FFFEC67
:101490009E904DF0F0A3EFF0801B904CD8E0FEA39F
:1014A000E0FFC3904C99E09FFF904C98E09E904DD8
:1014B000F0F0A3EFF0904CD8E0FFA3E0904C98CF71
:1014C000F0A3EFF0D3904DF1E0940A904DF0E0944A
:1014D000004011904C9D7401F0904CC27404F07F58
:1014E000031235D5904C9C7401F0E4FEFF22904D20
:1014F000EDE0FD7009904C96E0FEA3E0FF22EDB414
:101500000208904C9BE0FF7E0022904DEDE0FDB480
:101510000109904C98E0FEA3E0FF22EDB40308908F
:101520004C9AE0FF7E0022904DEDE0B40908904C0B
:101530009DE0FF7E0022E4FEFF22904CC2E06404A6
:1015400070337F01123643BF0107E4FDFC7F85B194
:10155000FA7F01121F87BF0107E4FDFC7F86B1FA05
:10156000E4FDFC7F0951F1EF64014E6002A1F9FD39
:10157000FC7F87A1FA904CC6E07014904CC9E0FE45
:10158000A3E0FFA3EEF0FCA3EFF0FD7F41B1FA90E2
:101590004CC6E0B40214904CC9E0FEA3E0FFA3EEF9
:1015A000F0FCA3EFF0FD7F44B1FA904CC6E0B40329
:1015B0001A904CCAE025E0FF904CC9E033FE904CF5
:1015C000D1F0FCA3EFF0FD7F43B1FA904CC6E0B43C
:1015D0000127904CC9E0FEA3E0FF7C567D1E12035C
:1015E000C8E47B107A27F9F8120269904CCDEEF02E
:1015F000FCA3EFF0FD7F42B1FA22904E5BEFF0BF0B
:10160000850F904D187415F0A304F0A3F0A3F0A378
:10161000F0904E5BE0FFB48614E4904D18F0A37494
:1016200015F0A37410F0A304F0A37415F0EFB487C1
:1016300012904D187415F0A3F0A3740CF0A3741558
:10164000F0A3F0EF6481600FEF6482600AEF6483BF
:101650006005EF6484703EE4904D18F0A3740CF0C4
:10166000A3740AF0A37410F0EFB48104A37401F022
:10167000904E5BE0B48206904D1C7402F0904E5B7D
:10168000E0FFB48306904D1C7403F0EFB484069021
:101690004D1C7404F0904E5BE0FF64216014EF6415
:1016A00041600FEF6442600AEF64436005EF6444F9
:1016B000705FAE04AF057B017A4D79181239AC909A
:1016C0004E5BE0FF30E61D904D1BE0A3F0904D1AFD
:1016D000E0A3F0904D19E0A3F0904D18E0A3F0E4E2
:1016E000904D18F0904D18E07007A3E0700374154A
:1016F000F0904D19E0B41507A3E070037415F0EFF6
:1017000030E50E904D1AE0B41507A3E07003741590
:10171000F0904D19E0FFF1E4904D23EFF0904D1A59
:10172000E0FFF1E4904D24EFF0904D1BE0FFF1E479
:10173000904D25EFF0904D1CE0FFF1E4904D26EF29
:10174000F0123A17904D2CE0540FF0904D2BE054CE
:10175000F7F0904E5BE0FDB4410C904D2BE0440857
:10176000F0A3E04410F0EDB4420C904D2BE044089F
:10177000F0A3E04420F0904E5BE0B4430C904D2B7E
:10178000E04408F0A3E04480F0904E5BE0FDB444F8
:101790000C904D2BE04408F0A3E044C0F0904CDAEC
:1017A000E030E109904D28E04404F08007904D2896
:1017B000E054FBF0904C5BE0B40109904D28E0440C
:1017C00002F08007904D28E054FDF0EDB421149014
:1017D0004D28E054FDF0904D18E06007904D28E052
:1017E0004402F0227B017A4D792E8F82758300129C
:1017F0000112FF22904E42EBF0A3EAF0A3E9F0E4DD
:10180000FFAE051DEE6017904E42E0FBA3E475F0BD
:10181000011201C8A9F0FA1200F96FFF80E3227BE0
:10182000017A4D796912286A904D69E06075A3E0EC
:1018300024EE601C14602414602924FC605F2407DB
:101840007061E4904C59F0904C5AF0904C5BF0224F
:10185000E4904C5CF0904C5B04F0227B017A4D7973
:10186000698041904D6BE0FFB41C0A904D6DE09093
:101870004C59F0800CEFB42508904D6DE0904C5A17
:10188000F0904C0EE0B4011B904C59E0B401149060
:101890004C5AE0B4010D904C5C7416F022904C5DF3
:1018A0007401F022904E1FEBF0A3EAF0A3E9F09050
:1018B0004E1FE0FBA3E0FAA3E0F99000041201122E
:1018C000904E22F0E92406F9E43AFAC002C00190F1
:1018D0004E1FE0A3E0FAA3E0F9900005120112FD0B
:1018E0007C00D001D00231EF904E1FE0FBA3E0FA64
:1018F000A3E0F9900007120112FE900006120112F7
:10190000FDEEEDFF904E23EEF0A3EFF0904E22E0BF
:1019100064106002219F7D017F25FEF155904E1FCE
:10192000E0FBA3E0FAA3E02406F9E43AFAC002C01F
:1019300001904E1FE0A3E0FAA3E0F9900005120128
:1019400012F51CD001D0027FA07E4812248D904E4B
:1019500023E0FEA3E08EF0120395197E00011982A8
:10196000000319860008198A000A198E10021992BC
:10197000100419961005199A4801000019E57F1006
:1019800080647F1380607F18805C7F2280587F2571
:1019900080547F2880507F31804C7F358048229052
:1019A0004E22E07040904E1FE0FBA3E0FAA3E0F966
:1019B000900006120112B40111904C5CE0B41104C5
:1019C0007F41F1D5E4904C5CF022904C5CE0B41186
:1019D0000F7B0AE4FD7F0E7E4CF1999043E7E4F023
:1019E000E4904C5CF022904C5CE07002EFF02290AE
:1019F0004DB8EBF0A3EAF0A3E9F0A3ECF0A3EDF00F
:101A000024FFFEEC34FF904DBFF0A3CEF0E4904DE8
:101A1000BDF0A3F0904DBBE0C313FEA3E013FFC3E2
:101A2000904DBEE09F904DBDE09E507D904DB8E042
:101A3000FBA3E0FAA3E0F9904DBDE0FEA3E0F58240
:101A40008E83120112904DC1F0904DBDE0A3E0FFD6
:101A5000C3904DC0E09FFF904DBFE09E8F82F58305
:101A6000120112FF904DBDE0FCA3E0FDF5828C83D6
:101A7000EF120151904DC1E0FFC3904DC0E09DFDBC
:101A8000904DBFE09CFC904DB8E0FBA3E0FAA3E0D2
:101A9000F98D828C83EF120151904DBEE004F070FD
:101AA00006904DBDE004F0411422904C647430F077
:101AB000A3741CF0E4A3F0904C5CE012036F1AE3F3
:101AC000101B4D131BB9161C47181CBA201CF922F9
:101AD0001D1D251D4A281D71311D89351D9B360090
:101AE000001DA49048A8E064016004E0B4022075E1
:101AF00013017514487515A27516067B017A4C7989
:101B00000AF121904C067401F09043E7F08005E45F
:101B1000904C06F0904C637408F0904C677410F091
:101B2000A37403F0A314F0E4A3F0904C06E0904CEF
:101B30006BF07B017A4C79697D037C0031EF7B018E
:101B40007A4C7963D100904C5C7411F0229048A2D9
:101B5000E0C39401401BE0D394045015A3E0B4010A
:101B6000109048A2E0904C09F0904C077401F0806E
:101B700006904C077402F0904C637408F0A3743024
:101B8000F0A3741CF0E4A3F0A37410F0A37403F0AA
:101B9000A304F0E4A3F0904C07E0904C6BF07B01C1
:101BA0007A4C79697D037C0031EF7B017A4C796353
:101BB000D100904C5C7414F022904C63740FF09040
:101BC0004C6704F0A3740AF0A37407F0E4A3F09048
:101BD0004E5DF0904E5DE0FFC39406502EE0FE2473
:101BE000E8F582E43443F583E0FD740A2EF582E4DF
:101BF000344CF583E06DFE746B2FF582E4344CF5C4
:101C000083EEF0904E5DE004F080C8904C09E090C7
:101C10004C71F07F01F187BF0108904C72740AF09B
:101C20008006904C727464F07B017A4C79697D0A6D
:101C30007C0031EF7B017A4C7963D1007F0AB1E8F7
:101C4000904C5C7417F0229048A2E0904C10F0E0A9
:101C500064017050904E5DF0904E5DE0FF2412F5EF
:101C600082E4344CF583E0FE74A32FF582E434481B
:101C7000F583E06E60047F0180027F00904E5DE09E
:101C800024E8F582E43443F583E06F6006904C630A
:101C90007401F0904E5DE004F0E0B406BB904C5C43
:101CA0007420F022E4904C5CF0904C6304F0A37438
:101CB00029F07B017A4C7963C100904C637408F081
:101CC000A37430F0A3741CF0E4A3F0A37410F0A389
:101CD0007403F0A37409F0E4A3F0A37408F07B018B
:101CE0007A4C79697D037C0031EF7B017A4C796312
:101CF000D100904C5C7421F0229048A2E0B4081707
:101D00007A4C795E7B01C0038B137514487515A35B
:101D1000751604D003F121E4904C5CF0229048A2A7
:101D2000E030E0177A4C795E7B01C0038B137514A9
:101D3000487515A3751604D003F1217D017F027E3D
:101D400010B1A5904C5C7426F0229048A2E0D39488
:101D500003500FE0904CC6F07D017F047E10B1A5CA
:101D600080087D027F047E10B1A5904C5C7429F040
:101D7000229048A3E030E002F1B77D017F057E109C
:101D8000B1A5904C5C7432F0229048A3E0700590AD
:101D90004C5CF022904C5C7436F022123AF4904C79
:101DA0005C7437F022AB07AA06904C63740AF0A368
:101DB0007430F0A3741CF0E4A3F0A37410F0A374C7
:101DC00005F0E4A3F0A37410F0EFA3F0EEA3F0A3EA
:101DD000EDF07B017A4C79697D057C0031EF7B0168
:101DE0007A4C7963D1007F0AEFD394004011E4FD6F
:101DF000FC0DBD00010CBC2EF8BD7CF51F80E92256
:101E0000904E05EBF0A3EAF0A3E9F01200F970029E
:101E1000C32212299B904E05E0FBA3E0FAA3E0F950
:101E20001200F9FD2FFFE433CF2402CF3400FED39C
:101E3000EF9480EE94004002E11F904A03E0FA9094
:101E40004A02E0FFEAFEEF904E08EEF0A3EFF090BA
:101E50004E08E475F0011201C885F082F58374C55F
:101E6000F0904E08E0B44F0EA3E0B48009904E0805
:101E7000744FF0A3E4F0904E08E475F0011201C82D
:101E800085F082F583EDF0904E08E0B44F0EA3E0AC
:101E9000B48009904E08744FF0A3E4F0E4904E0A29
:101EA000F0A3F0904E05E0FBA3E0FAA3E0F91200E6
:101EB000F9FF904E0AE0FCA3E0FDC39FEC940050B4
:101EC00047E92401F9E43AFAE92DF9EA3CFA12006B
:101ED000F9FF904E08E475F0011201C885F082F513
:101EE00083EFF0904E08E0B44F0EA3E0B480099069
:101EF0004E08744FF0A3E4F0904E0BE004F070062F
:101F0000904E0AE004F0809B904E08E0FCA3E0FABB
:101F1000ECFFEAFEEF904A02EEF0A3EFF0D322C30B
:101F2000228B108A118912AF161516EF6026AB139B
:101F30000515E515AA147002051414F91200F9FF2D
:101F4000AB100512E512AA117002051114F9EF1277
:101F5000013F80D322AB07AA06904C5AE06401707F
:101F600025904C637406F0A37430F0EBA3F0EAA361
:101F7000F0E4A3F0A304F0A3EDF07B017A4C7963C5
:101F8000D1007F0AB1E822E4904C9FF0EFB4010643
:101F9000904C9FE0FF227F00228E1D8F1EAF031BFF
:101FA000EF6013051EE51EAE1D7002051D14F582BF
:101FB0008E83EDF080E7227E4C7F067B0AE4FDF104
:101FC00099123F029043E7E4F0904C5E12033E000A
:101FD0000000007F41904E5FEFF0BF40177B017A19
:101FE0004C7900904DEC744CF07F007EA07D007C1D
:101FF000000227CF904E5FE0B441207F007EA07D9D
:10200000007C00111C7B017A4C7900904DE4744CEB
:10201000F07F007EA07D007C0011A422904E2F1145
:10202000929001BC7420F0904E2FE0FCA3E0FDA341
:10203000E0FEA3E0FF781012030C9001BDEFF090DA
:102040004E2FE0FCA3E0FDA3E0FEA3E0FF78081222
:10205000030C9001BEEFF0904E2FE0FCA3E0FDA337
:10206000E0FEA3E0FFE49001BFEFF09080887404ED
:10207000F0A3E4F0A374BCF0A37401F090808EE4AC
:10208000F0A3F09080067402F090812CE030E3F928
:102090008005120332316531A9EF30E0067F01314E
:1020A0009180F422904DDDEBF0A3EAF0A3E9F0A3D8
:1020B0001192E4FF904DE4E0FEEFC39E5023904D5B
:1020C000DDE0FBA3E0FAA3E0F98F82758300120143
:1020D00012FE74C02FF582E43401F583EEF00F8018
:1020E000D39001BC7402F0904DE0E0FCA3E0FDA3AE
:1020F000E0FEA3E0FF781012030C9001BDEFF0901A
:102100004DE0E0FCA3E0FDA3E0FEA3E0FF780812B1
:10211000030C9001BEEFF0904DE0E0FCA3E0FDA3C6
:10212000E0FEA3E0FFE49001BFEFF0904DE4E02477
:1021300004FDE433FCEDFAECFF3395E0EAFEEF90AA
:102140008088EEF0A3EFF0A374BCF0A37401F090CC
:10215000808EE4F0A3F09080067402F090812CE071
:1021600030E3F9019790808EE4F0A3F0908088042A
:10217000F0A3E4F09001BC7406F090808A74BCF087
:10218000A37401F090800604F090812CE030E3F914
:1021900022EFD394004011E4FDFC0DBD00010CBC06
:1021A00004F8BD88F51F80E922904E5A74FFF09024
:1021B000808E7401F0A3E4F090808804F0A3E4F032
:1021C0009001BC7405F090808A74BCF0A37401F097
:1021D0007D5AEDFA744EFFEAFEEFA3EEF0A3EFF0A6
:1021E0009080067402F090812CE030E3F9904E5A12
:1021F000E0FF22AC07EFD394085011904CDBE0FED7
:10220000A807088002C313D8FC20E002C322AF0451
:102210007401A807088002C333D8FCF45E904CDB3D
:10222000F0EC75F003A424DCF582E4344CF583E48F
:10223000F0A3F0A3F0EC25E025E024F4F582E434EB
:102240004CF58312033E00000000D322908101E090
:10225000FFE4FCFDFE780812031FA804A905AA06E6
:10226000AB07908100E0FFE4EB4FFFEAFEE9FDE8F9
:10227000FCC004C005C006C007908102E0FFE4FC7A
:10228000FDFE781012031FD003D002D001D000EF62
:102290004BFFEE4AFEED49FDEC48FCC004C005C012
:1022A00006C007A3E0FFE4FCFDFE781812031FD070
:1022B00003D002D001D000EF4BFFEE4AFEED49FD06
:1022C000EC48FC904D14120332E4F51FAF1F904C04
:1022D000DBE0FEA807088002C313D8FC20E00261FF
:1022E00083E51F25E025E024F4F582E4344CF583F2
:1022F000E0FCA3E0FDA3E0FEA3E0FF904D14E0F8B6
:10230000A3E0F9A3E0FAA3E0FBD31202FB503EE501
:102310001F25E025E024F4F582E4344CF583E0FC4D
:10232000A3E0FDA3E0FEA3E0FF904D14E0F8A3E0DE
:10233000A3E0A3E0C3EF9BFFEE9AFEED99FDEC98BE
:10234000FCE4FB7A10F9F8C31202FB5036904CDB28
:10235000E0FFAE1F7401A806088002C333D8FCF466
:102360005F904CDBF0E51F75F003A424DCF582E4FC
:10237000344CF583E0A3E0FAA3E0F5828A83AF1F33
:102380001203C6051FE51FC39408500241CC2290DA
:102390004DAEEBF0A3EAF0A3E9F0A3ECF0A3EDF06F
:1023A00090805EA3E0FC90805EE0FFECFEEFAA066A
:1023B000F9904DB5E4F0A3EAF0A3E9F0E4904DB351
:1023C000F0A3F0904DB1E0FEA3E0FFC3904DB4E068
:1023D0009F904DB3E09E4002816E904DB5E0A3E426
:1023E00075F0011201C8FEAFF0904DAEE0FBA3E422
:1023F00075F0011201C8A9F0FA751C01918D908049
:102400005CA3E0FC90805CE0FFECFEEF904DB5E05B
:10241000A3E0FAA3E024FFFDEA34FFFCEF6D7002B5
:10242000EE6C703A90805CE0FFA3E0A3CFF0A3EFE6
:10243000F090810EA3E0FC90810EE0FFECFEEF4EE9
:1024400070EF90805AA3E0FC90805AE0FFECFEEF22
:10245000AA06F9904DB5E4F0A3EAF0A3E9F0904D97
:10246000B4E004F07006904DB3E004F061C3904D09
:10247000B5E0A3E0FAA3E0AC02FDECFF3395E0ABDE
:1024800007EDFFEB90805ECFF0A3EFF0228E178F69
:10249000188B198A1A891BAF1C151CEF6025AB1904
:1024A000051BE51BAA1A7002051A14F91200F9FFA0
:1024B0000518E518AC177002051714F5828C83EF28
:1024C000F080D422904D82EFF0A3EBF0A3EAF0A3CA
:1024D000E9F078867C4D7D017BFF7A0479B87E0037
:1024E0007F0A1200D3904D8674C5F0904D82E012A1
:1024F000036F252B80254181255782256D8325ABD0
:102500008425F3852609A0265BA126B7A22709A367
:10251000251AC52751E0000027B5E4904D86F0A3A9
:10252000F0A3F0904D907403F0E1C0904D877401DA
:10253000F0A37480F0A37444F0904D907404F0E123
:10254000C0904D877401F0A37481F0A37445F0909E
:102550004D907404F0E1C0904D877401F0A3748233
:10256000F0A37446F0904D907404F0E1C0904D8754
:102570007403F0A37483F0904D83E0FBA3E0FAA30F
:10258000E0F9900001120112904D89F01200F990CB
:102590004D8AF07B017A4D79867D05123901904D87
:1025A0008BEFF0904D907406F0E1C0904D8774046D
:1025B000F0A37484F0904D83E0FBA3E0FAA3E0F96C
:1025C000900002120112904D89F090000112011248
:1025D000904D8AF01200F9904D8BF07B017A4D7985
:1025E000867D06123901904D8CEFF0904D90740766
:1025F000F0E1C0904D877401F0A37485F0A374419D
:10260000F0904D907404F0E1C0904D877405F0A3F4
:1026100074A0F0904D83E0FBA3E0FAA3E0F99000F2
:1026200003120112904D89F0900002120112904D98
:102630008AF0900001120112904D8BF01200F99077
:102640004D8CF07B017A4D79867D07123901904DD2
:102650008DEFF0904D907408F0E1C0904D877406B6
:10266000F0A374A1F0904D83E0FBA3E0FAA3E0F99E
:10267000900004120112904D89F090000312011293
:10268000904D8AF0900002120112904D8BF0900054
:1026900001120112904D8CF01200F9904D8DF07BDB
:1026A000017A4D79867D08123901904D8EEFF090B8
:1026B0004D907409F0E1C0904D877405F0A374A2A9
:1026C000F0904D83E0FBA3E0FAA3E0F99000031241
:1026D0000112904D89F0900002120112904D8AF083
:1026E000900001120112904D8BF01200F9904D8C68
:1026F000F07B017A4D79867D07123901904D8DEF7F
:10270000F0904D907408F0E1C0904D877404F0A3F0
:1027100074A3F0904D83E0FBA3E0FAA3E0F99000EE
:1027200002120112904D89F0900001120112904D99
:102730008AF01200F9904D8BF07B017A4D79867DFD
:1027400006123901904D8CEFF0904D907407F08097
:102750006F904D877407F0A374E0F0904D83E0FB19
:10276000A3E0FAA3E0F9900005120112904D89F060
:10277000900004120112904D8AF090000312011291
:10278000904D8BF0900002120112904D8CF0900051
:1027900001120112904D8DF01200F9904D8EF07BD8
:1027A000017A4D79867D09123901904D8FEFF0A3A2
:1027B000740AF0800BE4904D87F0904D907402F015
:1027C0007B017A4D7986904D90E0FD7C00618F9081
:1027D0004DE8120332904DECE0FDFEE490808EEE69
:1027E000F0A3E4F09080887404F0A3E4F09001BCBE
:1027F0007403F0904DE8E0FCA3E0FDA3E0FEA3E04D
:10280000FF781012030C9001BDEFF0904DE8E0FC52
:10281000A3E0FDA3E0FEA3E0FF780812030C900103
:10282000BEEFF0904DE8E0FCA3E0FDA3E0FEA3E0E6
:10283000FFE49001BFEFF090808A74BCF0A37401B4
:10284000F0E9FCEAFFECFEEFA3EEF0A3EFF09080DE
:1028500086E04440F09080067402F090812CE020E5
:10286000E7F990812CE030E3F922904E25EBF0A3BC
:10287000EAF0A3E9F0316DEFD394025002215E90AB
:102880004A05E0FC904A04E0FFECFEEF904E28EE93
:10289000F0A3EFF0904E28E475F0011201C885F026
:1028A00082F583E0FF64C660022139904E2875F0FE
:1028B000011201C885F082F583E0FF904E25E0FB10
:1028C000A3E0FAA3E0F9EF12013F904E28E0B450E4
:1028D0000FA3E0B4000A904E28744FF0A37480F068
:1028E000E4FFFE904E25E0FBA3E0FAA3E0F912001E
:1028F000F9FDC3EF9DEE9400504E904E28E475F024
:10290000011201C885F082F583E0FDE92401F9E4B4
:102910003AFAE92FF9EA3EFAED12013F904E28E02B
:10292000B4500FA3E0B4000A904E28744FF0A37483
:1029300080F00FBF00010E80AA904E25E0FBA3E0BF
:10294000FAA3E0F9E412013F904E28E0FCA3E0FA7C
:10295000ECFFEAFEEF904A04EEF0A3EFF022904E77
:1029600025E0FBA3E0FAA3E0F9E402013F904A0767
:10297000E0FC904A06E0FFECEFFD904A05E0FA909B
:102980004A04E0FFEAFEEFED2480FDE43CFCC3EDE9
:102990009FFFEC9E7E00EF547FFF22904A03E0FCF5
:1029A000904A02E0FFECEFFD904A01E0FA904A0005
:1029B000E0FFEAFEEFED2480FDE43CFCC3ED9FFF69
:1029C000EC9E7E00EF547FFF22319BEF7002D322FA
:1029D000C322904E45EBF0A3EAF0A3E9F0319B90BF
:1029E0004E45E0FBA3E0FAA3E0F91200F92FFFE463
:1029F00033CF2401CF3400FED3EF9480EE64809473
:102A0000804002D322C3229082807401F0228E2162
:102A10008F228B238A248925AF261526EF6025ABCC
:102A2000230525E525AA247002052414F91200F9CE
:102A3000FF0522E522AC217002052114F5828C836A
:102A4000EFF080D422904E33EBF0A3EAF0A3E9F04C
:102A5000A3EDF0E4FFFE904E36E0FDC3EF9D7480E1
:102A6000F86E985034904E33E0FBA3E0FAA3E0F9FF
:102A70008F828E83120112FD701F904E36E024FF6C
:102A8000FBE434FFFAEBB50709EAB50605ED700281
:102A9000C3220FBF00010E80BDD322EFD3940040AC
:102AA0001FE4FDFCE4FBFA0BBB00010ABA04F8BB0F
:102AB0007EF50DBD00010CBC03EABDE8E71F80DB1D
:102AC00022904CC5E07004C20091E5904CC5E0B482
:102AD0000204E4FF7127904CD7E064017048F0FDD8
:102AE000FC7F021212F1EF4E7007FDFC7F0A02120A
:102AF000F1904CC5E0B40105D1DD12153A904CC5FA
:102B0000E0B40412120F737F03120F15BF01077F89
:102B100001B1CE12153A904CC5E0B40305E4FF12A2
:102B20000A38E4FF71BB22EFB4010AE4904CB5F01F
:102B3000904CB4F022EFB4020C904CB57401F0E468
:102B4000904CB4F022904CB5E0146035047066905F
:102B50004CB4E0700604F07FA091DAB1C8EF6401D4
:102B60007058904CB4F0A304F0904C63F0A3742020
:102B7000F07B017A4C7963121E00904E5C7401F078
:102B800022904CB4E0700604F07F8591DAB1C8BFA2
:102B90000128E4904CB4F0A3F0904E5C7402F0FF76
:102BA0001236437F0671BBE4904CC2F0904CC504D2
:102BB000F07F8081DAE4904CB5F022EFB407079003
:102BC0004CBF7401F022EF6040B40105E4904CBAB0
:102BD000F0EFB40205E4904CBBF0EFB40305E490D1
:102BE0004CBCF0EFB40405E4904CBDF0EFB4050527
:102BF000E4904CBEF0EF6406600281D9904CBAF0CC
:102C0000A3F0A3F0A3F0A3F022904CBFE064016016
:102C10000281D9F07F01121F87BF011E904CBEE0D8
:102C200004F0E0C39403500281D9904CC57402F0C3
:102C30007F017127E4904CBEF0227F01123643BF22
:102C4000011E904CBDE004F0E0C39403500281D912
:102C5000904CC57402F07F017127E4904CBDF022C6
:102C6000904CC5E06401704AFDFC7F031212F1EF45
:102C700064014E700C904CBCF0904CBAE004F080B3
:102C80000BE4904CBAF0904CBCE004F0904CBAE0ED
:102C9000C3940F5009904CBCE0C3940F403B904C40
:102CA000C57402F07F017127E4904CBAF0904CBCDF
:102CB000F022904CC5E0B40420E4904CBCF0904C61
:102CC000BBE004F0E0C3940F400F904CC57402F0D9
:102CD0007F017127E4904CBBF022E4904D57F090B7
:102CE0004D55EFF02230000AE4904CB7F0904CB60E
:102CF000F022904CB7E07016904CB6E0700804F0EB
:102D00007FC591DA8008E4904CB6F0A304F0904CB3
:102D1000B7E0B4011A904CB6E0700604F07F8491DD
:102D2000DAB1C8BF0109E4904CB6F0A37402F09088
:102D30004CB7E0B402037403F0904CB7E0B4031A4C
:102D4000904CB6E0700604F07F8291DAB1C8BF0102
:102D500009E4904CB6F0A37404F0904CB7E0B404CE
:102D60001A904CB6E0700604F07FA191DAB1C8BFAA
:102D70000109E4904CB6F0A37405F0904CB7E06400
:102D8000057028904CB6E0700F04F07DB87C227F6F
:102D9000211215FA7FE091DAB1C8BF010EE4904C20
:102DA000B6F0A37406F07F02120F15904CB7E0B492
:102DB00006157F01120F15EFD394C8400A904CC539
:102DC0007401F07F8091DA22904D57E0FF22EF707E
:102DD00005904CA7F0227F03F107BF01127F01F19C
:102DE00007E4FDFC7F081212F1E4904CA8F0229059
:102DF0004CA7E0705DA3E0700604F07F8291DAB129
:102E0000C8EF6401706E904CA8F0904CD3E0904EE7
:102E100015F0904CD4E0904E16F0904CD5E0904ECA
:102E200017F0904CD6E0904E18F0904CC9E0FCA3FF
:102E3000E0FAECFFEAFEEF904E13EEF0A3EFF07B2A
:102E4000017A4E7913123DA8904CA77401F07F804F
:102E500081DAE4FF123073AD07AC06E4FF1230D420
:102E6000123484D175904CC0E0FFA3E0904CC9CFE0
:102E7000F0A3EFF022904CC0E0FEA3E0FF904CC91D
:102E8000E0FCA3E0FDD39FEC9E401FED9FFFEC9E76
:102E9000FE904E57F0A3EFF0C394E8EE9403403C4D
:102EA000904CC57401F07F0661BB904CC9E0FEA355
:102EB000E0FFC3904CC1E09FFF904CC0E09EFE90AD
:102EC0004E57F0A3EFF0C3942CEE9401400E904CBB
:102ED000C57401F0FF1235D57F0671BB22E4FF12E5
:102EE0003073AD07AC06E4FF1230D4123484E4FD35
:102EF000FC7F071212F1E4FF1235D5E4FF123643CE
:102F0000E4FF121F87E4FFEFB4010BE4904CA4F040
:102F1000A3F0A3F0FF22EFB40206904CA5E0FF223D
:102F2000EFB40306904CA6E0FF227F021235D5EFE6
:102F30006003023070904CA2E0FEA3E0FF904CC909
:102F4000E0FCA3E0FDD39FEC9E400EED9FFFEC9EC6
:102F5000904E37F0A3EFF0801B904CC9E0FEA3E049
:102F6000FFC3904CA3E09FFF904CA2E09E904E3791
:102F7000F0A3EFF0C3904E38E0940A904E37E094FF
:102F800000500E904CA4E0C394FF500AE004F0807F
:102F900005E4904CA4F0904CC9E0FEA3E0FF904CF7
:102FA000A2EEF0A3EFF0E4904CA5F0A3F0C3EF94F1
:102FB000FAEE94005012904CA4E0940650030230B4
:102FC00070A37401F0023070904CA4E0D3940550CB
:102FD00003023070904CA67401F0904CC3E0FEA345
:102FE000E0FF904CC9E0FCA3E0FDD39FEC9E400EB7
:102FF000ED9FFFEC9E904E39F0A3EFF0801B904CBC
:10300000C9E0FEA3E0FFC3904CC4E09FFF904CC317
:10301000E09E904E39F0A3EFF0D3904CCAE0945864
:10302000904CC9E09402401D904E3AE09419904EA5
:1030300039E09400500F904CC3E0FFA3E0904CC9DE
:10304000CFF0A3EFF0904CC9E0FEA3E0FF904CC09E
:10305000EEF0A3EFF0904CC3EEF0A3EFF0A37404F6
:10306000F07F02120F15E4FF122DCE7F06122BBB4C
:103070007F0022904E48EFF0E4FDFC7F011212F138
:10308000904CD8E0FCA3E0FDD39FEC9E4014ED9F54
:10309000FFEC9E904E49F0A3EFF0904C807401F04D
:1030A000801A904CD8E0FCA3E0FDC3EF9DFFEE9C9E
:1030B000904E49F0A3EFF0E4904C80F0904E48E041
:1030C000B40108904C80E0FF7E0022904E49E0FE63
:1030D000A3E0FF22904E0DECF0A3EDF0904E0CEF2C
:1030E000F0BF0209904C81E0FEA3E0FF22904C83E8
:1030F000E0FEA3E0FF904E0DE0FCA3E0FDD39FECCB
:103100009E4017904C83E0A3E0ED9FFFEC9EFEE411
:10311000FCFD904E0F120332801E904E0DE0FEA378
:10312000E0FFC3904C84E09FFF904C83E09EFEE460
:10313000FCFD904E0F120332904E0DE0FFA3E09085
:103140004C83CFF0A3EFF0E47F05FEFDFC904E0F23
:10315000E0F8A3E0F9A3E0FAA3E0FBD31202FB50EE
:1031600007904E0CE0B4012BE4904C81F0A3F0905A
:103170004C85F0A3F0A3F0A3F0A3F0A3F0A3F0A379
:10318000F0A3F0A3F0A3F0A3F0A3F0A3F0A3F0A3A7
:10319000F0817BC3904C82E094C8904C81E0940015
:1031A000500CA3E004F07006904C81E004F0904CC9
:1031B00081E0FEA3E0FFD39401EE9400500F904E07
:1031C0000DE0FDA3E0904C85CDF0A3EDF0D3EF949E
:1031D00002EE9400500F904E0DE0FFA3E0904C875C
:1031E000CFF0A3EFF0D3904C82E09403904C81E0B9
:1031F0009400500F904E0DE0FFA3E0904C89CFF06B
:10320000A3EFF0904C81E0FEA3E0FFD39404EE9492
:1032100000500F904E0DE0FDA3E0904C8BCDF0A33D
:10322000EDF0D3EF9405EE9400500F904E0DE0FFBB
:10323000A3E0904C8DCFF0A3EFF0D3904C82E094BC
:1032400006904C81E09400500F904E0DE0FFA3E0FB
:10325000904C8FCFF0A3EFF0904C81E0FEA3E0FF05
:10326000D39407EE9400500F904E0DE0FDA3E09034
:103270004C91CDF0A3EDF0D3EF9408EE9400500FF5
:10328000904E0DE0FFA3E0904C93CFF0A3EFF0D36E
:10329000904C82E09408904C81E094004078904CEF
:1032A00087E0FFA3E0904C85CFF0A3EFF0904C892E
:1032B000E0FFA3E0904C87CFF0A3EFF0904C8BE0C1
:1032C000FFA3E0904C89CFF0A3EFF0904C8DE0FF8E
:1032D000A3E0904C8BCFF0A3EFF0904C8FE0FFA3D6
:1032E000E0904C8DCFF0A3EFF0904C91E0FFA3E085
:1032F000904C8FCFF0A3EFF0904C93E0FFA3E090C1
:103300004C91CFF0A3EFF0904E0DE0FFA3E0904C76
:1033100093CFF0A3EFF0904C85E0FEA3E0FFE4FC38
:10332000FD904E0F120332904E0FE0F8A3E0F9A388
:10333000E0FAA3E0FB904C87E0FEA3E0FFE4FCFD95
:10334000EB2FFFEA3EFEED39FDEC38FC904E0F12FC
:103350000332904E0FE0F8A3E0F9A3E0FAA3E0FBFC
:10336000904C89E0FEA3E0FFE4FCFDEB2FFFEA3E7A
:10337000FEED39FDEC38FC904E0F120332904E0FEB
:10338000E0F8A3E0F9A3E0FAA3E0FB904C8BE0FEA9
:10339000A3E0FFE4FCFDEB2FFFEA3EFEED39FDEC80
:1033A00038FC904E0F120332904E0FE0F8A3E0F974
:1033B000A3E0FAA3E0FB904C8DE0FEA3E0FFE4FC69
:1033C000FDEB2FFFEA3EFEED39FDEC38FC904E0F91
:1033D000120332904E0FE0F8A3E0F9A3E0FAA3E065
:1033E000FB904C8FE0FEA3E0FFE4FCFDEB2FFFEA37
:1033F0003EFEED39FDEC38FC904E0F120332904E3C
:103400000FE0F8A3E0F9A3E0FAA3E0FB904C91E011
:10341000FEA3E0FFE4FCFDEB2FFFEA3EFEED39FDED
:10342000EC38FC904E0F120332904E0FE0F8A3E000
:10343000F9A3E0FAA3E0FB904C93E0FEA3E0FFE4E5
:10344000FCFDEB2FFFEA3EFEED39FDEC38FC904E23
:103450000F120332E47B08FAF9F8904E0FE0FCA358
:10346000E0FDA3E0FEA3E0FF120269904E0DEEF036
:10347000A3EFF0904C83EEF0A3EFF0904E0DE0FE42
:10348000A3E0FF22904DA0EEF0A3EFF07F02120A1E
:1034900038904DA8EEF0A3EFF07F03120A38904D5C
:1034A000AAEEF0A3EFF07F04120A38904DACEEF0D4
:1034B000A3EFF0904DA8E0FEA3E0FF904DA0E0FC4C
:1034C000A3E0FDD39FEC9E50337E137F881203C888
:1034D000A3120332904DA8E0FEA3E0FFFBAA06E48E
:1034E000F9F8904DA2E0FCA3E0FDA3E0FEA3E0FF0D
:1034F000120269904CC9EEF0A3EFF022904DA8E0C3
:10350000FEA3E0FFC3904DA1E09FFF904DA0E09E81
:10351000FE904DA6F0A3EFF0C3904DABE09F904D11
:10352000AAE09E4043904DA6E0FEA3E0FF7C137D01
:10353000881203C8904DA2120332904DAAE0FEA358
:10354000E0FFFBAA06E4F9F8904DA2E0FCA3E0FD41
:10355000A3E0FEA3E0FF120269EF2488FFEE34131C
:10356000904CC9F0A3EFF022904DA8E0FEA3E0FF3D
:10357000C3904DA1E09FFF904DA0E09EFE904DAA0C
:10358000E0FCA3E0FDC3EF9DFFEE9C904DA6F0A3F1
:10359000EFF0904DA6E0FEA3E0FF7C137D881203C0
:1035A000C8904DA2120332904DACE0FEA3E0FFFBA9
:1035B000AA06E4F9F8904DA2E0FCA3E0FDA3E0FE2A
:1035C000A3E0FF120269EF2410FFEE3427904CC9EC
:1035D000F0A3EFF022EFB40109904C9E7403F07F4A
:1035E0000022EFB40206904C9EE0FF22EFB40307E6
:1035F000E4904C9EF0FF22E4FDFC7F031212F1EFF9
:1036000064014E701B904C9EE054FDF030E0319010
:103610004CC0E0FFA3E0904CC9CFF0A3EFF08020B6
:10362000904C9EE0FF30E111904CC0E0FDA3E09093
:103630004CC9CDF0A3EDF08007EF54FE904C9EF006
:103640007F0022EFB40209E4904CA0F0A3F0FF2227
:10365000D3904CCAE094C4904CC9E0943B4006908F
:103660004CA0E004F0904CA0E0C39402400E740221
:10367000F0A314F0904CC27404F08005E4904CA1C7
:10368000F0EFB40106904CA1E0FF227F0022EFB4DE
:103690000107E4904CA9F0A3F0EFB4020C904CA900
:1036A000E0C394FF5003E004F0904CAAE070149043
:1036B0004CA9E0D39496400BA37401F0E4904CC362
:1036C000F0A3F022E4904E4BF0A3744EF0A3744BA1
:1036D000F0904D55E0B4842D904D587406F0A374CD
:1036E000F7F0A3740FF07B017A4D79587F84122490
:1036F000C4904D567484F0904D557405F0E4904D8F
:1037000068F0120592904D55E06405706A7B017A6D
:103710004D79457D0BFC1207A8EF640B4E70587B6A
:10372000017A4D79457D0A1217F4904D4FE06F7084
:1037300040904D47E064107038A3E0B48433904D5E
:103740004BE0904D4EF0904D4D7455F0904D4AE049
:10375000904D4CF0904D4B74BEF0904D49E0A3F06D
:10376000904D497408F0E4904D55F0904D5704F099
:1037700022904D687415F022904D55E0B4801F7B67
:10378000007A0079007F801224C4904D567480F036
:10379000904D557401F0E4904D68F0120592904DF3
:1037A00055E06401600302384F7B017A4D79457D15
:1037B00009FC1207A8EF64094E600302384F904DD0
:1037C00048E064806003023849904D4CE0904CDA48
:1037D000F030E35C904CD77401F0904D49E0FFE489
:1037E000FCFDFE780812031FA804A905AA06AB0772
:1037F000A3E0FFE4FCFDFEEB2FFFEE3AFEED39FD0A
:10380000EC38FC780812031FA804A905AA06AB0728
:10381000A3E0FFE4FCFDFEEB2FFFEE3AFEED39FDE9
:10382000EC38FC780612030C904CD8EEF0A3EFF0C5
:10383000904CC5E07006904D55F08006904D557443
:10384000E0F0904D577401F022904D687415F0220D
:10385000904D55E0B4851F7B007A0079007F85127A
:1038600024C4904D567485F0904D557406F0E49044
:103870004D68F0120592904D55E0640660022100FB
:103880007B017A4D79457D08FC1207A8EF64084E4C
:10389000706E904D48E064857060A3E0FFE4FCFD2D
:1038A000FE780812031FA804A905AA06AB07A3E027
:1038B000FFE4FCFDFEEB2FFFEE3AFEED39FDEC38A8
:1038C000FC780812031FA804A905AA06AB07A3E009
:1038D000FFE4FCFDFEEB2FFFEE3AFEED39FDEC3888
:1038E000FC780612030CAD07AC067F061212F1E459
:1038F000904D55F0904D5704F022904D687415F09E
:1039000022904E4EEBF0A3EAF0A3E9F0E4FFEFC300
:103910009D5035904E4EE0FBA3E0FAA3E02409F958
:10392000E43AFAC002C0011200F9FE904E4EE0A344
:10393000E0FAA3E0F98F827583001201126ED001C4
:10394000D00212013F0F80C6904E4EE0FBA3E0FA7A
:10395000A3E0F9900009120112FF22904CC7E0FE8B
:10396000A3E0FF7B017A4E792A31AC904E2BE0FF29
:103970001217E4904D23EFF0904E2CE0FF1217E465
:10398000904D24EFF0904E2DE0FF1217E4904D255E
:10399000EFF0904E2EE0FF1217E4904D26EFF0511D
:1039A000177B017A4D79287FE00224C4904E19EEEE
:1039B000F0A3EFF0A3EBF0A3EAF0A3E9F0E4A3F0A7
:1039C000904E1EE0FBC39405504C904E19E0FEA3B0
:1039D000E0FF7C007D0A120173AF05EBFDC37404A8
:1039E0009DFDE49400FCA3E0FBA3E0FAA3E0F98DC5
:1039F000828C83EF120151904E19E0FEA3E0FF7C10
:103A0000007D0A120173904E19EEF0A3EFF0904E74
:103A10001EE004F080AA22904D26E0540FFFA3E0A0
:103A200054F04FF0904D25E0540FFFA3E054F04FB9
:103A3000F0904D24E0540FFFA3E054F04FF0904D70
:103A400023E0540FFFA3E054F04FF0904D23E054D7
:103A5000F0FFF0FD904D28E0540FF0A3E05408F083
:103A6000A3E05408F0A3E05408F0A3E054F8F09069
:103A70004D28E04DF0A3E0FF904D24E0FEEF4E9086
:103A80004D29F0A3E0FF904D25E0FEEF4E904D2A2A
:103A9000F0A3E0FF904D26E0FEEF4E904D2BF0A3FB
:103AA000E0FF904D27E0FEEF4E904D2CF022E49089
:103AB0004D28F0A3F0A3F0A3F0A3F022904D2874BA
:103AC000FFF0A3F0A3F0A3F0A3F022904D28E09024
:103AD0004D1DF0904D29E0904D1EF0904D2AE09044
:103AE0004D1FF0904D2BE0904D20F0904D2CE0902C
:103AF0004D21F022904DC2E4F0A3F0A3F0904DC907
:103B0000F0904C12E0904DCBF075F006A4240CFF21
:103B1000E435F0FE7C007D12120173EDD394004079
:103B2000067F017B0180047F007B00904C12E0FA4D
:103B300075F006A4240CFFE435F0FE7C007D121223
:103B40000173EB2F904DCAF0EA75F006A4240C9097
:103B50004E5EF0904C647430F0A3741CF0E4A3F05B
:103B60009048D27402F0A37448F0904DCAE0FF145C
:103B70009048D4F0A3E4F0A37405F0A3E4F0A3F01C
:103B8000A3F0EFD39401500281D3E4904DC9F0909B
:103B90004DCBE0FF904DC9E0C39F5047B14E904DD3
:103BA000C2EBF0A3EAF0A3E9F0904DC9E075F0068E
:103BB000A424DAFFE5F03448FAA9077B01C003C06A
:103BC00002904DC2E0FBA3E0FAA3E08B138A14F548
:103BD00015751606D002D003121F21904DC9E004BE
:103BE000F080AC7B017A4879D2904E5EE024FCFFF5
:103BF000E434FFFEE4FCFD904D981203327F007E1A
:103C0000007D007C00D106904DC5120332904DC955
:103C1000E075F006A424DAFFE5F03448FAA9077B42
:103C200001C0038B1375144D7515C5751604D003AB
:103C3000121F217B017A4879D2904E5EE0FD7C0014
:103C40001219EFE4904DC9F0904DCAE0FF904DC9B4
:103C5000E0FEC39F4002A14DA3E0FDC454F0FFEE7F
:103C60002F904C67F0ED14B5060A904E5EE0904C34
:103C700068F0800D904C687412F0904E5EE024EE77
:103C8000F0904DC9E0FDA3E0C39D14904C6BF09003
:103C90004C68E02405904C63F0ED75F012A424D23A
:103CA000FFE5F03448A907751301F5148915904C08
:103CB00068E0F5167B017A4C7969121F217B017A45
:103CC0004C7963121E007F0C121DE8904DC9E00470
:103CD000F08148904C637413F0904C677410F0A31B
:103CE000740EF0B14E904DC2EBF0A3EAF0A3E9F0F0
:103CF0004A601E904DC2E0FBA3E0FAA3E08B138A5A
:103D000014F5157516067B017A4879DA121F2180A1
:103D10000B7B06E4FD7FD27E48121F997513017557
:103D200014487515D2904C68E0F5167B017A4C79F1
:103D300069121F217B017A4C7969904C68E0FD7C07
:103D4000001219EF7B017A4C7963121E0022904E0B
:103D500051E4F0A3F0A3F0904C12E0D3940050078C
:103D60007B007A00790022904C10E075F006A424C4
:103D700013F9744C35F0FA904E517401F0A3EAF047
:103D8000A3E9F0904C10E02401FFE433FE7C007DB9
:103D90000A120173EDF0904C12E014F0904E51E0D5
:103DA000FBA3E0FAA3E0F922904E54EBF0A3EAF073
:103DB000A3E9F0904C12E0C3940A4002B14E904C3B
:103DC00011E075F006A42413F9744C35F0FA7B0168
:103DD000C003C002904E54E0FBA3E0FAA3E08B13B3
:103DE0008A14F515751606D002D003121F21904CC7
:103DF00011E02401FFE433FE7C007D0A120173ED23
:103E0000F0A3E004F022904D91120332904D95EB17
:103E1000F0A3EAF0A3E9F0904D9C12033E000000ED
:103E200000904D98E0FCA3E0FDA3E0FEA3E0FFA31B
:103E3000E0F8A3E0F9A3E0FAA3E0FBC31202FB4021
:103E400002C1F3904D9CE0A3E0A3E0FEA3E0FF904D
:103E50004D95E0FBA3E0FAA3E0F98F828E83120177
:103E600012FFE4904D91E0F8A3E0F9A3E0FAA3E09B
:103E70006FFFEAFEE9FDE8FCEFE4FEFDFC7B04FADF
:103E8000F9F81201DEE42FFFEE3480FEE43DFDE49C
:103E90003CFC904DEC7404F07B017A4E793B122788
:103EA000CF904D91E0FCA3E0FDA3E0FEA3E0FF78FE
:103EB0000812030C904E3BE0F8A3E0F9A3E0FAA34C
:103EC000E06FFFEA6EFEE96DFDE86CFC904D91122B
:103ED0000332904D9CE0FCA3E0FDA3E0FEA3E024B0
:103EE00001FFE43EFEE43DFDE43CFC904D9C1203EA
:103EF00032C121904D91E0FCA3E0FDA3E0FEA3E0E0
:0C3F0000FF22E4904C10F0A3F0A3F0228C
:00000001FF
