:100000000203F5E709F608DFFA8046E709F208DFA0
:10001000FA803E88828C83E709F0A3DFFA8032E31E
:1000200009F608DFFA8078E309F208DFFA807088C1
:10003000828C83E309F0A3DFFA806489828A83E0FB
:10004000A3F608DFFA805889828A83E0A3F208DFEA
:10005000FA804C80D280FA80C680D4806980F28099
:1000600033801080A680EA809A80A880DA80E280BF
:10007000CA803389828A83ECFAE493A3C8C582C814
:10008000CCC583CCF0A3C8C582C8CCC583CCDFE97E
:10009000DEE7800D89828A83E493A3F608DFF9EC1A
:1000A000FAA9F0EDFB2289828A83ECFAE0A3C8C5A5
:1000B00082C8CCC583CCF0A3C8C582C8CCC583CCCC
:1000C000DFEADEE880DB89828A83E493A3F208DF3B
:1000D000F980CC88F0EF60010E4E60C388F0ED240B
:1000E00002B4040050B9F582EB2402B4040050AF0E
:1000F000232345822390005373BB010689828A83A0
:10010000E0225002E722BBFE02E32289828A83E4D6
:100110009322BB010CE58229F582E5833AF583E061
:10012000225006E92582F8E622BBFE06E92582F880
:10013000E222E58229F582E5833AF583E49322BB46
:10014000010689828A83F0225002F722BBFE01F366
:1001500022F8BB010DE58229F582E5833AF583E8B3
:10016000F0225006E92582C8F622BBFE05E9258269
:10017000C8F222BC000BBE0029EF8DF084FFADF069
:1001800022E4CCF875F008EF2FFFEE33FEEC33FCE1
:10019000EE9DEC984005FCEE9DFE0FD5F0E9E4CE17
:1001A000FD22EDF8F5F0EE8420D21CFEADF075F0E6
:1001B00008EF2FFFED33FD4007985006D5F0F222EF
:1001C000C398FD0FD5F0EA22A3F8E0C5F025F0F0C2
:1001D000E582158270021583E0C838F0E822E88FC6
:1001E000F0A4CC8BF0A42CFCE98EF0A42CFC8AF0BB
:1001F000EDA42CFCEA8EF0A4CDA8F08BF0A42DCCBD
:100200003825F0FDE98FF0A42CCD35F0FCEB8EF015
:10021000A4FEA9F0EB8FF0A4CFC5F02ECD39FEE4FB
:100220003CFCEAA42DCE35F0FDE43CFC2275F00840
:10023000758200EF2FFFEE33FECD33CDCC33CCC52E
:100240008233C5829BED9AEC99E58298400CF58249
:10025000EE9BFEED9AFDEC99FC0FD5F0D6E4CEFBBB
:10026000E4CDFAE4CCF9A88222B800C1B90059BAA9
:10027000002DEC8BF084CFCECDFCE5F0CBF97818D7
:10028000EF2FFFEE33FEED33FDEC33FCEB33FB10D1
:10029000D703994004EB99FB0FD8E5E4F9FA2278EB
:1002A00018EF2FFFEE33FEED33FDEC33FCC933C9FD
:1002B00010D7059BE99A4007EC9BFCE99AF90FD807
:1002C000E0E4C9FAE4CCFB2275F010EF2FFFEE3327
:1002D000FEED33FDCC33CCC833C810D7079BEC9A66
:1002E000E899400AED9BFDEC9AFCE899F80FD5F0EF
:1002F000DAE4CDFBE4CCFAE4C8F922EB9FF5F0EAAE
:100300009E42F0E99D42F0E89C45F022E8600FEC47
:10031000C313FCED13FDEE13FEEF13FFD8F122E83B
:10032000600FEFC333FFEE33FEED33FDEC33FCD84B
:10033000F122ECF0A3EDF0A3EEF0A3EFF022A882FF
:100340008583F0D083D082120355120355120355D2
:10035000120355E473E493A3C583C5F0C583C8C5F0
:1003600082C8F0A3C583C5F0C583C8C582C822D0A2
:1003700083D082F8E4937012740193700DA3A39359
:10038000F8740193F5828883E4737402936860EFD4
:10039000A3A3A380DFD083D082F8E493701274010A
:1003A00093700DA3A393F8740193F5828883E4738B
:1003B000740293B5F0067403936860E9A3A3A3A342
:1003C00080D88A838982E473EC8EF0A4CCC5F0CC0B
:1003D000CDF8EFA4CEC5F02DFDE43CFCE8A42EC87A
:1003E000C5F03DFDE43CFCEFA4FFE5F028FEE43D54
:1003F000FDE43CFC22787FE4F6D8FD7581CF020451
:100400003C0204C2E493A3F8E493A34003F6800102
:10041000F208DFF48029E493A3F85407240CC8C33E
:1004200033C4540F4420C8834004F456800146F678
:10043000DFE4800B0102040810204080900481E476
:100440007E019360BCA3FF543F30E509541FFEE4D6
:1004500093A360010ECF54C025E060A840B8E49398
:10046000A3FAE493A3F8E493A3C8C582C8CAC583DA
:10047000CAF0A3C8C582C8CAC583CADFE9DEE7805F
:10048000BE414C9500574D2ED706E3A736B5F5076C
:10049000F7B777F4D1E6F171D0E4736460000141FD
:1004A0004DFD01414DFF00414E0000414E01004114
:1004B0004E0200414E5E00000000000000000000FF
:1004C0000000904C62E004F0120FEC121822121A95
:1004D000ADB1A2904E5CE0B402F112223F91E51260
:1004E0002B0880E722904D68E0C39415502B904C68
:1004F000C5E024FE60140424FC50162405702DF180
:1005000001123708B1E2F11B8023D16D12389280BD
:100510001CB1E21237BC801522B192E4904D68F014
:10052000904D55E06006A3E0904D55F022904D555A
:10053000E0B4E01E7B017A4D79287FE0122481909F
:100540004D5674E0F0904D55740BF0E4904D68F00A
:10055000B192904D55E0640B70377B017A4D79452F
:100560007D05FCF1A8EF64054E7026904D48E0B47F
:10057000E019904CC5E07006904D55F08006904D06
:10058000557480F0904D577401F022904D687415A9
:10059000F022908116E0FFA3E0908058CFF0A3EF07
:1005A000F022904E5CE0B40121904C5BE07032D1BF
:1005B0005BB1929049FE7401F0904C63F0A37420FB
:1005C000F07B017A4C7963021E04904E5CE0B40328
:1005D0000BD15BB1929049FE7401F0229049FEE488
:1005E000F022904D55E0B4821E7B007A0079007FA6
:1005F00082122481904D567482F0904D557403F010
:10060000E4904D68F0B192904D55E06403704B7BDF
:10061000017A4D79457D09FCF1A8EF64094E703AE5
:10062000904D48E0B4822DA3E0904CD6F0904D4A16
:10063000E0904CD5F0904D4BE0904CD4F0904D4C68
:10064000E0904CD3F0E4904D55F0904D5704F0906D
:100650004CD7F022904D687415F02290810EA3E0E3
:10066000FC90810EE0FFECFEEF4E70EF22E4FDFC0B
:100670007F011212F0AD07AC06904D55E064A070FA
:100680004E904D587491F0ED7806C333CE33CED8EA
:10069000F9904D59F0EDAE047802CEC313CE13D8C5
:1006A000F9904D5AF0EC1313543FA3F04480F07BC3
:1006B000017A4D79587FA0122481D15B904D5674F8
:1006C000A0F0904D557407F0E4904D68F0B1929011
:1006D0004D55E0B4072A7B017A4D79457D057C00B4
:1006E000F1A8EF64054E7018904D48E0B4A00BE4FB
:1006F000904D55F0904D5704F022904D687415F0D0
:1007000022904D55E0B4C5127B007A0079007FC578
:10071000122481B192E4904D55F0227F07120A38DD
:10072000AD07AC06904D55E064A1704A904D5874E9
:1007300020F0ED7806C333CE33CED8F9FB904D5977
:10074000F0EDAE047802CEC313CE13D8F9FF904D6E
:100750005AF0A3EBF0A3EFF07B017A4D79587FA11B
:10076000122481904D5674A1F0904D557408F0E418
:10077000904D68F0B192904D55E0B4082A7B017A13
:100780004D79457D057C00F1A8EF64054E70189009
:100790004D48E0B4A10BE4904D55F0904D5704F056
:1007A00022904D687415F022904DCCEBF0A3EAF046
:1007B000A3E9F0A3ECF0A3EDF0E4A3F0A3F09080A4
:1007C00058A3E0FC908058E0FFECFEEF904DD3EE94
:1007D000F0A3EFF0908112A3E0FC908112E0FFEC17
:1007E000FEEFD3904DD0E09F904DCFE09E4004E4CB
:1007F000FEFF22E4904DD1F0A3F0904DCFE0FEA398
:10080000E0FFC3904DD2E09F904DD1E09E400201A9
:10081000CD904DD3E475F0011201C8FAA9F07B0127
:10082000C003904DCCE0FBA3E475F0011201C8A811
:10083000F0FCAD03D0037E007F011200D390805600
:10084000A3E0FC908056E0FFECFEEF2401FFE43EC5
:10085000FE904DD3E0FCA3E0B5071AEEB504169068
:100860008054A3E0FC908054E0FFECFEEF904DD369
:10087000EEF0A3EFF0908116A3E0FC908116E0FF6C
:10088000ECFEEF904DD3E0FCA3E0FDEF6D7002EEC7
:100890006C7029904DD3E0FEA3E0FFECFF3395E0B0
:1008A000AB07EDFFEB908058CFF0A3EFF0904DD267
:1008B000E02401FF904DD1E03400FE22904DD2E0C3
:1008C00004F07006904DD1E004F00207FA904DD389
:1008D000E0FEA3E0FFFDAC06ECFF3395E0AB07EDD7
:1008E000FFEB908058CFF0A3EFF0904DCFE0FEA348
:1008F000E0FF227BFF7A0879F3904DDA744EF0A383
:100900007441F07F0A7E0012117B904D68E0C39421
:10091000FF5003E004F0904E3FE0C394645005E0C4
:1009200004F0800FE4904E3FF07F07122C027F020C
:100930001236D2E4FFF1157F05121083E433FF90E5
:100940004CC5E0B40206904E047401F0904E01E0F4
:10095000C394FF5003E004F0EF64017066904DFD16
:1009600004F0E4A3F0904E00E0B40105E4904E03DF
:10097000F0E4904DFFF0A3F0A3E0C39412400FA366
:10098000E0B4010AE4F0904E04E07002F153904E9E
:1009900003E0B40124E4F0904E01E0C39412500649
:1009A000A3E004F0800EE4904E02F0F0904E04E0DC
:1009B0007002F153E4904E01F0904E04E064017037
:1009C00076F022904DFDE07065A3E0C394FF5003E4
:1009D000E004F0904DFEE0FFD39403401F904E03DF
:1009E0007401F0904DFFE0701304F0904E01E0D3DD
:1009F00094124003E4A3F0E4904E01F0EFD394503E
:100A00004035904E00E0702F04F0904E02E0B403A9
:100A100013904CC57403F07F055138E4904E03F0F9
:100A2000904DFEF0E4904E02F0904E01F022E490E2
:100A30004DFDF0904E03F022AD07EDB40508E490B3
:100A40004CB1F0FEFF22ED64016002612A904C0877
:100A5000E0FF904DF9E4F0A3EFF0E0FE904C09E0E8
:100A6000FBEEEBFF904CABEEF0A3EFF0904C0AE006
:100A7000FF904DF9E4F0A3EFF0E0FE904C0BE0FBAB
:100A8000EEEBFF904CADEEF0A3EFF0904C0CE0FFDE
:100A9000904DF9E4F0A3EFF0E0FE904C0DE0FBEE9A
:100AA000EBFF904CAFEEF0A3EFF0904CABE0FEA369
:100AB000E0FFC394E8EE94034009D3EF9470EE9402
:100AC00017404C904CADE0FEA3E0FFC394E8EE94D9
:100AD000034009D3EF9470EE94174033904CAFE08D
:100AE000FEA3E0FFC394E8EE94034009D3EF9470B3
:100AF000EE9417401A904CAB7417F0A37470F0A3E7
:100B00007413F0A37488F0A3740FF0A374A0F09092
:100B10004CABE0FEA3E0FF7C007D0A120173904C19
:100B2000B2EEF0A3EFF0E4FEFF22EDB4061B904C12
:100B3000ABE0FEA3E0FF7C007D0A120173904CB293
:100B4000EEF0A3EFF0E4FEFF22EDB40709904CB203
:100B5000E0FEA3E0FF22EDB40209904CABE0FEA35F
:100B6000E0FF22EDB40309904CADE0FEA3E0FF22CC
:100B7000EDB40409904CAFE0FEA3E0FF22904CD806
:100B8000E0FEA3E0FF904DF9EEF0FCA3EFF0FDE4F2
:100B9000FF123118904DF9EEF0FCA3EFF0FD7F024B
:100BA000123118904DF5EEF0A3EFF0904CB1E070DB
:100BB00048904DF9E0FCA3E0FD904CABECF0A3EDC8
:100BC000F0C3904DF6E0940C904DF5E09400401C7D
:100BD0007F051212F0904DF9E0FCA3E0FD7F0112B9
:100BE00031187F02F115904CB17401F0904DF9E08D
:100BF000FCA3E0FD7F211215F8904CB1E0B4011880
:100C00007F01F115EFD394C84006904CB17402F007
:100C1000E4FDFC7F811215F8904CB1E064026002A3
:100C200081D9FDFCFF1212F0904DFBEEF0A3EFF026
:100C3000C3904DFAE09FFF904DF9E09EFE904CABC3
:100C4000F0A3EFF0D3904CB3E09F904CB2E09E50F5
:100C500015904DFBE0FEA3E0FFC3904DFAE09F909E
:100C60004DF9E09E5032C3904DF6E0940C904DF556
:100C7000E09400401A904DF9E0FCA3E0FD7F0512DE
:100C800012F0904DF9E0FCA3E0FD7F01123118E471
:100C9000904CABF0A3F08034D3904CACE094EE9049
:100CA0004CABE094024025904DF6E0940C904DF54D
:100CB000E0940040177F02F115904DF9E0FCA3E0AD
:100CC000FD7F01123118904CB17403F0904CABE0F1
:100CD000FCA3E0FD7F211215F8904CB1E0B403189D
:100CE0007F01F115EFD394C84006904CB17404F025
:100CF000E4FDFC7F821215F8904CB1E064046002C0
:100D0000A19EFDFCFF1212F0904DFBEEF0A3EFF060
:100D1000C3904DFAE09FFF904DF9E09EFE904DF795
:100D2000F0A3EFF0904CABE0FCA3E0FDD39FEC9E72
:100D30005015904DFBE0FEA3E0FFC3904DFAE09FFD
:100D4000904DF9E09E5009E4904CADF0A3F0804145
:100D5000C3904DF8E09DFF904DF7E09CFE904CADA8
:100D6000F0A3EFF0D394EEEE94024025904DF6E020
:100D7000940C904DF5E094004017904DF9E0FCA3E1
:100D8000E0FD7F011231187F02F115904CB174051E
:100D9000F0904CADE0FCA3E0FD7F211215F8904CE3
:100DA000B1E0B405187F01F115EFD394C840069067
:100DB0004CB17406F0E4FDFC7F831215F8904CB141
:100DC000E064066002C17CFDFCFF1212F0904DFB56
:100DD000EEF0A3EFF0C3904DFAE09FFF904DF9E0E5
:100DE0009EFE904DF7F0A3EFF0904CABE0FCA3E03B
:100DF000FDD39FEC9E5015904DFBE0FEA3E0FFC39A
:100E0000904DFAE09F904DF9E09E5009E4904CAF70
:100E1000F0A3F0805AC3904DF8E09DFF904DF7E0AD
:100E20009CFEF0A3EFF0904CADE0FCA3E0FDD39F5F
:100E3000EC9E4007E4A3F0A3F08034C3904DF8E0AB
:100E40009DFF904DF7E09CFE904CAFF0A3EFF0D3E8
:100E500094EEEE94024018904DF6E0940C904DF50F
:100E6000E09400400A7F02F115904CB17407F090B5
:100E70004CAFE0FCA3E0FD7F211215F8904CB1E0EF
:100E8000B407187F01F115EFD394C84006904CB118
:100E90007408F0E4FDFC7F841215F8904CB1E06416
:100EA00008706EFDFCFF1212F0904DFBEEF0A3EF08
:100EB000F0904DFBE0FCA3E0FD7F061212F0904C99
:100EC000C57401F0904CABE0FAA3E07C007D0AFF12
:100ED000AE02120173904CB2EEF0A3EFF0EA904C28
:100EE00008F0904CABE0A3E0904C09F0904CADE0E2
:100EF000FCA3E0FDEC904C0AF0EDA3F0904CAFE0C9
:100F0000FCA3E0FDEC904C0CF0EDA3F07F41121F30
:100F1000C7E4FEFF22EFB40207E4904CB8F0A3F060
:100F2000EFB40106904CB8E0FF22EF700C904CB883
:100F3000E0C394FF5003E004F0904CB8E0D39496E3
:100F40004004A37401F0EFB40306904CB9E0FF2213
:100F50007F0022904CC6E024FE600A14700E904C74
:100F6000C67402F022904CC67403F022904CC674F2
:100F700002F0227F03F115EF702D7F01F115EFC311
:100F8000941E5003023AB3EFC3943C50028019EF11
:100F9000C3945A5002802CEFC3947850028009EF1A
:100FA000C394965002F1C322904D28E0540FF0A351
:100FB000E0E4F0A3E05408F0A3E05408F0A3E05408
:100FC000F0F022904D1DE0904D28F0904D1EE090E5
:100FD0004D29F0904D1FE0904D2AF0904D20E0906B
:100FE0004D2BF0904D21E0904D2CF0229049FEE4E5
:100FF000F09049FCE06410704E904E5C7402F0E496
:10100000904CC5F0F1DB7F40121FC7E4904C5BF0C1
:10101000904C06E06401600B7B0AE4FD7F0E7E4C81
:10102000121F8B904C06E09043E7F011B87BFF7ADB
:101030000879F3904DDA744EF0A37441F07F0A7E84
:1010400000317B51BA80367F05118350067F1B111A
:10105000834024904E5C7402F0904CC5F011B87B34
:10106000FF7A0879F3904DDA744EF0A37441F07F63
:101070000A7E00317B8006904E5C7401F09049FC42
:10108000E4F022EF5407FEEF1313135403FF241C64
:10109000FDE434818D82F583E0FD7C00AF067401B0
:1010A0007E00A807088005C333CE33CED8F9FFEE03
:1010B0005CFEEF5D4E24FF22E4904CDBF09081015A
:1010C000E0FFE4FCFDFE780812031FA804A905AAAE
:1010D00006AB07908100E0FFE4EB4FFFEAFEE9FD7D
:1010E000E8FCC004C005C006C007908102E0FFE430
:1010F000FCFDFE781012031FD003D002D001D000F7
:10110000EF4BFFEE4AFEED49FDEC48FCC004C00584
:10111000C006C007A3E0FFE4FCFDFE781812031F21
:10112000D003D002D001D000EF4BFFEE4AFEED49D4
:10113000FDEC48FC904D14120332E4904E59F090AF
:101140004E59E0FFC394085031EF75F003A424DC3E
:10115000F582E4344CF583E4F0A3F0A3F0EF25E04E
:1011600025E024F4F582E4344CF58312033E0000BC
:101170000000904E59E004F080C522904DD5EEF06D
:10118000A3EFF0E4904DDCF0904CDBE0B4FF02C341
:1011900022904DDCE0FFC39408502D904CDBE0FE24
:1011A000A807088002C313D8FC20E014904DDAE0B1
:1011B000FEA3E0FF4E6011A3E08F828E83F08008D3
:1011C000904DDCE004F080C9904CDBE0FF904DDCFA
:1011D000E0FE7401A806088002C333D8FC4F904C8F
:1011E000DBF0EE75F003A424DCF582E4344CF583E7
:1011F000EBF0A3EAF0A3E9F0908101E0FFE4FCFD4D
:10120000FE780812031FA804A905AA06AB0790815F
:1012100000E0FFE4EB4FFFEAFEE9FDE8FCC004C09C
:1012200005C006C007908102E0FFE4FCFDFE7810D7
:1012300012031FD003D002D001D000EF4BFFEE4AC3
:10124000FEED49FDEC48FCC004C005C006C007A384
:10125000E0FFE4FCFDFE781812031FD003D002D09B
:1012600001D000EF4BFFEE4AFEED49FDEC48FCC01B
:1012700004C005C006C007904DD5E0FEA3E0FFE422
:10128000FCFD780412031FE47B05FAF9F8120269E9
:10129000D003D002D001D000EF2BFFEE3AFEED39A3
:1012A000FDEC38FC904DDCE025E025E024F4F582EF
:1012B000E4344CF583120332D322904CC5E0702FF6
:1012C000904CD7F0904D56F0904D55F0904CC67420
:1012D00002F0E4A3F0A3F0C2017F01120A38E4FD9A
:1012E000FC7F0451F07F06122C02D200122D2C221A
:1012F000904DEDEFF0BF0408E4904C9BF0FEFF2210
:10130000904DEDE0FBB4050C904C96ECF0A3EDF0A5
:10131000E4FEFF22EBB4060EAF05904C98ECF0A370
:10132000EFF0E4FEFF22904DEDE0FDB40808E490FC
:101330004C9CF0FEFF22ED640A7075904C95E0C362
:10134000943C5052E004F0904CD8E0FEA3E0FF90B3
:101350004DEEEEF0FCA3EFF0FDE4FF123118904DDE
:10136000EEEEF0FCA3EFF0FD7F02123118C3EF9414
:101370000AEE9400403A904DEEE0FEA3E0FF904C60
:1013800098EEF0A3EFF0904C96EEF0A3EFF0904CB7
:101390009B7401F0801A904C98740FF0A374A0F025
:1013A000904C96740FF0A374A0F0904C9B7401F0D5
:1013B000904DEDE06407600281ED904C9AF07F0162
:1013C0001230B7904DF4EFF07F07120A38904DF2CB
:1013D000EEF0A3EFF0904CC9E0FEA3E0FFD3942C15
:1013E000EE94014006904DF4E07006904C9A740122
:1013F000F0D3EF94C8EE94004008904DF4E0600202
:1014000081E97F02122F4EEF6401600281E97F01C2
:10141000122F4E7F02123619EF7054904C96E0FE58
:10142000A3E0FF904CD8E0FCA3E0FDC39FEC9E40FE
:101430002DED9FFFEC9EFE904DF0F0A3EFF0D390CA
:101440004DF3E09F904DF2E09E500281E9904CD820
:10145000E0FFA3E0904C98CFF0A3EFF081E9904C2F
:10146000D8E0FFA3E0904C98CFF0A3EFF0807A9003
:101470004C9CE07074904C98E0FEA3E0FF904CD838
:10148000E0FCA3E0FDD39FEC9E400EED9FFFEC9EA1
:10149000904DF0F0A3EFF0801B904CD8E0FEA3E05D
:1014A000FFC3904C99E09FFF904C98E09E904DF0C8
:1014B000F0A3EFF0904CD8E0FFA3E0904C98CFF071
:1014C000A3EFF0D3904DF1E0940A904DF0E094003A
:1014D0004011904C9D7401F0904CC27404F07F0355
:1014E000123619904C9C7401F0E4FEFF22904DEDF1
:1014F000E0FD7009904C96E0FEA3E0FF22EDB402FF
:1015000008904C9BE0FF7E0022904DEDE0FDB40181
:1015100009904C98E0FEA3E0FF22EDB40308904C44
:101520009AE0FF7E0022904DEDE0B40908904C9DBA
:10153000E0FF7E0022E4FEFF22904CC2E0640470D3
:10154000327F01123687BF0107E4FDFC7F85B1F8C9
:101550007F01F1E5BF0107E4FDFC7F86B1F8E4FD02
:10156000FC7F0951F0EF64014E6002A1F7FDFC7FA2
:1015700087A1F8904CC6E07014904CC9E0FEA3E03F
:10158000FFA3EEF0FCA3EFF0FD7F41B1F8904CC655
:10159000E0B40214904CC9E0FEA3E0FFA3EEF0FC1F
:1015A000A3EFF0FD7F44B1F8904CC6E0B4031A906D
:1015B0004CCAE025E0FF904CC9E033FE904CD1F0DE
:1015C000FCA3EFF0FD7F43B1F8904CC6E0B40127D7
:1015D000904CC9E0FEA3E0FF7C567D1E1203C8E4D8
:1015E0007B107A27F9F8120269904CCDEEF0FCA33B
:1015F000EFF0FD7F42B1F822904E5BEFF0BF850F18
:10160000904D187415F0A304F0A3F0A3F0A3F0908C
:101610004E5BE0FFB48614E4904D18F0A37415F00F
:10162000A37410F0A304F0A37415F0EFB487129024
:101630004D187415F0A3F0A3740CF0A37415F0A367
:10164000F0EF6481600FEF6482600AEF64836005ED
:10165000EF6484703EE4904D18F0A3740CF0A37412
:101660000AF0A37410F0EFB48104A37401F0904E5B
:101670005BE0B48206904D1C7402F0904E5BE0FF7C
:10168000B48306904D1C7403F0EFB48406904D1C97
:101690007404F0904E5BE0FF64216014EF644160DD
:1016A0000FEF6442600AEF64436005EF6444705FCB
:1016B000AE04AF057B017A4D7918123994904E5BD8
:1016C000E0FF30E61D904D1BE0A3F0904D1AE0A323
:1016D000F0904D19E0A3F0904D18E0A3F0E4904D88
:1016E00018F0904D18E07007A3E070037415F090A7
:1016F0004D19E0B41507A3E070037415F0EF30E561
:101700000E904D1AE0B41507A3E070037415F09025
:101710004D19E0FFF1CB904D23EFF0904D1AE0FF13
:10172000F1CB904D24EFF0904D1BE0FFF1CB904DAD
:1017300025EFF0904D1CE0FFF1CB904D26EFF0121D
:1017400039FF904D2CE0540FF0904D2BE054F7F002
:10175000904E5BE0FDB4410C904D2BE04408F0A3AB
:10176000E04410F0EDB4420C904D2BE04408F0A39F
:10177000E04420F0904E5BE0B4430C904D2BE044ED
:1017800008F0A3E04480F0904E5BE0FDB4440C9080
:101790004D2BE04408F0A3E044C0F0904C5BE0B473
:1017A0000109904D28E04402F08007904D28E05454
:1017B000FDF0EDB42114904D28E054FDF0904D184B
:1017C000E06007904D28E04402F0227B017A4D79D9
:1017D0002E8F82758300120112FF22E4904C10F0CC
:1017E000A3F0A3F022E4904C9FF0EFB40106904CDC
:1017F0009FE0FF227F0022904E42EBF0A3EAF0A38D
:10180000E9F0E4FFAE051DEE6017904E42E0FBA349
:10181000E475F0011201C8A9F0FA1200F96FFF8017
:10182000E3227B017A4D796912287A904D69E06054
:1018300075A3E024EE601C14602414602924FC606D
:101840005F24077061E4904C59F0904C5AF0904C32
:101850005BF022E4904C5CF0904C5B04F0227B0146
:101860007A4D79698041904D6BE0FFB41C0A904D30
:101870006DE0904C59F0800CEFB42508904D6DE070
:10188000904C5AF0904C0EE0B4011B904C59E0B4CF
:101890000114904C5AE0B4010D904C5C7416F02287
:1018A000904C5D7401F022904E1FEBF0A3EAF0A380
:1018B000E9F0904E1FE0FBA3E0FAA3E0F9900004EA
:1018C000120112904E22F0E92406F9E43AFAC0021D
:1018D000C001904E1FE0A3E0FAA3E0F990000512CA
:1018E0000112FD7C00D001D00231F2904E1FE0FBCE
:1018F000A3E0FAA3E0F9900007120112FE9000069F
:10190000120112FDEEEDFF904E23EEF0A3EFF090EA
:101910004E22E06410600221A27D017F25FEF15974
:10192000904E1FE0FBA3E0FAA3E02406F9E43AFAA4
:10193000C002C001904E1FE0A3E0FAA3E0F99000BE
:1019400005120112F51CD001D0027FA07E48122A98
:101950001E904E23E0FEA3E08EF012039519810045
:10196000011985000319890008198D000A199110C1
:10197000021995100419991005199D4801000019C4
:10198000E87F1080647F1380607F18805C7F2280F6
:10199000587F2580547F2880507F31804C7F358050
:1019A0004822904E22E07040904E1FE0FBA3E0FAE8
:1019B000A3E0F9900006120112B40111904C5CE012
:1019C000B411047F41F1C7E4904C5CF022904C5C70
:1019D000E0B4110F7B0AE4FD7F0E7E4CF18B904347
:1019E000E7E4F0E4904C5CF022904C5CE07002EF95
:1019F000F022904DB8EBF0A3EAF0A3E9F0A3ECF0ED
:101A0000A3EDF024FFFEEC34FF904DBFF0A3CEF029
:101A1000E4904DBDF0A3F0904DBBE0C313FEA3E0F6
:101A200013FFC3904DBEE09F904DBDE09E507D9052
:101A30004DB8E0FBA3E0FAA3E0F9904DBDE0FEA3B2
:101A4000E0F5828E83120112904DC1F0904DBDE001
:101A5000A3E0FFC3904DC0E09FFF904DBFE09E8F7D
:101A600082F583120112FF904DBDE0FCA3E0FDF56D
:101A7000828C83EF120151904DC1E0FFC3904DC0A5
:101A8000E09DFD904DBFE09CFC904DB8E0FBA3E0D5
:101A9000FAA3E0F98D828C83EF120151904DBEE0E4
:101AA00004F07006904DBDE004F0411722904C64A4
:101AB0007430F0A3741CF0E4A3F0904C5CE01203CB
:101AC0006F1AE6101B50131BBC161C4B181CBE20B3
:101AD0001CFD221D21251D4E281D75311D8D351D16
:101AE0009F3600001DA89048A8E064016004E0B49F
:101AF00002207513017514487515A27516067B0131
:101B00007A4C790AF125904C067401F09043E7F085
:101B10008005E4904C06F0904C637408F0904C679C
:101B20007410F0A37403F0A314F0E4A3F0904C0637
:101B3000E0904C6BF07B017A4C79697D037C00313D
:101B4000F27B017A4C7963D104904C5C7411F022E1
:101B50009048A2E0C39401401BE0D394045015A325
:101B6000E0B401109048A2E0904C09F0904C07744A
:101B700001F08006904C077402F0904C637408F0FA
:101B8000A37430F0A3741CF0E4A3F0A37410F0A3CA
:101B90007403F0A304F0E4A3F0904C07E0904C6BC6
:101BA000F07B017A4C79697D037C0031F27B017A0C
:101BB0004C7963D104904C5C7414F022904C6374A3
:101BC0000FF0904C6704F0A3740AF0A37407F0E4DC
:101BD000A3F0904E5DF0904E5DE0FFC39406502E52
:101BE000E0FE24E8F582E43443F583E0FD740A2E38
:101BF000F582E4344CF583E06DFE746B2FF582E4DE
:101C0000344CF583EEF0904E5DE004F080C8904CCB
:101C100009E0904C71F07F011217E5BF0108904C6C
:101C200072740AF08006904C727464F07B017A4CF6
:101C300079697D0A7C0031F27B017A4C7963D104A9
:101C40007F0AB1EC904C5C7417F0229048A2E090AF
:101C50004C10F0E064017050904E5DF0904E5DE0ED
:101C6000FF2412F582E4344CF583E0FE74A32FF5D3
:101C700082E43448F583E06E60047F0180027F00D7
:101C8000904E5DE024E8F582E43443F583E06F6034
:101C900006904C637401F0904E5DE004F0E0B406F1
:101CA000BB904C5C7420F022E4904C5CF0904C6350
:101CB00004F0A37429F07B017A4C7963C104904C41
:101CC000637408F0A37430F0A3741CF0E4A3F0A3D1
:101CD0007410F0A37403F0A37409F0E4A3F0A374E8
:101CE00008F07B017A4C79697D037C0031F27B013D
:101CF0007A4C7963D104904C5C7421F0229048A214
:101D0000E0B408177A4C795E7B01C0038B1375141D
:101D1000487515A3751604D003F125E4904C5CF0CA
:101D2000229048A2E030E0177A4C795E7B01C00334
:101D30008B137514487515A3751604D003F1257D12
:101D4000017F027E10B1A9904C5C7426F02290486D
:101D5000A2E0D39403500FE0904CC6F07D017F04C5
:101D60007E10B1A980087D027F047E10B1A9904C3D
:101D70005C7429F0229048A3E030E002F1A97D01D3
:101D80007F057E10B1A9904C5C7432F0229048A37C
:101D9000E07005904C5CF022904C5C7436F022129E
:101DA0003ADC904C5C7437F022AB07AA06904C6387
:101DB000740AF0A37430F0A3741CF0E4A3F0A374CD
:101DC00010F0A37405F0E4A3F0A37410F0EFA3F0F7
:101DD000EEA3F0A3EDF07B017A4C79697D057C00E0
:101DE00031F27B017A4C7963D1047F0AEFD39400FE
:101DF0004011E4FDFC0DBD00010CBC2EF8BD7CF5CE
:101E00001F80E922904E05EBF0A3EAF0A3E9F0125F
:101E100000F97002C3221229AB904E05E0FBA3E04B
:101E2000FAA3E0F91200F9FD2FFFE433CF2402CF2B
:101E30003400FED3EF9480EE94004002E123904AF8
:101E400003E0FA904A02E0FFEAFEEF904E08EEF05F
:101E5000A3EFF0904E08E475F0011201C885F082FE
:101E6000F58374C5F0904E08E0B44F0EA3E0B48043
:101E700009904E08744FF0A3E4F0904E08E475F01A
:101E8000011201C885F082F583EDF0904E08E0B4B0
:101E90004F0EA3E0B48009904E08744FF0A3E4F015
:101EA000E4904E0AF0A3F0904E05E0FBA3E0FAA305
:101EB000E0F91200F9FF904E0AE0FCA3E0FDC39F99
:101EC000EC94005047E92401F9E43AFAE92DF9EAE3
:101ED0003CFA1200F9FF904E08E475F0011201C8B7
:101EE00085F082F583EFF0904E08E0B44F0EA3E04A
:101EF000B48009904E08744FF0A3E4F0904E0BE0CC
:101F000004F07006904E0AE004F0809B904E08E0CA
:101F1000FCA3E0FAECFFEAFEEF904A02EEF0A3EF3A
:101F2000F0D322C3228B108A118912AF161516EF37
:101F30006026AB130515E515AA147002051414F9F3
:101F40001200F9FFAB100512E512AA11700205117B
:101F500014F9EF12013F80D322AB07AA06904C5A26
:101F6000E064017025904C637406F0A37430F0EBCC
:101F7000A3F0EAA3F0E4A3F0A304F0A3EDF07B0147
:101F80007A4C7963D1047F0AB1EC228E1D8F1EAF8B
:101F9000031BEF6013051EE51EAE1D7002051D1428
:101FA000F5828E83EDF080E7227E4C7F067B0AE48B
:101FB000FDF18B1217DB9043E7E4F0904C5E1203C7
:101FC0003E000000007F41904E5FEFF0BF40177B66
:101FD000017A4C7900904DEC744CF07F007EA07D2E
:101FE000007C000227DF904E5FE0B441217F007E3D
:101FF000A07D007C001220E27B017A4C7900904D9C
:10200000E4744CF07F007EA07D007C00110F2290D4
:102010004DDDEBF0A3EAF0A3E9F0A311D0E4FF90CB
:102020004DE4E0FEEFC39E5023904DDDE0FBA3E0C6
:10203000FAA3E0F98F82758300120112FE74C02F9B
:10204000F582E43401F583EEF00F80D39001BC7487
:1020500002F0904DE0E0FCA3E0FDA3E0FEA3E0FF72
:10206000781012030C9001BDEFF0904DE0E0FCA35E
:10207000E0FDA3E0FEA3E0FF780812030C9001BE90
:10208000EFF0904DE0E0FCA3E0FDA3E0FEA3E0FF55
:10209000E49001BFEFF0904DE4E02404FDE433FC54
:1020A000EDFAECFF3395E0EAFEEF908088EEF0A3C6
:1020B000EFF0A374BCF0A37401F090808EE4F0A361
:1020C000F09080067402F090812CE030E3F98005F6
:1020D0001203323158319CEF30E0067F01318480A9
:1020E000F422904E2F11D09001BC7420F0904E2F0E
:1020F000E0FCA3E0FDA3E0FEA3E0FF781012030CD8
:102100009001BDEFF0904E2FE0FCA3E0FDA3E0FEB8
:10211000A3E0FF780812030C9001BEEFF0904E2F61
:10212000E0FCA3E0FDA3E0FEA3E0FFE49001BFEF2D
:10213000F09080887404F0A3E4F0A374BCF0A3745E
:1021400001F090808EE4F0A3F09080067402F0908D
:10215000812CE030E3F901D590808EE4F0A3F0907B
:10216000808804F0A3E4F09001BC7406F090808AAB
:1021700074BCF0A37401F090800604F090812CE010
:1021800030E3F922EFD394004011E4FDFC0DBD00D3
:10219000010CBC04F8BD88F51F80E922904E5A74EA
:1021A000FFF090808E7401F0A3E4F090808804F03A
:1021B000A3E4F09001BC7405F090808A74BCF0A395
:1021C0007401F07D5AEDFA744EFFEAFEEFA3EEF0D3
:1021D000A3EFF09080067402F090812CE030E3F9D8
:1021E000904E5AE0FF22AC07EFD394085011904C68
:1021F000DBE0FEA807088002C313D8FC20E002C37E
:1022000022AF047401A807088002C333D8FCF45E2F
:10221000904CDBF0EC75F003A424DCF582E4344C44
:10222000F583E4F0A3F0A3F0EC25E025E024F4F539
:1022300082E4344CF58312033E00000000D3229068
:102240008101E0FFE4FCFDFE780812031FA804A949
:1022500005AA06AB07908100E0FFE4EB4FFFEAFE22
:10226000E9FDE8FCC004C005C006C007908102E09B
:10227000FFE4FCFDFE781012031FD003D002D00152
:10228000D000EF4BFFEE4AFEED49FDEC48FCC004E8
:10229000C005C006C007A3E0FFE4FCFDFE781812ED
:1022A000031FD003D002D001D000EF4BFFEE4AFE57
:1022B000ED49FDEC48FC904D14120332E4F51FAFDC
:1022C0001F904CDBE0FEA807088002C313D8FC2057
:1022D000E0026176E51F25E025E024F4F582E43490
:1022E0004CF583E0FCA3E0FDA3E0FEA3E0FF904DEE
:1022F00014E0F8A3E0F9A3E0FAA3E0FBD31202FB99
:10230000503EE51F25E025E024F4F582E4344CF549
:1023100083E0FCA3E0FDA3E0FEA3E0FF904D14E00A
:10232000F8A3E0A3E0A3E0C3EF9BFFEE9AFEED99D4
:10233000FDEC98FCE4FB7A10F9F8C31202FB50366E
:10234000904CDBE0FFAE1F7401A806088002C33387
:10235000D8FCF45F904CDBF0E51F75F003A424DC9F
:10236000F582E4344CF583E0A3E0FAA3E0F5828A39
:1023700083AF1F1203C6051FE51FC3940850024117
:10238000BF22904DAEEBF0A3EAF0A3E9F0A3ECF08E
:10239000A3EDF090805EA3E0FC90805EE0FFECFE99
:1023A000EFAA06F9904DB5E4F0A3EAF0A3E9F0E452
:1023B000904DB3F0A3F0904DB1E0FEA3E0FFC390C9
:1023C0004DB4E09F904DB3E09E40028162904DB5C8
:1023D000E0A3E475F0011201C8FEAFF0904DAEE04D
:1023E000FBA3E475F0011201C8A9F0FA751C0112F3
:1023F0002A1E90805CA3E0FC90805CE0FFECFEEF86
:10240000904DB5E0A3E0FAA3E024FFFDEA34FFFC21
:10241000EF6D7002EE6C703A90805CE0FFA3E0A379
:10242000CFF0A3EFF090810EA3E0FC90810EE0FFCF
:10243000ECFEEF4E70EF90805AA3E0FC90805AE0E3
:10244000FFECFEEFAA06F9904DB5E4F0A3EAF0A385
:10245000E9F0904DB4E004F07006904DB3E004F064
:1024600061B6904DB5E0A3E0FAA3E0AC02FDECFF4D
:102470003395E0AB07EDFFEB90805ECFF0A3EFF07C
:1024800022904D82EFF0A3EBF0A3EAF0A3E9F078FD
:10249000867C4D7D017BFF7A0479B87E007F0A122D
:1024A00000D3904D8674C5F0904D82E012036F24E6
:1024B000E88024FE81251482252A8325678425AEA1
:1024C0008525C4A02615A12670A226C1A324D7C5A0
:1024D0002708E00000276BE4904D86F0A3F0A3F0FE
:1024E000904D907403F0E176904D877401F0A374E1
:1024F00080F0A37444F0904D907404F0E176904D18
:10250000877401F0A37481F0A37445F0904D90742A
:1025100004F0E176904D877401F0A37482F0A37407
:1025200046F0904D907404F0E176904D877403F07E
:10253000A37483F0904D83E0FBA3E0FAA3E0F9904D
:102540000001120112904D89F01200F9904D8AF0AD
:102550007B017A4D79867D05F185904D8BEFF0906A
:102560004D907406F0E176904D877404F0A3748466
:10257000F0904D83E0FBA3E0FAA3E0F99000021293
:102580000112904D89F0900001120112904D8AF0D5
:102590001200F9904D8BF07B017A4D79867D06F122
:1025A00085904D8CEFF0904D907407F0E176904D52
:1025B000877401F0A37485F0A37441F0904D90747A
:1025C00004F0E176904D877405F0A374A0F0904D6F
:1025D00083E0FBA3E0FAA3E0F9900003120112905C
:1025E0004D89F0900002120112904D8AF090000186
:1025F000120112904D8BF01200F9904D8CF07B017E
:102600007A4D79867D07F185904D8DEFF0904D9054
:102610007408F0E176904D877406F0A374A1F090F1
:102620004D83E0FBA3E0FAA3E0F99000041201124D
:10263000904D89F0900003120112904D8AF09000A5
:1026400002120112904D8BF0900001120112904D78
:102650008CF01200F9904D8DF07B017A4D79867DDA
:1026600008F185904D8EEFF0904D907409F0E17671
:10267000904D877405F0A374A2F0904D83E0FBA306
:10268000E0FAA3E0F9900003120112904D89F09056
:102690000002120112904D8AF09000011201129076
:1026A0004D8BF01200F9904D8CF07B017A4D7986BC
:1026B0007D07F185904D8DEFF0904D907408F0E11D
:1026C00076904D877404F0A374A3F0904D83E0FBE3
:1026D000A3E0FAA3E0F9900002120112904D89F0F4
:1026E000900001120112904D8AF01200F9904D8B6A
:1026F000F07B017A4D79867D06F185904D8CEFF067
:10270000904D907407F0806E904D877407F0A3741D
:10271000E0F0904D83E0FBA3E0FAA3E0F990000520
:10272000120112904D89F0900004120112904D8A0E
:10273000F0900003120112904D8BF09000021201F4
:1027400012904D8CF0900001120112904D8DF012FC
:1027500000F9904D8EF07B017A4D79867D09F185E7
:10276000904D8FEFF0A3740AF0800BE4904D87F04A
:10277000904D907402F07B017A4D7986904D90E0F7
:10278000FD7C006182904E4EEBF0A3EAF0A3E9F0ED
:10279000E4FFEFC39D5035904E4EE0FBA3E0FAA35B
:1027A000E02409F9E43AFAC002C0011200F9FE90EF
:1027B0004E4EE0A3E0FAA3E0F98F82758300120188
:1027C000126ED001D00212013F0F80C6904E4EE033
:1027D000FBA3E0FAA3E0F9900009120112FF229096
:1027E0004DE8120332904DECE0FDFEE490808EEE59
:1027F000F0A3E4F09080887404F0A3E4F09001BCAE
:102800007403F0904DE8E0FCA3E0FDA3E0FEA3E03C
:10281000FF781012030C9001BDEFF0904DE8E0FC42
:10282000A3E0FDA3E0FEA3E0FF780812030C9001F3
:10283000BEEFF0904DE8E0FCA3E0FDA3E0FEA3E0D6
:10284000FFE49001BFEFF090808A74BCF0A37401A4
:10285000F0E9FCEAFFECFEEFA3EEF0A3EFF09080CE
:1028600086E04440F09080067402F090812CE020D5
:10287000E7F990812CE030E3F922904E25EBF0A3AC
:10288000EAF0A3E9F0317DEFD394025002216E907B
:102890004A05E0FC904A04E0FFECFEEF904E28EE83
:1028A000F0A3EFF0904E28E475F0011201C885F016
:1028B00082F583E0FF64C660022149904E2875F0DE
:1028C000011201C885F082F583E0FF904E25E0FB00
:1028D000A3E0FAA3E0F9EF12013F904E28E0B450D4
:1028E0000FA3E0B4000A904E28744FF0A37480F058
:1028F000E4FFFE904E25E0FBA3E0FAA3E0F912000E
:10290000F9FDC3EF9DEE9400504E904E28E475F013
:10291000011201C885F082F583E0FDE92401F9E4A4
:102920003AFAE92FF9EA3EFAED12013F904E28E01B
:10293000B4500FA3E0B4000A904E28744FF0A37473
:1029400080F00FBF00010E80AA904E25E0FBA3E0AF
:10295000FAA3E0F9E412013F904E28E0FCA3E0FA6C
:10296000ECFFEAFEEF904A04EEF0A3EFF022904E67
:1029700025E0FBA3E0FAA3E0F9E402013F904A0757
:10298000E0FC904A06E0FFECEFFD904A05E0FA908B
:102990004A04E0FFEAFEEFED2480FDE43CFCC3EDD9
:1029A0009FFFEC9E7E00EF547FFF22904A03E0FCE5
:1029B000904A02E0FFECEFFD904A01E0FA904A00F5
:1029C000E0FFEAFEEFED2480FDE43CFCC3ED9FFF59
:1029D000EC9E7E00EF547FFF2231ABEF7002D322DA
:1029E000C322904E45EBF0A3EAF0A3E9F031AB909F
:1029F0004E45E0FBA3E0FAA3E0F91200F92FFFE453
:102A000033CF2401CF3400FED3EF9480EE64809462
:102A1000804002D322C3229082807401F0228E175C
:102A20008F188B198A1A891BAF1C151CEF6025ABF8
:102A300019051BE51BAA1A7002051A14F91200F9F0
:102A4000FF0518E518AC177002051714F5828C8382
:102A5000EFF080D4228E218F228B238A248925AF08
:102A6000261526EF6025AB230525E525AA2470024F
:102A7000052414F91200F9FF0522E522AC217002A9
:102A8000052114F5828C83EFF080D422904E33EB35
:102A9000F0A3EAF0A3E9F0A3EDF0E4FFFE904E36D8
:102AA000E0FDC3EF9D7480F86E985034904E33E093
:102AB000FBA3E0FAA3E0F98F828E83120112FD706E
:102AC0001F904E36E024FFFBE434FFFAEBB5070914
:102AD000EAB50605ED7002C3220FBF00010E80BDEE
:102AE000D322EFD39400401FE4FDFCE4FBFA0BBBC0
:102AF00000010ABA04F8BB7EF50DBD00010CBC0351
:102B0000EABDE8E71F80DB22904CC5E07004C200FC
:102B1000B12C904CC5E0B40204E4FF716E904CD728
:102B2000E064017048F0FDFC7F021212F0EF4E707D
:102B300007FDFC7F0A0212F0904CC5E0B40105F1DC
:102B400024121539904CC5E0B40412120F737F03A0
:102B5000120F15BF01077F01D115121539904CC511
:102B6000E0B40305E4FF120A38E4FF910222EFB457
:102B7000010AE4904CB5F0904CB4F022EFB4020C92
:102B8000904CB57401F0E4904CB4F022904CB5E058
:102B9000146035047066904CB4E0700604F07FA0B9
:102BA000B121D10FEF64017058904CB4F0A304F040
:102BB000904C63F0A37420F07B017A4C7963121E71
:102BC00004904E5C7401F022904CB4E0700604F066
:102BD0007F85B121D10FBF0128E4904CB4F0A3F060
:102BE000904E5C7402F0FF1236877F069102E490EB
:102BF0004CC2F0904CC504F07F80A121E4904CB50C
:102C0000F022EFB40707904CBF7401F022EF604050
:102C1000B40105E4904CBAF0EFB40205E4904CBB6B
:102C2000F0EFB40305E4904CBCF0EFB40405E4907D
:102C30004CBDF0EFB40505E4904CBEF0EF640660C7
:102C400002A120904CBAF0A3F0A3F0A3F0A3F022CD
:102C5000904CBFE064016002A120F07F011217E5F3
:102C6000BF011E904CBEE004F0E0C394035002A1EB
:102C700020904CC57402F07F01716EE4904CBEF060
:102C8000227F01123687BF011E904CBDE004F0E0A8
:102C9000C394035002A120904CC57402F07F0171CF
:102CA0006EE4904CBDF022904CC5E06401704AFD8A
:102CB000FC7F031212F0EF64014E700C904CBCF0DC
:102CC000904CBAE004F0800BE4904CBAF0904CBC0D
:102CD000E004F0904CBAE0C3940F5009904CBCE073
:102CE000C3940F403B904CC57402F07F01716EE4B9
:102CF000904CBAF0904CBCF022904CC5E0B404204B
:102D0000E4904CBCF0904CBBE004F0E0C3940F4066
:102D10000F904CC57402F07F01716EE4904CBBF0D3
:102D200022E4904D57F0904D55EFF02230000AE428
:102D3000904CB7F0904CB6F022904CB7E0701690E3
:102D40004CB6E0700804F07FC5B1218008E4904CD7
:102D5000B6F0A304F0904CB7E0B4011A904CB6E082
:102D6000700604F07F84B121D10FBF0109E4904CBB
:102D7000B6F0A37402F0904CB7E0B402037403F011
:102D8000904CB7E0B4031A904CB6E0700604F07FA4
:102D900082B121D10FBF0109E4904CB6F0A37404B5
:102DA000F0904CB7E0B4041A904CB6E0700604F012
:102DB0007FA1B121D10FBF0109E4904CB6F0A374FB
:102DC00005F0904CB7E064057028904CB6E0700FA9
:102DD00004F07DB87C227F211215F87FE0B121D16B
:102DE0000FBF010EE4904CB6F0A37406F07F021200
:102DF0000F15904CB7E0B406157F01120F15EFD3F5
:102E000094C8400A904CC57401F07F80B121229093
:102E10004D57E0FF22EF7005904CA7F0227F03F1A1
:102E20004EBF01127F01F14EE4FDFC7F081212F04B
:102E3000E4904CA8F022904CA7E0705DA3E07006EF
:102E400004F07F82B121D10FEF6401706E904CA825
:102E5000F0904CD3E0904E15F0904CD4E0904E168C
:102E6000F0904CD5E0904E17F0904CD6E0904E1874
:102E7000F0904CC9E0FCA3E0FAECFFEAFEEF904EC4
:102E800013EEF0A3EFF07B017A4E7913123D909090
:102E90004CA77401F07F80A121E4FF1230B7AD0789
:102EA000AC06E4FF1231181234C8D1BC904CC0E01B
:102EB000FFA3E0904CC9CFF0A3EFF022904CC0E00C
:102EC000FEA3E0FF904CC9E0FCA3E0FDD39FEC9E85
:102ED000401FED9FFFEC9EFE904E57F0A3EFF0C316
:102EE00094E8EE9403403C904CC57401F07F068159
:102EF00002904CC9E0FEA3E0FFC3904CC1E09FFFED
:102F0000904CC0E09EFE904E57F0A3EFF0C3942C7F
:102F1000EE9401400E904CC57401F0FF1236197FFB
:102F200006910222E4FF1230B7AD07AC06E4FF12AF
:102F300031181234C8E4FDFC7F071212F0E4FF12CE
:102F40003619E4FF123687E4FF1217E5E4FFEFB409
:102F5000010BE4904CA4F0A3F0A3F0FF22EFB40225
:102F600006904CA5E0FF22EFB40306904CA6E0FFCC
:102F7000227F02123619EF60030230B4904CA2E0B7
:102F8000FEA3E0FF904CC9E0FCA3E0FDD39FEC9EC4
:102F9000400EED9FFFEC9E904E37F0A3EFF0801BAC
:102FA000904CC9E0FEA3E0FFC3904CA3E09FFF90CC
:102FB0004CA2E09E904E37F0A3EFF0C3904E38E065
:102FC000940A904E37E09400500E904CA4E0C394C5
:102FD000FF500AE004F08005E4904CA4F0904CC946
:102FE000E0FEA3E0FF904CA2EEF0A3EFF0E4904CE3
:102FF000A5F0A3F0C3EF94FAEE94005010904CA407
:10300000E09406500201B4A37401F001B4904CA402
:10301000E0D39405500201B4904CA67401F0904C9A
:10302000C3E0FEA3E0FF904CC9E0FCA3E0FDD39F0A
:10303000EC9E400EED9FFFEC9E904E39F0A3EFF01A
:10304000801B904CC9E0FEA3E0FFC3904CC4E09FFE
:10305000FF904CC3E09E904E39F0A3EFF0D3904C1C
:10306000CAE09458904CC9E09402401D904E3AE05A
:103070009419904E39E09400500F904CC3E0FFA398
:10308000E0904CC9CFF0A3EFF0904CC9E0FEA3E074
:10309000FF904CC0EEF0A3EFF0904CC3EEF0A3EF26
:1030A000F0A37404F07F02120F15E4FF122E157FB7
:1030B00006122C027F0022904E48EFF0E4FDFC7FC8
:1030C000011212F0904CD8E0FCA3E0FDD39FEC9EDF
:1030D0004014ED9FFFEC9E904E49F0A3EFF0904C12
:1030E000807401F0801A904CD8E0FCA3E0FDC3EF9F
:1030F0009DFFEE9C904E49F0A3EFF0E4904C80F0E1
:10310000904E48E0B40108904C80E0FF7E00229091
:103110004E49E0FEA3E0FF22904E0DECF0A3EDF04F
:10312000904E0CEFF0BF0209904C81E0FEA3E0FF4F
:1031300022904C83E0FEA3E0FF904E0DE0FCA3E064
:10314000FDD39FEC9E4017904C83E0A3E0ED9FFFE2
:10315000EC9EFEE4FCFD904E0F120332801E904E5A
:103160000DE0FEA3E0FFC3904C84E09FFF904C83F2
:10317000E09EFEE4FCFD904E0F120332904E0DE0F7
:10318000FFA3E0904C83CFF0A3EFF0E47F05FEFDBA
:10319000FC904E0FE0F8A3E0F9A3E0FAA3E0FBD324
:1031A0001202FB5007904E0CE0B4012BE4904C81CE
:1031B000F0A3F0904C85F0A3F0A3F0A3F0A3F0A34C
:1031C000F0A3F0A3F0A3F0A3F0A3F0A3F0A3F0A367
:1031D000F0A3F0A3F081BFC3904C82E094C8904C60
:1031E00081E09400500CA3E004F07006904C81E064
:1031F00004F0904C81E0FEA3E0FFD39401EE940034
:10320000500F904E0DE0FDA3E0904C85CDF0A3ED66
:10321000F0D3EF9402EE9400500F904E0DE0FFA318
:10322000E0904C87CFF0A3EFF0D3904C82E0940372
:10323000904C81E09400500F904E0DE0FFA3E09081
:103240004C89CFF0A3EFF0904C81E0FEA3E0FFD3D8
:103250009404EE9400500F904E0DE0FDA3E0904CCE
:103260008BCDF0A3EDF0D3EF9405EE9400500F90CA
:103270004E0DE0FFA3E0904C8DCFF0A3EFF0D39084
:103280004C82E09406904C81E09400500F904E0DDB
:10329000E0FFA3E0904C8FCFF0A3EFF0904C81E0E3
:1032A000FEA3E0FFD39407EE9400500F904E0DE084
:1032B000FDA3E0904C91CDF0A3EDF0D3EF9408EE98
:1032C0009400500F904E0DE0FFA3E0904C93CFF090
:1032D000A3EFF0D3904C82E09408904C81E09400EE
:1032E0004078904C87E0FFA3E0904C85CFF0A3EFAF
:1032F000F0904C89E0FFA3E0904C87CFF0A3EFF073
:10330000904C8BE0FFA3E0904C89CFF0A3EFF090BE
:103310004C8DE0FFA3E0904C8BCFF0A3EFF0904CEE
:103320008FE0FFA3E0904C8DCFF0A3EFF0904C9195
:10333000E0FFA3E0904C8FCFF0A3EFF0904C93E030
:10334000FFA3E0904C91CFF0A3EFF0904E0DE0FF83
:10335000A3E0904C93CFF0A3EFF0904C85E0FEA358
:10336000E0FFE4FCFD904E0F120332904E0FE0F8A8
:10337000A3E0F9A3E0FAA3E0FB904C87E0FEA3E012
:10338000FFE4FCFDEB2FFFEA3EFEED39FDEC38FCDF
:10339000904E0F120332904E0FE0F8A3E0F9A3E035
:1033A000FAA3E0FB904C89E0FEA3E0FFE4FCFDEB18
:1033B0002FFFEA3EFEED39FDEC38FC904E0F120374
:1033C00032904E0FE0F8A3E0F9A3E0FAA3E0FB90FF
:1033D0004C8BE0FEA3E0FFE4FCFDEB2FFFEA3EFE9A
:1033E000ED39FDEC38FC904E0F120332904E0FE099
:1033F000F8A3E0F9A3E0FAA3E0FB904C8DE0FEA374
:10340000E0FFE4FCFDEB2FFFEA3EFEED39FDEC387A
:10341000FC904E0F120332904E0FE0F8A3E0F9A398
:10342000E0FAA3E0FB904C8FE0FEA3E0FFE4FCFD9C
:10343000EB2FFFEA3EFEED39FDEC38FC904E0F120B
:103440000332904E0FE0F8A3E0F9A3E0FAA3E0FB0B
:10345000904C91E0FEA3E0FFE4FCFDEB2FFFEA3E81
:10346000FEED39FDEC38FC904E0F120332904E0FFA
:10347000E0F8A3E0F9A3E0FAA3E0FB904C93E0FEB0
:10348000A3E0FFE4FCFDEB2FFFEA3EFEED39FDEC8F
:1034900038FC904E0F120332E47B08FAF9F8904E94
:1034A0000FE0FCA3E0FDA3E0FEA3E0FF12026990A1
:1034B0004E0DEEF0A3EFF0904C83EEF0A3EFF09002
:1034C0004E0DE0FEA3E0FF22904DA0EEF0A3EFF042
:1034D0007F02120A38904DA8EEF0A3EFF07F03129E
:1034E0000A38904DAAEEF0A3EFF07F04120A38904C
:1034F0004DACEEF0A3EFF0904DA8E0FEA3E0FF90FE
:103500004DA0E0FCA3E0FDD39FEC9E50337E137FE3
:10351000881203C8A3120332904DA8E0FEA3E0FF77
:10352000FBAA06E4F9F8904DA2E0FCA3E0FDA3E0BD
:10353000FEA3E0FF120269904CC9EEF0A3EFF02267
:10354000904DA8E0FEA3E0FFC3904DA1E09FFF9047
:103550004DA0E09EFE904DA6F0A3EFF0C3904DABC2
:10356000E09F904DAAE09E4043904DA6E0FEA3E070
:10357000FF7C137D881203C8904DA2120332904D38
:10358000AAE0FEA3E0FFFBAA06E4F9F8904DA2E052
:10359000FCA3E0FDA3E0FEA3E0FF120269EF248894
:1035A000FFEE3413904CC9F0A3EFF022904DA8E049
:1035B000FEA3E0FFC3904DA1E09FFF904DA0E09ED1
:1035C000FE904DAAE0FCA3E0FDC3EF9DFFEE9C90B2
:1035D0004DA6F0A3EFF0904DA6E0FEA3E0FF7C1314
:1035E0007D881203C8904DA2120332904DACE0FECC
:1035F000A3E0FFFBAA06E4F9F8904DA2E0FCA3E0EB
:10360000FDA3E0FEA3E0FF120269EF2410FFEE34F9
:1036100027904CC9F0A3EFF022EFB40109904C9E23
:103620007403F07F0022EFB40206904C9EE0FF226C
:10363000EFB40307E4904C9EF0FF22E4FDFC7F030F
:103640001212F0EF64014E701B904C9EE054FDF09E
:1036500030E031904CC0E0FFA3E0904CC9CFF0A324
:10366000EFF08020904C9EE0FF30E111904CC0E0E4
:10367000FDA3E0904CC9CDF0A3EDF08007EF54FE20
:10368000904C9EF07F0022EFB40209E4904CA0F031
:10369000A3F0FF22D3904CCAE094C4904CC9E094AC
:1036A0003B4006904CA0E004F0904CA0E0C3940294
:1036B000400E7402F0A314F0904CC27404F0800524
:1036C000E4904CA1F0EFB40106904CA1E0FF227F02
:1036D0000022EFB40107E4904CA9F0A3F0EFB4028C
:1036E0000C904CA9E0C394FF5003E004F0904CAA66
:1036F000E07014904CA9E0D39496400BA37401F0B1
:10370000E4904CC3F0A3F022E4904E4BF0A3744E2F
:10371000F0A3744BF0904D55E0B4842D904D587447
:1037200006F0A374F7F0A3740FF07B017A4D79587B
:103730007F84122481904D567484F0904D55740509
:10374000F0E4904D68F0120592904D55E0640570DC
:103750006A7B017A4D79457D0BFC1207A8EF640B5B
:103760004E70587B017A4D79457D0A1217F7904DBE
:103770004FE06F7040904D47E064107038A3E0B4A4
:103780008433904D4BE0904D4EF0904D4D7455F07C
:10379000904D4AE0904D4CF0904D4B74BEF0904DE2
:1037A00049E0A3F0904D497408F0E4904D55F09035
:1037B0004D5704F022904D687415F022904D55E05D
:1037C000B4801F7B007A0079007F80122481904DA5
:1037D000567480F0904D557401F0E4904D68F012ED
:1037E0000592904D55E0640160030238917B017AA7
:1037F0004D79457D09FC1207A8EF64094E6002016E
:1038000091904D48E064806002018B904D4CE090B7
:103810004CDAF030E35C904CD77401F0904D49E005
:10382000FFE4FCFDFE780812031FA804A905AA0600
:10383000AB07A3E0FFE4FCFDFEEB2FFFEE3AFEED4D
:1038400039FDEC38FC780812031FA804A905AA0664
:10385000AB07A3E0FFE4FCFDFEEB2FFFEE3AFEED2D
:1038600039FDEC38FC780612030C904CD8EEF0A32E
:10387000EFF0904CC5E07006904D55F08006904DED
:103880005574E0F0904D577401F022904D68741516
:10389000F022904D55E0B4851F7B007A0079007FBF
:1038A00085122481904D567485F0904D557406F024
:1038B000E4904D68F0120592904D55E06406600268
:1038C00021427B017A4D79457D08FC1207A8EF64FF
:1038D000084E706E904D48E064857060A3E0FFE490
:1038E000FCFDFE780812031FA804A905AA06AB0771
:1038F000A3E0FFE4FCFDFEEB2FFFEE3AFEED39FD09
:10390000EC38FC780812031FA804A905AA06AB0727
:10391000A3E0FFE4FCFDFEEB2FFFEE3AFEED39FDE8
:10392000EC38FC780612030CAD07AC067F061212C9
:10393000F0E4904D55F0904D5704F022904D68748E
:1039400015F022904CC7E0FEA3E0FF7B017A4E7990
:103950002A3194904E2BE0FF1217CB904D23EFF0BD
:10396000904E2CE0FF1217CB904D24EFF0904E2D8F
:10397000E0FF1217CB904D25EFF0904E2EE0FF1296
:1039800017CB904D26EFF031FF7B017A4D79287FE0
:10399000E0022481904E19EEF0A3EFF0A3EBF0A328
:1039A000EAF0A3E9F0E4A3F0904E1EE0FBC3940517
:1039B000504C904E19E0FEA3E0FF7C007D0A1201FE
:1039C00073AF05EBFDC374049DFDE49400FCA3E01C
:1039D000FBA3E0FAA3E0F98D828C83EF12015190F2
:1039E0004E19E0FEA3E0FF7C007D0A120173904EA9
:1039F00019EEF0A3EFF0904E1EE004F080AA2290A2
:103A00004D26E0540FFFA3E054F04FF0904D25E019
:103A1000540FFFA3E054F04FF0904D24E0540FFFFB
:103A2000A3E054F04FF0904D23E0540FFFA3E05477
:103A3000F04FF0904D23E054F0FFF0FD904D28E062
:103A4000540FF0A3E05408F0A3E05408F0A3E054AE
:103A500008F0A3E054F8F0904D28E04DF0A3E0FF0B
:103A6000904D24E0FEEF4E904D29F0A3E0FF904DE5
:103A700025E0FEEF4E904D2AF0A3E0FF904D26E0AA
:103A8000FEEF4E904D2BF0A3E0FF904D27E0FEEFB0
:103A90004E904D2CF022E4904D28F0A3F0A3F0A31B
:103AA000F0A3F022904D2874FFF0A3F0A3F0A3F050
:103AB000A3F022904D28E0904D1DF0904D29E0900C
:103AC0004D1EF0904D2AE0904D1FF0904D2BE09050
:103AD0004D20F0904D2CE0904D21F022904DC2E40D
:103AE000F0A3F0A3F0904DC9F0904C12E0904DCBB4
:103AF000F075F006A4240CFFE435F0FE7C007D1286
:103B0000120173EDD3940040067F017B0180047F96
:103B1000007B00904C12E0FA75F006A4240CFFE440
:103B200035F0FE7C007D12120173EB2F904DCAF030
:103B3000EA75F006A4240C904E5EF0904C6474304C
:103B4000F0A3741CF0E4A3F09048D27402F0A374C4
:103B500048F0904DCAE0FF149048D4F0A3E4F0A3DD
:103B60007405F0A3E4F0A3F0A3F0EFD394015002A6
:103B700081BBE4904DC9F0904DCBE0FF904DC9E082
:103B8000C39F5047B136904DC2EBF0A3EAF0A3E9D2
:103B9000F0904DC9E075F006A424DAFFE5F0344852
:103BA000FAA9077B01C003C002904DC2E0FBA3E06D
:103BB000FAA3E08B138A14F515751606D002D0030C
:103BC000121F25904DC9E004F080AC7B017A487942
:103BD000D2904E5EE024FCFFE434FFFEE4FCFD9056
:103BE0004D981203327F007E007D007C00B1EE9084
:103BF0004DC5120332904DC9E075F006A424DAFFDA
:103C0000E5F03448FAA9077B01C0038B1375144D06
:103C10007515C5751604D003121F257B017A4879E6
:103C2000D2904E5EE0FD7C001219F2E4904DC9F096
:103C3000904DCAE0FF904DC9E0FEC39F4002A13500
:103C4000A3E0FDC454F0FFEE2F904C67F0ED14B5E7
:103C5000060A904E5EE0904C68F0800D904C6874BF
:103C600012F0904E5EE024EEF0904DC9E0FDA3E02E
:103C7000C39D14904C6BF0904C68E02405904C630D
:103C8000F0ED75F012A424D2FFE5F03448A90775D1
:103C90001301F5148915904C68E0F5167B017A4CF8
:103CA0007969121F257B017A4C7963121E047F0CFF
:103CB000121DEC904DC9E004F08130904C637413F8
:103CC000F0904C677410F0A3740EF0B136904DC2B2
:103CD000EBF0A3EAF0A3E9F04A601E904DC2E0FBCE
:103CE000A3E0FAA3E08B138A14F5157516067B0181
:103CF0007A4879DA121F25800B7B06E4FD7FD27E9D
:103D000048121F8B7513017514487515D2904C68B5
:103D1000E0F5167B017A4C7969121F257B017A4CFC
:103D20007969904C68E0FD7C001219F27B017A4CB5
:103D30007963121E0422904E51E4F0A3F0A3F09098
:103D40004C12E0D3940050077B007A007900229057
:103D50004C10E075F006A42413F9744C35F0FA9079
:103D60004E517401F0A3EAF0A3E9F0904C10E02466
:103D700001FFE433FE7C007D0A120173EDF0904CEC
:103D800012E014F0904E51E0FBA3E0FAA3E0F92218
:103D9000904E54EBF0A3EAF0A3E9F0904C12E0C38C
:103DA000940A4002B136904C11E075F006A4241339
:103DB000F9744C35F0FA7B01C003C002904E54E018
:103DC000FBA3E0FAA3E08B138A14F515751606D051
:103DD00002D003121F25904C11E02401FFE433FEB2
:103DE0007C007D0A120173EDF0A3E004F022904DF7
:103DF00091120332904D95EBF0A3EAF0A3E9F09015
:103E00004D9C12033E00000000904D98E0FCA3E0A2
:103E1000FDA3E0FEA3E0FFA3E0F8A3E0F9A3E0FA2E
:103E2000A3E0FBC31202FB4002C1DB904D9CE0A368
:103E3000E0A3E0FEA3E0FF904D95E0FBA3E0FAA332
:103E4000E0F98F828E83120112FFE4904D91E0F829
:103E5000A3E0F9A3E0FAA3E06FFFEAFEE9FDE8FCC6
:103E6000EFE4FEFDFC7B04FAF9F81201DEE42FFF1B
:103E7000EE3480FEE43DFDE43CFC904DEC7404F037
:103E80007B017A4E793B1227DF904D91E0FCA3E055
:103E9000FDA3E0FEA3E0FF780812030C904E3BE088
:103EA000F8A3E0F9A3E0FAA3E06FFFEA6EFEE96D84
:103EB000FDE86CFC904D91120332904D9CE0FCA308
:103EC000E0FDA3E0FEA3E02401FFE43EFEE43DFDAF
:103ED000E43CFC904D9C120332C109904D91E0FCF2
:0A3EE000A3E0FDA3E0FEA3E0FF2233
:00000001FF
